{
  "contractName": "ERC20Mintable",
  "abi": [
    {
      "inputs": [
        {
          "internalType": "string",
          "name": "name_",
          "type": "string"
        },
        {
          "internalType": "string",
          "name": "symbol_",
          "type": "string"
        }
      ],
      "stateMutability": "nonpayable",
      "type": "constructor"
    },
    {
      "anonymous": false,
      "inputs": [
        {
          "indexed": true,
          "internalType": "address",
          "name": "owner",
          "type": "address"
        },
        {
          "indexed": true,
          "internalType": "address",
          "name": "spender",
          "type": "address"
        },
        {
          "indexed": false,
          "internalType": "uint256",
          "name": "amount",
          "type": "uint256"
        }
      ],
      "name": "Approval",
      "type": "event"
    },
    {
      "anonymous": false,
      "inputs": [
        {
          "indexed": true,
          "internalType": "address",
          "name": "from",
          "type": "address"
        },
        {
          "indexed": true,
          "internalType": "address",
          "name": "to",
          "type": "address"
        },
        {
          "indexed": false,
          "internalType": "uint256",
          "name": "amount",
          "type": "uint256"
        }
      ],
      "name": "Transfer",
      "type": "event"
    },
    {
      "inputs": [],
      "name": "DOMAIN_SEPARATOR",
      "outputs": [
        {
          "internalType": "bytes32",
          "name": "",
          "type": "bytes32"
        }
      ],
      "stateMutability": "view",
      "type": "function",
      "constant": true
    },
    {
      "inputs": [
        {
          "internalType": "address",
          "name": "",
          "type": "address"
        },
        {
          "internalType": "address",
          "name": "",
          "type": "address"
        }
      ],
      "name": "allowance",
      "outputs": [
        {
          "internalType": "uint256",
          "name": "",
          "type": "uint256"
        }
      ],
      "stateMutability": "view",
      "type": "function",
      "constant": true
    },
    {
      "inputs": [
        {
          "internalType": "address",
          "name": "spender",
          "type": "address"
        },
        {
          "internalType": "uint256",
          "name": "amount",
          "type": "uint256"
        }
      ],
      "name": "approve",
      "outputs": [
        {
          "internalType": "bool",
          "name": "",
          "type": "bool"
        }
      ],
      "stateMutability": "nonpayable",
      "type": "function"
    },
    {
      "inputs": [
        {
          "internalType": "address",
          "name": "",
          "type": "address"
        }
      ],
      "name": "balanceOf",
      "outputs": [
        {
          "internalType": "uint256",
          "name": "",
          "type": "uint256"
        }
      ],
      "stateMutability": "view",
      "type": "function",
      "constant": true
    },
    {
      "inputs": [],
      "name": "decimals",
      "outputs": [
        {
          "internalType": "uint8",
          "name": "",
          "type": "uint8"
        }
      ],
      "stateMutability": "view",
      "type": "function",
      "constant": true
    },
    {
      "inputs": [],
      "name": "name",
      "outputs": [
        {
          "internalType": "string",
          "name": "",
          "type": "string"
        }
      ],
      "stateMutability": "view",
      "type": "function",
      "constant": true
    },
    {
      "inputs": [
        {
          "internalType": "address",
          "name": "",
          "type": "address"
        }
      ],
      "name": "nonces",
      "outputs": [
        {
          "internalType": "uint256",
          "name": "",
          "type": "uint256"
        }
      ],
      "stateMutability": "view",
      "type": "function",
      "constant": true
    },
    {
      "inputs": [
        {
          "internalType": "address",
          "name": "owner",
          "type": "address"
        },
        {
          "internalType": "address",
          "name": "spender",
          "type": "address"
        },
        {
          "internalType": "uint256",
          "name": "value",
          "type": "uint256"
        },
        {
          "internalType": "uint256",
          "name": "deadline",
          "type": "uint256"
        },
        {
          "internalType": "uint8",
          "name": "v",
          "type": "uint8"
        },
        {
          "internalType": "bytes32",
          "name": "r",
          "type": "bytes32"
        },
        {
          "internalType": "bytes32",
          "name": "s",
          "type": "bytes32"
        }
      ],
      "name": "permit",
      "outputs": [],
      "stateMutability": "nonpayable",
      "type": "function"
    },
    {
      "inputs": [],
      "name": "symbol",
      "outputs": [
        {
          "internalType": "string",
          "name": "",
          "type": "string"
        }
      ],
      "stateMutability": "view",
      "type": "function",
      "constant": true
    },
    {
      "inputs": [],
      "name": "totalSupply",
      "outputs": [
        {
          "internalType": "uint256",
          "name": "",
          "type": "uint256"
        }
      ],
      "stateMutability": "view",
      "type": "function",
      "constant": true
    },
    {
      "inputs": [
        {
          "internalType": "address",
          "name": "to",
          "type": "address"
        },
        {
          "internalType": "uint256",
          "name": "amount",
          "type": "uint256"
        }
      ],
      "name": "transfer",
      "outputs": [
        {
          "internalType": "bool",
          "name": "",
          "type": "bool"
        }
      ],
      "stateMutability": "nonpayable",
      "type": "function"
    },
    {
      "inputs": [
        {
          "internalType": "address",
          "name": "from",
          "type": "address"
        },
        {
          "internalType": "address",
          "name": "to",
          "type": "address"
        },
        {
          "internalType": "uint256",
          "name": "amount",
          "type": "uint256"
        }
      ],
      "name": "transferFrom",
      "outputs": [
        {
          "internalType": "bool",
          "name": "",
          "type": "bool"
        }
      ],
      "stateMutability": "nonpayable",
      "type": "function"
    },
    {
      "inputs": [],
      "name": "getName",
      "outputs": [
        {
          "internalType": "string",
          "name": "",
          "type": "string"
        }
      ],
      "stateMutability": "view",
      "type": "function",
      "constant": true
    },
    {
      "inputs": [],
      "name": "getSymbol",
      "outputs": [
        {
          "internalType": "string",
          "name": "",
          "type": "string"
        }
      ],
      "stateMutability": "view",
      "type": "function",
      "constant": true
    },
    {
      "inputs": [
        {
          "internalType": "uint256",
          "name": "amount",
          "type": "uint256"
        },
        {
          "internalType": "address",
          "name": "to",
          "type": "address"
        }
      ],
      "name": "mint",
      "outputs": [],
      "stateMutability": "nonpayable",
      "type": "function"
    }
  ],
  "bytecode": "0x60e06040523480156200001157600080fd5b5060405162002025380380620020258339818101604052810190620000379190620002c4565b8181601282600090816200004c919062000594565b5081600190816200005e919062000594565b508060ff1660808160ff16815250504660a08181525050620000856200009760201b60201c565b60c08181525050505050505062000811565b60007f8b73c3c69bb8fe3d512ecc4cf759cc79239f7b179b0ffacaa9a75d522b39400f6000604051620000cb91906200072a565b60405180910390207fc89efdaa54c0f20c7adf612882df0950f5a951637e0307cdcb4c672f298b8bc646306040516020016200010c959493929190620007b4565b60405160208183030381529060405280519060200120905090565b6000604051905090565b600080fd5b600080fd5b600080fd5b600080fd5b6000601f19601f8301169050919050565b7f4e487b7100000000000000000000000000000000000000000000000000000000600052604160045260246000fd5b620001908262000145565b810181811067ffffffffffffffff82111715620001b257620001b162000156565b5b80604052505050565b6000620001c762000127565b9050620001d5828262000185565b919050565b600067ffffffffffffffff821115620001f857620001f762000156565b5b620002038262000145565b9050602081019050919050565b60005b838110156200023057808201518184015260208101905062000213565b8381111562000240576000848401525b50505050565b60006200025d6200025784620001da565b620001bb565b9050828152602081018484840111156200027c576200027b62000140565b5b6200028984828562000210565b509392505050565b600082601f830112620002a957620002a86200013b565b5b8151620002bb84826020860162000246565b91505092915050565b60008060408385031215620002de57620002dd62000131565b5b600083015167ffffffffffffffff811115620002ff57620002fe62000136565b5b6200030d8582860162000291565b925050602083015167ffffffffffffffff81111562000331576200033062000136565b5b6200033f8582860162000291565b9150509250929050565b600081519050919050565b7f4e487b7100000000000000000000000000000000000000000000000000000000600052602260045260246000fd5b600060028204905060018216806200039c57607f821691505b602082108103620003b257620003b162000354565b5b50919050565b60008190508160005260206000209050919050565b60006020601f8301049050919050565b600082821b905092915050565b6000600883026200041c7fffffffffffffffffffffffffffffffffffffffffffffffffffffffffffffffff82620003dd565b620004288683620003dd565b95508019841693508086168417925050509392505050565b6000819050919050565b6000819050919050565b6000620004756200046f620004698462000440565b6200044a565b62000440565b9050919050565b6000819050919050565b620004918362000454565b620004a9620004a0826200047c565b848454620003ea565b825550505050565b600090565b620004c0620004b1565b620004cd81848462000486565b505050565b5b81811015620004f557620004e9600082620004b6565b600181019050620004d3565b5050565b601f82111562000544576200050e81620003b8565b6200051984620003cd565b8101602085101562000529578190505b620005416200053885620003cd565b830182620004d2565b50505b505050565b600082821c905092915050565b6000620005696000198460080262000549565b1980831691505092915050565b600062000584838362000556565b9150826002028217905092915050565b6200059f8262000349565b67ffffffffffffffff811115620005bb57620005ba62000156565b5b620005c7825462000383565b620005d4828285620004f9565b600060209050601f8311600181146200060c5760008415620005f7578287015190505b62000603858262000576565b86555062000673565b601f1984166200061c86620003b8565b60005b8281101562000646578489015182556001820191506020850194506020810190506200061f565b8683101562000666578489015162000662601f89168262000556565b8355505b6001600288020188555050505b505050505050565b600081905092915050565b60008190508160005260206000209050919050565b60008154620006aa8162000383565b620006b681866200067b565b94506001821660008114620006d45760018114620006ea5762000721565b60ff198316865281151582028601935062000721565b620006f58562000686565b60005b838110156200071957815481890152600182019150602081019050620006f8565b838801955050505b50505092915050565b60006200073882846200069b565b915081905092915050565b6000819050919050565b620007588162000743565b82525050565b620007698162000440565b82525050565b600073ffffffffffffffffffffffffffffffffffffffff82169050919050565b60006200079c826200076f565b9050919050565b620007ae816200078f565b82525050565b600060a082019050620007cb60008301886200074d565b620007da60208301876200074d565b620007e960408301866200074d565b620007f860608301856200075e565b620008076080830184620007a3565b9695505050505050565b60805160a05160c0516117e4620008416000396000610874015260006108400152600061081a01526117e46000f3fe608060405234801561001057600080fd5b50600436106100f55760003560e01c80633644e5151161009757806395d89b411161006657806395d89b411461028a578063a9059cbb146102a8578063d505accf146102d8578063dd62ed3e146102f4576100f5565b80633644e515146101f057806370a082311461020e5780637ecebe001461023e57806394bf804d1461026e576100f5565b806317d7de7c116100d357806317d7de7c1461016657806318160ddd1461018457806323b872dd146101a2578063313ce567146101d2576100f5565b806306fdde03146100fa578063095ea7b3146101185780631507040114610148575b600080fd5b610102610324565b60405161010f9190610f8c565b60405180910390f35b610132600480360381019061012d9190611047565b6103b2565b60405161013f91906110a2565b60405180910390f35b6101506104a4565b60405161015d9190610f8c565b60405180910390f35b61016e610536565b60405161017b9190610f8c565b60405180910390f35b61018c6105c8565b60405161019991906110cc565b60405180910390f35b6101bc60048036038101906101b791906110e7565b6105ce565b6040516101c991906110a2565b60405180910390f35b6101da610818565b6040516101e79190611156565b60405180910390f35b6101f861083c565b604051610205919061118a565b60405180910390f35b610228600480360381019061022391906111a5565b610899565b60405161023591906110cc565b60405180910390f35b610258600480360381019061025391906111a5565b6108b1565b60405161026591906110cc565b60405180910390f35b610288600480360381019061028391906111d2565b6108c9565b005b6102926108d7565b60405161029f9190610f8c565b60405180910390f35b6102c260048036038101906102bd9190611047565b610965565b6040516102cf91906110a2565b60405180910390f35b6102f260048036038101906102ed919061126a565b610a79565b005b61030e6004803603810190610309919061130c565b610d72565b60405161031b91906110cc565b60405180910390f35b600080546103319061137b565b80601f016020809104026020016040519081016040528092919081815260200182805461035d9061137b565b80156103aa5780601f1061037f576101008083540402835291602001916103aa565b820191906000526020600020905b81548152906001019060200180831161038d57829003601f168201915b505050505081565b600081600460003373ffffffffffffffffffffffffffffffffffffffff1673ffffffffffffffffffffffffffffffffffffffff16815260200190815260200160002060008573ffffffffffffffffffffffffffffffffffffffff1673ffffffffffffffffffffffffffffffffffffffff168152602001908152602001600020819055508273ffffffffffffffffffffffffffffffffffffffff163373ffffffffffffffffffffffffffffffffffffffff167f8c5be1e5ebec7d5bd14f71427d1e84f3dd0314c0f7b2291e5b200ac8c7c3b9258460405161049291906110cc565b60405180910390a36001905092915050565b6060600180546104b39061137b565b80601f01602080910402602001604051908101604052809291908181526020018280546104df9061137b565b801561052c5780601f106105015761010080835404028352916020019161052c565b820191906000526020600020905b81548152906001019060200180831161050f57829003601f168201915b5050505050905090565b6060600080546105459061137b565b80601f01602080910402602001604051908101604052809291908181526020018280546105719061137b565b80156105be5780601f10610593576101008083540402835291602001916105be565b820191906000526020600020905b8154815290600101906020018083116105a157829003601f168201915b5050505050905090565b60025481565b600080600460008673ffffffffffffffffffffffffffffffffffffffff1673ffffffffffffffffffffffffffffffffffffffff16815260200190815260200160002060003373ffffffffffffffffffffffffffffffffffffffff1673ffffffffffffffffffffffffffffffffffffffff1681526020019081526020016000205490507fffffffffffffffffffffffffffffffffffffffffffffffffffffffffffffffff811461070457828161068391906113db565b600460008773ffffffffffffffffffffffffffffffffffffffff1673ffffffffffffffffffffffffffffffffffffffff16815260200190815260200160002060003373ffffffffffffffffffffffffffffffffffffffff1673ffffffffffffffffffffffffffffffffffffffff168152602001908152602001600020819055505b82600360008773ffffffffffffffffffffffffffffffffffffffff1673ffffffffffffffffffffffffffffffffffffffff168152602001908152602001600020600082825461075391906113db565b9250508190555082600360008673ffffffffffffffffffffffffffffffffffffffff1673ffffffffffffffffffffffffffffffffffffffff168152602001908152602001600020600082825401925050819055508373ffffffffffffffffffffffffffffffffffffffff168573ffffffffffffffffffffffffffffffffffffffff167fddf252ad1be2c89b69c2b068fc378daa952ba7f163c4a11628f55a4df523b3ef8560405161080491906110cc565b60405180910390a360019150509392505050565b7f000000000000000000000000000000000000000000000000000000000000000081565b60007f000000000000000000000000000000000000000000000000000000000000000046146108725761086d610d97565b610894565b7f00000000000000000000000000000000000000000000000000000000000000005b905090565b60036020528060005260406000206000915090505481565b60056020528060005260406000206000915090505481565b6108d38183610e23565b5050565b600180546108e49061137b565b80601f01602080910402602001604051908101604052809291908181526020018280546109109061137b565b801561095d5780601f106109325761010080835404028352916020019161095d565b820191906000526020600020905b81548152906001019060200180831161094057829003601f168201915b505050505081565b600081600360003373ffffffffffffffffffffffffffffffffffffffff1673ffffffffffffffffffffffffffffffffffffffff16815260200190815260200160002060008282546109b691906113db565b9250508190555081600360008573ffffffffffffffffffffffffffffffffffffffff1673ffffffffffffffffffffffffffffffffffffffff168152602001908152602001600020600082825401925050819055508273ffffffffffffffffffffffffffffffffffffffff163373ffffffffffffffffffffffffffffffffffffffff167fddf252ad1be2c89b69c2b068fc378daa952ba7f163c4a11628f55a4df523b3ef84604051610a6791906110cc565b60405180910390a36001905092915050565b42841015610abc576040517f08c379a0000000000000000000000000000000000000000000000000000000008152600401610ab39061145b565b60405180910390fd5b60006001610ac861083c565b7f6e71edae12b1b97f4d1f60370fef10105fa2faae0126114a169c64845d6126c98a8a8a600560008f73ffffffffffffffffffffffffffffffffffffffff1673ffffffffffffffffffffffffffffffffffffffff1681526020019081526020016000206000815480929190600101919050558b604051602001610b509695949392919061148a565b60405160208183030381529060405280519060200120604051602001610b77929190611563565b6040516020818303038152906040528051906020012085858560405160008152602001604052604051610bad949392919061159a565b6020604051602081039080840390855afa158015610bcf573d6000803e3d6000fd5b505050602060405103519050600073ffffffffffffffffffffffffffffffffffffffff168173ffffffffffffffffffffffffffffffffffffffff1614158015610c4357508773ffffffffffffffffffffffffffffffffffffffff168173ffffffffffffffffffffffffffffffffffffffff16145b610c82576040517f08c379a0000000000000000000000000000000000000000000000000000000008152600401610c799061162b565b60405180910390fd5b85600460008373ffffffffffffffffffffffffffffffffffffffff1673ffffffffffffffffffffffffffffffffffffffff16815260200190815260200160002060008973ffffffffffffffffffffffffffffffffffffffff1673ffffffffffffffffffffffffffffffffffffffff16815260200190815260200160002081905550508573ffffffffffffffffffffffffffffffffffffffff168773ffffffffffffffffffffffffffffffffffffffff167f8c5be1e5ebec7d5bd14f71427d1e84f3dd0314c0f7b2291e5b200ac8c7c3b92587604051610d6191906110cc565b60405180910390a350505050505050565b6004602052816000526040600020602052806000526040600020600091509150505481565b60007f8b73c3c69bb8fe3d512ecc4cf759cc79239f7b179b0ffacaa9a75d522b39400f6000604051610dc991906116ee565b60405180910390207fc89efdaa54c0f20c7adf612882df0950f5a951637e0307cdcb4c672f298b8bc64630604051602001610e08959493929190611705565b60405160208183030381529060405280519060200120905090565b8060026000828254610e359190611758565b9250508190555080600360008473ffffffffffffffffffffffffffffffffffffffff1673ffffffffffffffffffffffffffffffffffffffff168152602001908152602001600020600082825401925050819055508173ffffffffffffffffffffffffffffffffffffffff16600073ffffffffffffffffffffffffffffffffffffffff167fddf252ad1be2c89b69c2b068fc378daa952ba7f163c4a11628f55a4df523b3ef83604051610ee791906110cc565b60405180910390a35050565b600081519050919050565b600082825260208201905092915050565b60005b83811015610f2d578082015181840152602081019050610f12565b83811115610f3c576000848401525b50505050565b6000601f19601f8301169050919050565b6000610f5e82610ef3565b610f688185610efe565b9350610f78818560208601610f0f565b610f8181610f42565b840191505092915050565b60006020820190508181036000830152610fa68184610f53565b905092915050565b600080fd5b600073ffffffffffffffffffffffffffffffffffffffff82169050919050565b6000610fde82610fb3565b9050919050565b610fee81610fd3565b8114610ff957600080fd5b50565b60008135905061100b81610fe5565b92915050565b6000819050919050565b61102481611011565b811461102f57600080fd5b50565b6000813590506110418161101b565b92915050565b6000806040838503121561105e5761105d610fae565b5b600061106c85828601610ffc565b925050602061107d85828601611032565b9150509250929050565b60008115159050919050565b61109c81611087565b82525050565b60006020820190506110b76000830184611093565b92915050565b6110c681611011565b82525050565b60006020820190506110e160008301846110bd565b92915050565b600080600060608486031215611100576110ff610fae565b5b600061110e86828701610ffc565b935050602061111f86828701610ffc565b925050604061113086828701611032565b9150509250925092565b600060ff82169050919050565b6111508161113a565b82525050565b600060208201905061116b6000830184611147565b92915050565b6000819050919050565b61118481611171565b82525050565b600060208201905061119f600083018461117b565b92915050565b6000602082840312156111bb576111ba610fae565b5b60006111c984828501610ffc565b91505092915050565b600080604083850312156111e9576111e8610fae565b5b60006111f785828601611032565b925050602061120885828601610ffc565b9150509250929050565b61121b8161113a565b811461122657600080fd5b50565b60008135905061123881611212565b92915050565b61124781611171565b811461125257600080fd5b50565b6000813590506112648161123e565b92915050565b600080600080600080600060e0888a03121561128957611288610fae565b5b60006112978a828b01610ffc565b97505060206112a88a828b01610ffc565b96505060406112b98a828b01611032565b95505060606112ca8a828b01611032565b94505060806112db8a828b01611229565b93505060a06112ec8a828b01611255565b92505060c06112fd8a828b01611255565b91505092959891949750929550565b6000806040838503121561132357611322610fae565b5b600061133185828601610ffc565b925050602061134285828601610ffc565b9150509250929050565b7f4e487b7100000000000000000000000000000000000000000000000000000000600052602260045260246000fd5b6000600282049050600182168061139357607f821691505b6020821081036113a6576113a561134c565b5b50919050565b7f4e487b7100000000000000000000000000000000000000000000000000000000600052601160045260246000fd5b60006113e682611011565b91506113f183611011565b925082821015611404576114036113ac565b5b828203905092915050565b7f5045524d49545f444541444c494e455f45585049524544000000000000000000600082015250565b6000611445601783610efe565b91506114508261140f565b602082019050919050565b6000602082019050818103600083015261147481611438565b9050919050565b61148481610fd3565b82525050565b600060c08201905061149f600083018961117b565b6114ac602083018861147b565b6114b9604083018761147b565b6114c660608301866110bd565b6114d360808301856110bd565b6114e060a08301846110bd565b979650505050505050565b600081905092915050565b7f1901000000000000000000000000000000000000000000000000000000000000600082015250565b600061152c6002836114eb565b9150611537826114f6565b600282019050919050565b6000819050919050565b61155d61155882611171565b611542565b82525050565b600061156e8261151f565b915061157a828561154c565b60208201915061158a828461154c565b6020820191508190509392505050565b60006080820190506115af600083018761117b565b6115bc6020830186611147565b6115c9604083018561117b565b6115d6606083018461117b565b95945050505050565b7f494e56414c49445f5349474e4552000000000000000000000000000000000000600082015250565b6000611615600e83610efe565b9150611620826115df565b602082019050919050565b6000602082019050818103600083015261164481611608565b9050919050565b600081905092915050565b60008190508160005260206000209050919050565b600081546116788161137b565b611682818661164b565b9450600182166000811461169d57600181146116b2576116e5565b60ff19831686528115158202860193506116e5565b6116bb85611656565b60005b838110156116dd578154818901526001820191506020810190506116be565b838801955050505b50505092915050565b60006116fa828461166b565b915081905092915050565b600060a08201905061171a600083018861117b565b611727602083018761117b565b611734604083018661117b565b61174160608301856110bd565b61174e608083018461147b565b9695505050505050565b600061176382611011565b915061176e83611011565b9250827fffffffffffffffffffffffffffffffffffffffffffffffffffffffffffffffff038211156117a3576117a26113ac565b5b82820190509291505056fea26469706673582212206bf3ad42967c8b3b7592757df879414f8ad2022e8224c181ca30a93cb5251dba64736f6c634300080f0033",
  "immutableReferences": {
    "3521": [
      {
        "length": 32,
        "start": 2074
      }
    ],
    "3535": [
      {
        "length": 32,
        "start": 2112
      }
    ],
    "3537": [
      {
        "length": 32,
        "start": 2164
      }
    ]
  },
  "source": "// SPDX-License-Identifier: Unlicense\r\npragma solidity ^0.8.14;\r\n\r\nimport \"./ERC20.sol\"; //solmate copy\r\n\r\ncontract ERC20Mintable is ERC20 {\r\n\r\n    constructor(string memory name_, string memory symbol_)\r\n        ERC20(name_, symbol_, 18)\r\n    {}\r\n\r\n    function getName() public view returns (string memory) {\r\n        return name;\r\n    }\r\n\r\n    function getSymbol() public view returns (string memory) {\r\n        return symbol;\r\n    }\r\n\r\n    function mint(uint256 amount, address to) public {\r\n        _mint(to, amount);\r\n    }\r\n}\r\n",
  "sourcePath": "C:\\Users\\eu\\WebstormProjects\\Janus\\src\\contracts\\mocks\\ERC20Mintable.sol",
  "compiler": {
    "name": "solc",
    "version": "0.8.15+commit.e14f2714.Emscripten.clang"
  },
  "schemaVersion": "3.4.7",
  "updatedAt": "2022-06-20T01:56:56.209Z",
  "networkType": "ethereum",
  "devdoc": {
    "kind": "dev",
    "methods": {},
    "version": 1
  },
  "userdoc": {
    "kind": "user",
    "methods": {},
    "version": 1
  }
}