{
  "contractName": "JanusAddOn",
  "abi": [
    {
      "inputs": [
        {
          "internalType": "contract ERC20Mintable",
          "name": "_proprietaryToken",
          "type": "address"
        },
        {
          "internalType": "contract IWhitelist",
          "name": "_whitelistHandler",
          "type": "address"
        }
      ],
      "stateMutability": "nonpayable",
      "type": "constructor"
    },
    {
      "inputs": [],
      "name": "ZeroAddress",
      "type": "error"
    },
    {
      "inputs": [
        {
          "internalType": "address",
          "name": "",
          "type": "address"
        }
      ],
      "name": "hasStaked",
      "outputs": [
        {
          "internalType": "bool",
          "name": "",
          "type": "bool"
        }
      ],
      "stateMutability": "view",
      "type": "function"
    },
    {
      "inputs": [
        {
          "internalType": "address",
          "name": "",
          "type": "address"
        }
      ],
      "name": "isStaking",
      "outputs": [
        {
          "internalType": "bool",
          "name": "",
          "type": "bool"
        }
      ],
      "stateMutability": "view",
      "type": "function"
    },
    {
      "inputs": [],
      "name": "owner",
      "outputs": [
        {
          "internalType": "address",
          "name": "",
          "type": "address"
        }
      ],
      "stateMutability": "view",
      "type": "function"
    },
    {
      "inputs": [],
      "name": "proprietaryToken",
      "outputs": [
        {
          "internalType": "contract ERC20Mintable",
          "name": "",
          "type": "address"
        }
      ],
      "stateMutability": "view",
      "type": "function"
    },
    {
      "inputs": [
        {
          "internalType": "uint256",
          "name": "",
          "type": "uint256"
        }
      ],
      "name": "stakers",
      "outputs": [
        {
          "internalType": "address",
          "name": "",
          "type": "address"
        }
      ],
      "stateMutability": "view",
      "type": "function"
    },
    {
      "inputs": [
        {
          "internalType": "address",
          "name": "",
          "type": "address"
        }
      ],
      "name": "stakingBalance",
      "outputs": [
        {
          "internalType": "uint256",
          "name": "",
          "type": "uint256"
        }
      ],
      "stateMutability": "view",
      "type": "function"
    },
    {
      "inputs": [],
      "name": "whitelistHandler",
      "outputs": [
        {
          "internalType": "contract IWhitelist",
          "name": "",
          "type": "address"
        }
      ],
      "stateMutability": "view",
      "type": "function"
    },
    {
      "inputs": [
        {
          "internalType": "uint256",
          "name": "_amount",
          "type": "uint256"
        },
        {
          "internalType": "address",
          "name": "_staker",
          "type": "address"
        },
        {
          "internalType": "string",
          "name": "_userWhitelist",
          "type": "string"
        }
      ],
      "name": "awardProprietaryTokenForStaking",
      "outputs": [],
      "stateMutability": "nonpayable",
      "type": "function"
    },
    {
      "inputs": [
        {
          "internalType": "address",
          "name": "_staker",
          "type": "address"
        }
      ],
      "name": "getBalanceOfStaker",
      "outputs": [
        {
          "internalType": "uint256",
          "name": "",
          "type": "uint256"
        }
      ],
      "stateMutability": "nonpayable",
      "type": "function"
    }
  ],
  "bytecode": "0x60806040523480156200001157600080fd5b5060405162000fd638038062000fd68339818101604052810190620000379190620001c4565b81600560006101000a81548173ffffffffffffffffffffffffffffffffffffffff021916908373ffffffffffffffffffffffffffffffffffffffff16021790555033600660006101000a81548173ffffffffffffffffffffffffffffffffffffffff021916908373ffffffffffffffffffffffffffffffffffffffff160217905550806000806101000a81548173ffffffffffffffffffffffffffffffffffffffff021916908373ffffffffffffffffffffffffffffffffffffffff16021790555050506200020b565b600080fd5b600073ffffffffffffffffffffffffffffffffffffffff82169050919050565b6000620001338262000106565b9050919050565b6000620001478262000126565b9050919050565b62000159816200013a565b81146200016557600080fd5b50565b60008151905062000179816200014e565b92915050565b60006200018c8262000126565b9050919050565b6200019e816200017f565b8114620001aa57600080fd5b50565b600081519050620001be8162000193565b92915050565b60008060408385031215620001de57620001dd62000101565b5b6000620001ee8582860162000168565b92505060206200020185828601620001ad565b9150509250929050565b610dbb806200021b6000396000f3fe608060405234801561001057600080fd5b50600436106100935760003560e01c80638da5cb5b116100665780638da5cb5b14610134578063c93c8f3414610152578063dfd6d39414610182578063ec340e4c146101b2578063fd5e6dd1146101ce57610093565b806345bc78ab146100985780636d1e3674146100c85780636f49712b146100e6578063790a45a914610116575b600080fd5b6100b260048036038101906100ad9190610777565b6101fe565b6040516100bf91906107bd565b60405180910390f35b6100d0610216565b6040516100dd9190610837565b60405180910390f35b61010060048036038101906100fb9190610777565b61023c565b60405161010d919061086d565b60405180910390f35b61011e61025c565b60405161012b91906108a9565b60405180910390f35b61013c610280565b60405161014991906108d3565b60405180910390f35b61016c60048036038101906101679190610777565b6102a6565b604051610179919061086d565b60405180910390f35b61019c60048036038101906101979190610777565b6102c6565b6040516101a991906107bd565b60405180910390f35b6101cc60048036038101906101c79190610a60565b61030f565b005b6101e860048036038101906101e39190610acf565b6106c6565b6040516101f591906108d3565b60405180910390f35b60026020528060005260406000206000915090505481565b600560009054906101000a900473ffffffffffffffffffffffffffffffffffffffff1681565b60046020528060005260406000206000915054906101000a900460ff1681565b60008054906101000a900473ffffffffffffffffffffffffffffffffffffffff1681565b600660009054906101000a900473ffffffffffffffffffffffffffffffffffffffff1681565b60036020528060005260406000206000915054906101000a900460ff1681565b6000600260008373ffffffffffffffffffffffffffffffffffffffff1673ffffffffffffffffffffffffffffffffffffffff168152602001908152602001600020549050919050565b60008054906101000a900473ffffffffffffffffffffffffffffffffffffffff1673ffffffffffffffffffffffffffffffffffffffff16631eb41b71826040518263ffffffff1660e01b81526004016103689190610b84565b6020604051808303816000875af1158015610387573d6000803e3d6000fd5b505050506040513d601f19601f820116820180604052508101906103ab9190610bd2565b6103ea576040517f08c379a00000000000000000000000000000000000000000000000000000000081526004016103e190610c4b565b60405180910390fd5b6000831161042d576040517f08c379a000000000000000000000000000000000000000000000000000000000815260040161042490610cb7565b60405180910390fd5b600560009054906101000a900473ffffffffffffffffffffffffffffffffffffffff1673ffffffffffffffffffffffffffffffffffffffff1663a9059cbb83856040518363ffffffff1660e01b815260040161048a929190610cd7565b6020604051808303816000875af11580156104a9573d6000803e3d6000fd5b505050506040513d601f19601f820116820180604052508101906104cd9190610bd2565b5082600260008473ffffffffffffffffffffffffffffffffffffffff1673ffffffffffffffffffffffffffffffffffffffff168152602001908152602001600020546105199190610d2f565b600260008473ffffffffffffffffffffffffffffffffffffffff1673ffffffffffffffffffffffffffffffffffffffff16815260200190815260200160002081905550600360008373ffffffffffffffffffffffffffffffffffffffff1673ffffffffffffffffffffffffffffffffffffffff16815260200190815260200160002060009054906101000a900460ff16610611576001829080600181540180825580915050600190039060005260206000200160009091909190916101000a81548173ffffffffffffffffffffffffffffffffffffffff021916908373ffffffffffffffffffffffffffffffffffffffff1602179055505b6001600460008473ffffffffffffffffffffffffffffffffffffffff1673ffffffffffffffffffffffffffffffffffffffff16815260200190815260200160002060006101000a81548160ff0219169083151502179055506001600360008473ffffffffffffffffffffffffffffffffffffffff1673ffffffffffffffffffffffffffffffffffffffff16815260200190815260200160002060006101000a81548160ff021916908315150217905550505050565b600181815481106106d657600080fd5b906000526020600020016000915054906101000a900473ffffffffffffffffffffffffffffffffffffffff1681565b6000604051905090565b600080fd5b600080fd5b600073ffffffffffffffffffffffffffffffffffffffff82169050919050565b600061074482610719565b9050919050565b61075481610739565b811461075f57600080fd5b50565b6000813590506107718161074b565b92915050565b60006020828403121561078d5761078c61070f565b5b600061079b84828501610762565b91505092915050565b6000819050919050565b6107b7816107a4565b82525050565b60006020820190506107d260008301846107ae565b92915050565b6000819050919050565b60006107fd6107f86107f384610719565b6107d8565b610719565b9050919050565b600061080f826107e2565b9050919050565b600061082182610804565b9050919050565b61083181610816565b82525050565b600060208201905061084c6000830184610828565b92915050565b60008115159050919050565b61086781610852565b82525050565b6000602082019050610882600083018461085e565b92915050565b600061089382610804565b9050919050565b6108a381610888565b82525050565b60006020820190506108be600083018461089a565b92915050565b6108cd81610739565b82525050565b60006020820190506108e860008301846108c4565b92915050565b6108f7816107a4565b811461090257600080fd5b50565b600081359050610914816108ee565b92915050565b600080fd5b600080fd5b6000601f19601f8301169050919050565b7f4e487b7100000000000000000000000000000000000000000000000000000000600052604160045260246000fd5b61096d82610924565b810181811067ffffffffffffffff8211171561098c5761098b610935565b5b80604052505050565b600061099f610705565b90506109ab8282610964565b919050565b600067ffffffffffffffff8211156109cb576109ca610935565b5b6109d482610924565b9050602081019050919050565b82818337600083830152505050565b6000610a036109fe846109b0565b610995565b905082815260208101848484011115610a1f57610a1e61091f565b5b610a2a8482856109e1565b509392505050565b600082601f830112610a4757610a4661091a565b5b8135610a578482602086016109f0565b91505092915050565b600080600060608486031215610a7957610a7861070f565b5b6000610a8786828701610905565b9350506020610a9886828701610762565b925050604084013567ffffffffffffffff811115610ab957610ab8610714565b5b610ac586828701610a32565b9150509250925092565b600060208284031215610ae557610ae461070f565b5b6000610af384828501610905565b91505092915050565b600081519050919050565b600082825260208201905092915050565b60005b83811015610b36578082015181840152602081019050610b1b565b83811115610b45576000848401525b50505050565b6000610b5682610afc565b610b608185610b07565b9350610b70818560208601610b18565b610b7981610924565b840191505092915050565b60006020820190508181036000830152610b9e8184610b4b565b905092915050565b610baf81610852565b8114610bba57600080fd5b50565b600081519050610bcc81610ba6565b92915050565b600060208284031215610be857610be761070f565b5b6000610bf684828501610bbd565b91505092915050565b7f55736572206e6f7420616c6c6f77656400000000000000000000000000000000600082015250565b6000610c35601083610b07565b9150610c4082610bff565b602082019050919050565b60006020820190508181036000830152610c6481610c28565b9050919050565b7f616d6f756e742063616e6e6f7420626520300000000000000000000000000000600082015250565b6000610ca1601283610b07565b9150610cac82610c6b565b602082019050919050565b60006020820190508181036000830152610cd081610c94565b9050919050565b6000604082019050610cec60008301856108c4565b610cf960208301846107ae565b9392505050565b7f4e487b7100000000000000000000000000000000000000000000000000000000600052601160045260246000fd5b6000610d3a826107a4565b9150610d45836107a4565b9250827fffffffffffffffffffffffffffffffffffffffffffffffffffffffffffffffff03821115610d7a57610d79610d00565b5b82820190509291505056fea26469706673582212206645387a71c647d60effa37550bc709a92b242cc344d5d3582161f6e0d03b1ed64736f6c634300080e0033",
  "immutableReferences": {},
  "source": "// SPDX-License-Identifier: Unlicense\r\npragma solidity ^0.8.14;\r\n\r\nimport \"./interfaces/ITokenFactory.sol\";\r\nimport \"./mocks/ERC20Mintable.sol\";\r\nimport \"./interfaces/IWhitelist.sol\";\r\n\r\ncontract JanusAddOn {\r\n    error ZeroAddress();\r\n\r\n    // holds all addresses that are permited to interact with the add-on\r\n    IWhitelist public whitelistHandler;\r\n    // holds all the stakers (aka. Liquidity Providers)\r\n    address[] public stakers;\r\n    mapping(address => uint) public stakingBalance;\r\n    mapping(address => bool) public hasStaked;\r\n    mapping(address => bool) public isStaking;\r\n    ERC20Mintable public proprietaryToken;\r\n    address public owner;\r\n\r\n    constructor(ERC20Mintable _proprietaryToken, IWhitelist _whitelistHandler) {\r\n        proprietaryToken = _proprietaryToken;\r\n        owner = msg.sender;\r\n        whitelistHandler = _whitelistHandler;\r\n    }\r\n\r\n    function awardProprietaryTokenForStaking(uint _amount, address _staker, string memory _userWhitelist) public {\r\n        if (!whitelistHandler.checkUser(_userWhitelist)) {\r\n            revert('User not allowed');\r\n        }\r\n        require(_amount > 0, \"amount cannot be 0\");\r\n\r\n        proprietaryToken.transfer(_staker, _amount);\r\n        stakingBalance[_staker] = stakingBalance[_staker] + _amount;\r\n        if(!hasStaked[_staker]) {\r\n            stakers.push(_staker);\r\n        }\r\n        isStaking[_staker] = true;\r\n        hasStaked[_staker] = true;\r\n    }\r\n\r\n    function getBalanceOfStaker(address _staker) public returns(uint) {\r\n        return stakingBalance[_staker];\r\n    }\r\n}\r\n",
  "sourcePath": "C:\\Users\\eu\\WebstormProjects\\Janus\\src\\contracts\\JanusAddOn.sol",
  "compiler": {
    "name": "solc",
    "version": "0.8.14+commit.80d49f37.Emscripten.clang"
  },
  "schemaVersion": "3.4.7",
  "updatedAt": "2022-06-08T14:28:31.768Z",
  "networkType": "ethereum",
  "devdoc": {
    "kind": "dev",
    "methods": {},
    "version": 1
  },
  "userdoc": {
    "kind": "user",
    "methods": {},
    "version": 1
  }
}