{
  "contractName": "JanusAddOn",
  "abi": [
    {
      "inputs": [
        {
          "internalType": "address",
          "name": "_proprietaryToken",
          "type": "address"
        },
        {
          "internalType": "address",
          "name": "_whitelistHandler",
          "type": "address"
        },
        {
          "internalType": "address",
          "name": "_treasuryHandler",
          "type": "address"
        },
        {
          "internalType": "address",
          "name": "_oracleHandler",
          "type": "address"
        }
      ],
      "stateMutability": "nonpayable",
      "type": "constructor"
    },
    {
      "inputs": [],
      "name": "CanNotBuyYourOwnOption",
      "type": "error"
    },
    {
      "inputs": [],
      "name": "NotEnoughBalance",
      "type": "error"
    },
    {
      "inputs": [],
      "name": "ZeroAddress",
      "type": "error"
    },
    {
      "inputs": [],
      "name": "optionCount",
      "outputs": [
        {
          "internalType": "uint256",
          "name": "",
          "type": "uint256"
        }
      ],
      "stateMutability": "view",
      "type": "function",
      "constant": true
    },
    {
      "inputs": [
        {
          "internalType": "uint256",
          "name": "",
          "type": "uint256"
        }
      ],
      "name": "options",
      "outputs": [
        {
          "internalType": "uint256",
          "name": "ID",
          "type": "uint256"
        },
        {
          "components": [
            {
              "internalType": "address",
              "name": "tokenAddress",
              "type": "address"
            },
            {
              "internalType": "string",
              "name": "title",
              "type": "string"
            },
            {
              "internalType": "string",
              "name": "symbol",
              "type": "string"
            }
          ],
          "internalType": "struct IOptionsStruct.Token",
          "name": "token",
          "type": "tuple"
        },
        {
          "internalType": "uint256",
          "name": "amount",
          "type": "uint256"
        },
        {
          "internalType": "uint256",
          "name": "strikePrice",
          "type": "uint256"
        },
        {
          "internalType": "uint256",
          "name": "premiumValue",
          "type": "uint256"
        },
        {
          "internalType": "string",
          "name": "duration",
          "type": "string"
        },
        {
          "internalType": "bool",
          "name": "isCall",
          "type": "bool"
        },
        {
          "internalType": "address",
          "name": "buyerAddress",
          "type": "address"
        },
        {
          "internalType": "address",
          "name": "sellerAddress",
          "type": "address"
        }
      ],
      "stateMutability": "view",
      "type": "function",
      "constant": true
    },
    {
      "inputs": [],
      "name": "oracleHandler",
      "outputs": [
        {
          "internalType": "contract IOracle",
          "name": "",
          "type": "address"
        }
      ],
      "stateMutability": "view",
      "type": "function",
      "constant": true
    },
    {
      "inputs": [],
      "name": "owner",
      "outputs": [
        {
          "internalType": "address",
          "name": "",
          "type": "address"
        }
      ],
      "stateMutability": "view",
      "type": "function",
      "constant": true
    },
    {
      "inputs": [],
      "name": "proprietaryToken",
      "outputs": [
        {
          "internalType": "contract ERC20Mintable",
          "name": "",
          "type": "address"
        }
      ],
      "stateMutability": "view",
      "type": "function",
      "constant": true
    },
    {
      "inputs": [],
      "name": "treasuryHandler",
      "outputs": [
        {
          "internalType": "contract ITreasury",
          "name": "",
          "type": "address"
        }
      ],
      "stateMutability": "view",
      "type": "function",
      "constant": true
    },
    {
      "inputs": [],
      "name": "whitelistHandler",
      "outputs": [
        {
          "internalType": "contract IWhitelist",
          "name": "",
          "type": "address"
        }
      ],
      "stateMutability": "view",
      "type": "function",
      "constant": true
    },
    {
      "inputs": [
        {
          "internalType": "string",
          "name": "_userWhitelist",
          "type": "string"
        },
        {
          "internalType": "address",
          "name": "_tokenAddress",
          "type": "address"
        },
        {
          "internalType": "uint256",
          "name": "_amount",
          "type": "uint256"
        },
        {
          "internalType": "uint256",
          "name": "_strikePrice",
          "type": "uint256"
        },
        {
          "internalType": "uint256",
          "name": "_premiumValue",
          "type": "uint256"
        },
        {
          "internalType": "string",
          "name": "_duration",
          "type": "string"
        },
        {
          "internalType": "bool",
          "name": "_isCall",
          "type": "bool"
        }
      ],
      "name": "createOption",
      "outputs": [],
      "stateMutability": "nonpayable",
      "type": "function"
    },
    {
      "inputs": [
        {
          "internalType": "string",
          "name": "_userWhitelist",
          "type": "string"
        },
        {
          "internalType": "uint256",
          "name": "_optionID",
          "type": "uint256"
        }
      ],
      "name": "buyOption",
      "outputs": [],
      "stateMutability": "nonpayable",
      "type": "function"
    },
    {
      "inputs": [
        {
          "internalType": "uint256",
          "name": "_optionID",
          "type": "uint256"
        }
      ],
      "name": "buyOption1",
      "outputs": [],
      "stateMutability": "nonpayable",
      "type": "function"
    },
    {
      "inputs": [
        {
          "internalType": "uint256",
          "name": "_optionID",
          "type": "uint256"
        }
      ],
      "name": "getOptionByID",
      "outputs": [
        {
          "components": [
            {
              "internalType": "uint256",
              "name": "ID",
              "type": "uint256"
            },
            {
              "components": [
                {
                  "internalType": "address",
                  "name": "tokenAddress",
                  "type": "address"
                },
                {
                  "internalType": "string",
                  "name": "title",
                  "type": "string"
                },
                {
                  "internalType": "string",
                  "name": "symbol",
                  "type": "string"
                }
              ],
              "internalType": "struct IOptionsStruct.Token",
              "name": "token",
              "type": "tuple"
            },
            {
              "internalType": "uint256",
              "name": "amount",
              "type": "uint256"
            },
            {
              "internalType": "uint256",
              "name": "strikePrice",
              "type": "uint256"
            },
            {
              "internalType": "uint256",
              "name": "premiumValue",
              "type": "uint256"
            },
            {
              "internalType": "string",
              "name": "duration",
              "type": "string"
            },
            {
              "internalType": "bool",
              "name": "isCall",
              "type": "bool"
            },
            {
              "internalType": "address",
              "name": "buyerAddress",
              "type": "address"
            },
            {
              "internalType": "address",
              "name": "sellerAddress",
              "type": "address"
            }
          ],
          "internalType": "struct IOptionsStruct.Option",
          "name": "",
          "type": "tuple"
        }
      ],
      "stateMutability": "view",
      "type": "function",
      "constant": true
    },
    {
      "inputs": [],
      "name": "getOptionsCount",
      "outputs": [
        {
          "internalType": "uint256",
          "name": "",
          "type": "uint256"
        }
      ],
      "stateMutability": "view",
      "type": "function",
      "constant": true
    },
    {
      "inputs": [],
      "name": "getAllOptions",
      "outputs": [
        {
          "components": [
            {
              "internalType": "uint256",
              "name": "ID",
              "type": "uint256"
            },
            {
              "components": [
                {
                  "internalType": "address",
                  "name": "tokenAddress",
                  "type": "address"
                },
                {
                  "internalType": "string",
                  "name": "title",
                  "type": "string"
                },
                {
                  "internalType": "string",
                  "name": "symbol",
                  "type": "string"
                }
              ],
              "internalType": "struct IOptionsStruct.Token",
              "name": "token",
              "type": "tuple"
            },
            {
              "internalType": "uint256",
              "name": "amount",
              "type": "uint256"
            },
            {
              "internalType": "uint256",
              "name": "strikePrice",
              "type": "uint256"
            },
            {
              "internalType": "uint256",
              "name": "premiumValue",
              "type": "uint256"
            },
            {
              "internalType": "string",
              "name": "duration",
              "type": "string"
            },
            {
              "internalType": "bool",
              "name": "isCall",
              "type": "bool"
            },
            {
              "internalType": "address",
              "name": "buyerAddress",
              "type": "address"
            },
            {
              "internalType": "address",
              "name": "sellerAddress",
              "type": "address"
            }
          ],
          "internalType": "struct IOptionsStruct.Option[]",
          "name": "",
          "type": "tuple[]"
        }
      ],
      "stateMutability": "view",
      "type": "function",
      "constant": true
    },
    {
      "inputs": [
        {
          "internalType": "string",
          "name": "_userWhitelist",
          "type": "string"
        },
        {
          "internalType": "uint256",
          "name": "_optionID",
          "type": "uint256"
        }
      ],
      "name": "executeOption",
      "outputs": [],
      "stateMutability": "nonpayable",
      "type": "function"
    }
  ],
  "bytecode": "0x60806040523480156200001157600080fd5b5060405162003e4738038062003e478339818101604052810190620000379190620001f7565b600060068190555083600360006101000a81548173ffffffffffffffffffffffffffffffffffffffff021916908373ffffffffffffffffffffffffffffffffffffffff16021790555033600760006101000a81548173ffffffffffffffffffffffffffffffffffffffff021916908373ffffffffffffffffffffffffffffffffffffffff160217905550826000806101000a81548173ffffffffffffffffffffffffffffffffffffffff021916908373ffffffffffffffffffffffffffffffffffffffff16021790555081600160006101000a81548173ffffffffffffffffffffffffffffffffffffffff021916908373ffffffffffffffffffffffffffffffffffffffff16021790555080600260006101000a81548173ffffffffffffffffffffffffffffffffffffffff021916908373ffffffffffffffffffffffffffffffffffffffff1602179055505050505062000269565b600080fd5b600073ffffffffffffffffffffffffffffffffffffffff82169050919050565b6000620001bf8262000192565b9050919050565b620001d181620001b2565b8114620001dd57600080fd5b50565b600081519050620001f181620001c6565b92915050565b600080600080608085870312156200021457620002136200018d565b5b60006200022487828801620001e0565b94505060206200023787828801620001e0565b93505060406200024a87828801620001e0565b92505060606200025d87828801620001e0565b91505092959194509250565b613bce80620002796000396000f3fe608060405234801561001057600080fd5b50600436106100ea5760003560e01c8063790a45a91161008c578063a5da849511610066578063a5da849514610231578063a80071e91461024d578063be82815014610269578063e32fe90b14610299576100ea565b8063790a45a9146101d75780638da5cb5b146101f5578063a4d4334a14610213576100ea565b80634b4b0d37116100c85780634b4b0d37146101615780636b89ff451461017f5780636d1e36741461019d578063733d22f5146101bb576100ea565b806317889633146100ef5780631a83af8f1461010d578063409e220514610129575b600080fd5b6100f76102b7565b6040516101049190612ba9565b60405180910390f35b61012760048036038101906101229190612c73565b6102dd565b005b610143600480360381019061013e9190612cd3565b61081a565b60405161015899989796959493929190612e94565b60405180910390f35b610169610ac1565b6040516101769190613132565b60405180910390f35b610187610e30565b6040516101949190613175565b60405180910390f35b6101a5610e56565b6040516101b291906131b1565b60405180910390f35b6101d560048036038101906101d09190612cd3565b610e7c565b005b6101df61173a565b6040516101ec91906131ed565b60405180910390f35b6101fd61175e565b60405161020a9190613208565b60405180910390f35b61021b611784565b6040516102289190613223565b60405180910390f35b61024b60048036038101906102469190612c73565b61178e565b005b61026760048036038101906102629190613296565b61212b565b005b610283600480360381019061027e9190612cd3565b612730565b6040516102909190613444565b60405180910390f35b6102a1612a6d565b6040516102ae9190613223565b60405180910390f35b600160009054906101000a900473ffffffffffffffffffffffffffffffffffffffff1681565b6000600460008381526020019081526020016000206040518061012001604052908160008201548152602001600182016040518060600160405290816000820160009054906101000a900473ffffffffffffffffffffffffffffffffffffffff1673ffffffffffffffffffffffffffffffffffffffff1673ffffffffffffffffffffffffffffffffffffffff16815260200160018201805461037e90613495565b80601f01602080910402602001604051908101604052809291908181526020018280546103aa90613495565b80156103f75780601f106103cc576101008083540402835291602001916103f7565b820191906000526020600020905b8154815290600101906020018083116103da57829003601f168201915b5050505050815260200160028201805461041090613495565b80601f016020809104026020016040519081016040528092919081815260200182805461043c90613495565b80156104895780601f1061045e57610100808354040283529160200191610489565b820191906000526020600020905b81548152906001019060200180831161046c57829003601f168201915b50505050508152505081526020016004820154815260200160058201548152602001600682015481526020016007820180546104c490613495565b80601f01602080910402602001604051908101604052809291908181526020018280546104f090613495565b801561053d5780601f106105125761010080835404028352916020019161053d565b820191906000526020600020905b81548152906001019060200180831161052057829003601f168201915b505050505081526020016008820160009054906101000a900460ff161515151581526020016008820160019054906101000a900473ffffffffffffffffffffffffffffffffffffffff1673ffffffffffffffffffffffffffffffffffffffff1673ffffffffffffffffffffffffffffffffffffffff1681526020016009820160009054906101000a900473ffffffffffffffffffffffffffffffffffffffff1673ffffffffffffffffffffffffffffffffffffffff1673ffffffffffffffffffffffffffffffffffffffff168152505090506000600260009054906101000a900473ffffffffffffffffffffffffffffffffffffffff1673ffffffffffffffffffffffffffffffffffffffff166366f0dbed8360200151600001518460400151336040518463ffffffff1660e01b815260040161067c939291906134c6565b6020604051808303816000875af115801561069b573d6000803e3d6000fd5b505050506040513d601f19601f820116820180604052508101906106bf9190613512565b9050600160009054906101000a900473ffffffffffffffffffffffffffffffffffffffff1673ffffffffffffffffffffffffffffffffffffffff166396aeec8f836101000151836040518363ffffffff1660e01b815260040161072392919061353f565b6020604051808303816000875af1158015610742573d6000803e3d6000fd5b505050506040513d601f19601f820116820180604052508101906107669190613512565b50600160009054906101000a900473ffffffffffffffffffffffffffffffffffffffff1673ffffffffffffffffffffffffffffffffffffffff1663b4fb9355836101000151838560e001516040518463ffffffff1660e01b81526004016107cf939291906134c6565b6020604051808303816000875af11580156107ee573d6000803e3d6000fd5b505050506040513d601f19601f820116820180604052508101906108129190613512565b505050505050565b6004602052806000526040600020600091509050806000015490806001016040518060600160405290816000820160009054906101000a900473ffffffffffffffffffffffffffffffffffffffff1673ffffffffffffffffffffffffffffffffffffffff1673ffffffffffffffffffffffffffffffffffffffff1681526020016001820180546108a990613495565b80601f01602080910402602001604051908101604052809291908181526020018280546108d590613495565b80156109225780601f106108f757610100808354040283529160200191610922565b820191906000526020600020905b81548152906001019060200180831161090557829003601f168201915b5050505050815260200160028201805461093b90613495565b80601f016020809104026020016040519081016040528092919081815260200182805461096790613495565b80156109b45780601f10610989576101008083540402835291602001916109b4565b820191906000526020600020905b81548152906001019060200180831161099757829003601f168201915b505050505081525050908060040154908060050154908060060154908060070180546109df90613495565b80601f0160208091040260200160405190810160405280929190818152602001828054610a0b90613495565b8015610a585780601f10610a2d57610100808354040283529160200191610a58565b820191906000526020600020905b815481529060010190602001808311610a3b57829003601f168201915b5050505050908060080160009054906101000a900460ff16908060080160019054906101000a900473ffffffffffffffffffffffffffffffffffffffff16908060090160009054906101000a900473ffffffffffffffffffffffffffffffffffffffff16905089565b60606005805480602002602001604051908101604052809291908181526020016000905b82821015610e2757838290600052602060002090600a02016040518061012001604052908160008201548152602001600182016040518060600160405290816000820160009054906101000a900473ffffffffffffffffffffffffffffffffffffffff1673ffffffffffffffffffffffffffffffffffffffff1673ffffffffffffffffffffffffffffffffffffffff168152602001600182018054610b8990613495565b80601f0160208091040260200160405190810160405280929190818152602001828054610bb590613495565b8015610c025780601f10610bd757610100808354040283529160200191610c02565b820191906000526020600020905b815481529060010190602001808311610be557829003601f168201915b50505050508152602001600282018054610c1b90613495565b80601f0160208091040260200160405190810160405280929190818152602001828054610c4790613495565b8015610c945780601f10610c6957610100808354040283529160200191610c94565b820191906000526020600020905b815481529060010190602001808311610c7757829003601f168201915b5050505050815250508152602001600482015481526020016005820154815260200160068201548152602001600782018054610ccf90613495565b80601f0160208091040260200160405190810160405280929190818152602001828054610cfb90613495565b8015610d485780601f10610d1d57610100808354040283529160200191610d48565b820191906000526020600020905b815481529060010190602001808311610d2b57829003601f168201915b505050505081526020016008820160009054906101000a900460ff161515151581526020016008820160019054906101000a900473ffffffffffffffffffffffffffffffffffffffff1673ffffffffffffffffffffffffffffffffffffffff1673ffffffffffffffffffffffffffffffffffffffff1681526020016009820160009054906101000a900473ffffffffffffffffffffffffffffffffffffffff1673ffffffffffffffffffffffffffffffffffffffff1673ffffffffffffffffffffffffffffffffffffffff168152505081526020019060010190610ae5565b50505050905090565b600260009054906101000a900473ffffffffffffffffffffffffffffffffffffffff1681565b600360009054906101000a900473ffffffffffffffffffffffffffffffffffffffff1681565b6004600082815260200190815260200160002060090160009054906101000a900473ffffffffffffffffffffffffffffffffffffffff1673ffffffffffffffffffffffffffffffffffffffff163373ffffffffffffffffffffffffffffffffffffffff1603610f17576040517fa4c0b56b00000000000000000000000000000000000000000000000000000000815260040160405180910390fd5b6000600160009054906101000a900473ffffffffffffffffffffffffffffffffffffffff1673ffffffffffffffffffffffffffffffffffffffff1663dfd6d394336040518263ffffffff1660e01b8152600401610f749190613208565b6020604051808303816000875af1158015610f93573d6000803e3d6000fd5b505050506040513d601f19601f82011682018060405250810190610fb79190613512565b90506000600460008481526020019081526020016000206040518061012001604052908160008201548152602001600182016040518060600160405290816000820160009054906101000a900473ffffffffffffffffffffffffffffffffffffffff1673ffffffffffffffffffffffffffffffffffffffff1673ffffffffffffffffffffffffffffffffffffffff16815260200160018201805461105a90613495565b80601f016020809104026020016040519081016040528092919081815260200182805461108690613495565b80156110d35780601f106110a8576101008083540402835291602001916110d3565b820191906000526020600020905b8154815290600101906020018083116110b657829003601f168201915b505050505081526020016002820180546110ec90613495565b80601f016020809104026020016040519081016040528092919081815260200182805461111890613495565b80156111655780601f1061113a57610100808354040283529160200191611165565b820191906000526020600020905b81548152906001019060200180831161114857829003601f168201915b50505050508152505081526020016004820154815260200160058201548152602001600682015481526020016007820180546111a090613495565b80601f01602080910402602001604051908101604052809291908181526020018280546111cc90613495565b80156112195780601f106111ee57610100808354040283529160200191611219565b820191906000526020600020905b8154815290600101906020018083116111fc57829003601f168201915b505050505081526020016008820160009054906101000a900460ff161515151581526020016008820160019054906101000a900473ffffffffffffffffffffffffffffffffffffffff1673ffffffffffffffffffffffffffffffffffffffff1673ffffffffffffffffffffffffffffffffffffffff1681526020016009820160009054906101000a900473ffffffffffffffffffffffffffffffffffffffff1673ffffffffffffffffffffffffffffffffffffffff1673ffffffffffffffffffffffffffffffffffffffff168152505090506000600260009054906101000a900473ffffffffffffffffffffffffffffffffffffffff1673ffffffffffffffffffffffffffffffffffffffff166366f0dbed8360200151600001518460400151336040518463ffffffff1660e01b8152600401611358939291906134c6565b6020604051808303816000875af1158015611377573d6000803e3d6000fd5b505050506040513d601f19601f8201168201806040525081019061139b9190613512565b9050600081846113ab91906135a1565b905060008112156113e8576040517fad3a8b9e00000000000000000000000000000000000000000000000000000000815260040160405180910390fd5b338360e0019073ffffffffffffffffffffffffffffffffffffffff16908173ffffffffffffffffffffffffffffffffffffffff168152505082600460008781526020019081526020016000206000820151816000015560208201518160010160008201518160000160006101000a81548173ffffffffffffffffffffffffffffffffffffffff021916908373ffffffffffffffffffffffffffffffffffffffff16021790555060208201518160010190816114a39190613806565b5060408201518160020190816114b99190613806565b50505060408201518160040155606082015181600501556080820151816006015560a08201518160070190816114ef9190613806565b5060c08201518160080160006101000a81548160ff02191690831515021790555060e08201518160080160016101000a81548173ffffffffffffffffffffffffffffffffffffffff021916908373ffffffffffffffffffffffffffffffffffffffff1602179055506101008201518160090160006101000a81548173ffffffffffffffffffffffffffffffffffffffff021916908373ffffffffffffffffffffffffffffffffffffffff16021790555090505082600586815481106115b7576115b66138d8565b5b90600052602060002090600a02016000820151816000015560208201518160010160008201518160000160006101000a81548173ffffffffffffffffffffffffffffffffffffffff021916908373ffffffffffffffffffffffffffffffffffffffff16021790555060208201518160010190816116349190613806565b50604082015181600201908161164a9190613806565b50505060408201518160040155606082015181600501556080820151816006015560a08201518160070190816116809190613806565b5060c08201518160080160006101000a81548160ff02191690831515021790555060e08201518160080160016101000a81548173ffffffffffffffffffffffffffffffffffffffff021916908373ffffffffffffffffffffffffffffffffffffffff1602179055506101008201518160090160006101000a81548173ffffffffffffffffffffffffffffffffffffffff021916908373ffffffffffffffffffffffffffffffffffffffff1602179055509050505050505050565b60008054906101000a900473ffffffffffffffffffffffffffffffffffffffff1681565b600760009054906101000a900473ffffffffffffffffffffffffffffffffffffffff1681565b6000600654905090565b60008054906101000a900473ffffffffffffffffffffffffffffffffffffffff1673ffffffffffffffffffffffffffffffffffffffff16631eb41b7184846040518363ffffffff1660e01b81526004016117e9929190613943565b6020604051808303816000875af1158015611808573d6000803e3d6000fd5b505050506040513d601f19601f8201168201806040525081019061182c919061397c565b61186b576040517f08c379a0000000000000000000000000000000000000000000000000000000008152600401611862906139f5565b60405180910390fd5b6004600082815260200190815260200160002060090160009054906101000a900473ffffffffffffffffffffffffffffffffffffffff1673ffffffffffffffffffffffffffffffffffffffff163373ffffffffffffffffffffffffffffffffffffffff1603611906576040517fa4c0b56b00000000000000000000000000000000000000000000000000000000815260040160405180910390fd5b6000600160009054906101000a900473ffffffffffffffffffffffffffffffffffffffff1673ffffffffffffffffffffffffffffffffffffffff1663dfd6d394336040518263ffffffff1660e01b81526004016119639190613208565b6020604051808303816000875af1158015611982573d6000803e3d6000fd5b505050506040513d601f19601f820116820180604052508101906119a69190613512565b90506000600460008481526020019081526020016000206040518061012001604052908160008201548152602001600182016040518060600160405290816000820160009054906101000a900473ffffffffffffffffffffffffffffffffffffffff1673ffffffffffffffffffffffffffffffffffffffff1673ffffffffffffffffffffffffffffffffffffffff168152602001600182018054611a4990613495565b80601f0160208091040260200160405190810160405280929190818152602001828054611a7590613495565b8015611ac25780601f10611a9757610100808354040283529160200191611ac2565b820191906000526020600020905b815481529060010190602001808311611aa557829003601f168201915b50505050508152602001600282018054611adb90613495565b80601f0160208091040260200160405190810160405280929190818152602001828054611b0790613495565b8015611b545780601f10611b2957610100808354040283529160200191611b54565b820191906000526020600020905b815481529060010190602001808311611b3757829003601f168201915b5050505050815250508152602001600482015481526020016005820154815260200160068201548152602001600782018054611b8f90613495565b80601f0160208091040260200160405190810160405280929190818152602001828054611bbb90613495565b8015611c085780601f10611bdd57610100808354040283529160200191611c08565b820191906000526020600020905b815481529060010190602001808311611beb57829003601f168201915b505050505081526020016008820160009054906101000a900460ff161515151581526020016008820160019054906101000a900473ffffffffffffffffffffffffffffffffffffffff1673ffffffffffffffffffffffffffffffffffffffff1673ffffffffffffffffffffffffffffffffffffffff1681526020016009820160009054906101000a900473ffffffffffffffffffffffffffffffffffffffff1673ffffffffffffffffffffffffffffffffffffffff1673ffffffffffffffffffffffffffffffffffffffff168152505090506000600260009054906101000a900473ffffffffffffffffffffffffffffffffffffffff1673ffffffffffffffffffffffffffffffffffffffff166366f0dbed8360200151600001518460400151336040518463ffffffff1660e01b8152600401611d47939291906134c6565b6020604051808303816000875af1158015611d66573d6000803e3d6000fd5b505050506040513d601f19601f82011682018060405250810190611d8a9190613512565b905060008184611d9a91906135a1565b90506000811215611dd7576040517fad3a8b9e00000000000000000000000000000000000000000000000000000000815260040160405180910390fd5b338360e0019073ffffffffffffffffffffffffffffffffffffffff16908173ffffffffffffffffffffffffffffffffffffffff168152505082600460008781526020019081526020016000206000820151816000015560208201518160010160008201518160000160006101000a81548173ffffffffffffffffffffffffffffffffffffffff021916908373ffffffffffffffffffffffffffffffffffffffff1602179055506020820151816001019081611e929190613806565b506040820151816002019081611ea89190613806565b50505060408201518160040155606082015181600501556080820151816006015560a0820151816007019081611ede9190613806565b5060c08201518160080160006101000a81548160ff02191690831515021790555060e08201518160080160016101000a81548173ffffffffffffffffffffffffffffffffffffffff021916908373ffffffffffffffffffffffffffffffffffffffff1602179055506101008201518160090160006101000a81548173ffffffffffffffffffffffffffffffffffffffff021916908373ffffffffffffffffffffffffffffffffffffffff1602179055509050508260058681548110611fa657611fa56138d8565b5b90600052602060002090600a02016000820151816000015560208201518160010160008201518160000160006101000a81548173ffffffffffffffffffffffffffffffffffffffff021916908373ffffffffffffffffffffffffffffffffffffffff16021790555060208201518160010190816120239190613806565b5060408201518160020190816120399190613806565b50505060408201518160040155606082015181600501556080820151816006015560a082015181600701908161206f9190613806565b5060c08201518160080160006101000a81548160ff02191690831515021790555060e08201518160080160016101000a81548173ffffffffffffffffffffffffffffffffffffffff021916908373ffffffffffffffffffffffffffffffffffffffff1602179055506101008201518160090160006101000a81548173ffffffffffffffffffffffffffffffffffffffff021916908373ffffffffffffffffffffffffffffffffffffffff16021790555090505050505050505050565b60008054906101000a900473ffffffffffffffffffffffffffffffffffffffff1673ffffffffffffffffffffffffffffffffffffffff16631eb41b718a8a6040518363ffffffff1660e01b8152600401612186929190613943565b6020604051808303816000875af11580156121a5573d6000803e3d6000fd5b505050506040513d601f19601f820116820180604052508101906121c9919061397c565b612208576040517f08c379a00000000000000000000000000000000000000000000000000000000081526004016121ff906139f5565b60405180910390fd5b600087905060008173ffffffffffffffffffffffffffffffffffffffff166317d7de7c6040518163ffffffff1660e01b8152600401600060405180830381865afa15801561225a573d6000803e3d6000fd5b505050506040513d6000823e3d601f19601f820116820180604052508101906122839190613b07565b905060008273ffffffffffffffffffffffffffffffffffffffff1663150704016040518163ffffffff1660e01b8152600401600060405180830381865afa1580156122d2573d6000803e3d6000fd5b505050506040513d6000823e3d601f19601f820116820180604052508101906122fb9190613b07565b9050600060405180606001604052808c73ffffffffffffffffffffffffffffffffffffffff168152602001848152602001838152509050600060405180610120016040528060065481526020018381526020018c81526020018b81526020018a815260200189898080601f016020809104026020016040519081016040528093929190818152602001838380828437600081840152601f19601f8201169050808301925050505050505081526020018715158152602001600073ffffffffffffffffffffffffffffffffffffffff1681526020013373ffffffffffffffffffffffffffffffffffffffff168152509050806004600060065481526020019081526020016000206000820151816000015560208201518160010160008201518160000160006101000a81548173ffffffffffffffffffffffffffffffffffffffff021916908373ffffffffffffffffffffffffffffffffffffffff16021790555060208201518160010190816124709190613806565b5060408201518160020190816124869190613806565b50505060408201518160040155606082015181600501556080820151816006015560a08201518160070190816124bc9190613806565b5060c08201518160080160006101000a81548160ff02191690831515021790555060e08201518160080160016101000a81548173ffffffffffffffffffffffffffffffffffffffff021916908373ffffffffffffffffffffffffffffffffffffffff1602179055506101008201518160090160006101000a81548173ffffffffffffffffffffffffffffffffffffffff021916908373ffffffffffffffffffffffffffffffffffffffff16021790555090505060058190806001815401808255809150506001900390600052602060002090600a02016000909190919091506000820151816000015560208201518160010160008201518160000160006101000a81548173ffffffffffffffffffffffffffffffffffffffff021916908373ffffffffffffffffffffffffffffffffffffffff160217905550602082015181600101908161260a9190613806565b5060408201518160020190816126209190613806565b50505060408201518160040155606082015181600501556080820151816006015560a08201518160070190816126569190613806565b5060c08201518160080160006101000a81548160ff02191690831515021790555060e08201518160080160016101000a81548173ffffffffffffffffffffffffffffffffffffffff021916908373ffffffffffffffffffffffffffffffffffffffff1602179055506101008201518160090160006101000a81548173ffffffffffffffffffffffffffffffffffffffff021916908373ffffffffffffffffffffffffffffffffffffffff16021790555050506006600081548092919061271b90613b50565b91905055505050505050505050505050505050565b612738612a73565b600460008381526020019081526020016000206040518061012001604052908160008201548152602001600182016040518060600160405290816000820160009054906101000a900473ffffffffffffffffffffffffffffffffffffffff1673ffffffffffffffffffffffffffffffffffffffff1673ffffffffffffffffffffffffffffffffffffffff1681526020016001820180546127d790613495565b80601f016020809104026020016040519081016040528092919081815260200182805461280390613495565b80156128505780601f1061282557610100808354040283529160200191612850565b820191906000526020600020905b81548152906001019060200180831161283357829003601f168201915b5050505050815260200160028201805461286990613495565b80601f016020809104026020016040519081016040528092919081815260200182805461289590613495565b80156128e25780601f106128b7576101008083540402835291602001916128e2565b820191906000526020600020905b8154815290600101906020018083116128c557829003601f168201915b505050505081525050815260200160048201548152602001600582015481526020016006820154815260200160078201805461291d90613495565b80601f016020809104026020016040519081016040528092919081815260200182805461294990613495565b80156129965780601f1061296b57610100808354040283529160200191612996565b820191906000526020600020905b81548152906001019060200180831161297957829003601f168201915b505050505081526020016008820160009054906101000a900460ff161515151581526020016008820160019054906101000a900473ffffffffffffffffffffffffffffffffffffffff1673ffffffffffffffffffffffffffffffffffffffff1673ffffffffffffffffffffffffffffffffffffffff1681526020016009820160009054906101000a900473ffffffffffffffffffffffffffffffffffffffff1673ffffffffffffffffffffffffffffffffffffffff1673ffffffffffffffffffffffffffffffffffffffff16815250509050919050565b60065481565b60405180610120016040528060008152602001612a8e612af3565b815260200160008152602001600081526020016000815260200160608152602001600015158152602001600073ffffffffffffffffffffffffffffffffffffffff168152602001600073ffffffffffffffffffffffffffffffffffffffff1681525090565b6040518060600160405280600073ffffffffffffffffffffffffffffffffffffffff16815260200160608152602001606081525090565b600073ffffffffffffffffffffffffffffffffffffffff82169050919050565b6000819050919050565b6000612b6f612b6a612b6584612b2a565b612b4a565b612b2a565b9050919050565b6000612b8182612b54565b9050919050565b6000612b9382612b76565b9050919050565b612ba381612b88565b82525050565b6000602082019050612bbe6000830184612b9a565b92915050565b6000604051905090565b600080fd5b600080fd5b600080fd5b600080fd5b600080fd5b60008083601f840112612bfd57612bfc612bd8565b5b8235905067ffffffffffffffff811115612c1a57612c19612bdd565b5b602083019150836001820283011115612c3657612c35612be2565b5b9250929050565b6000819050919050565b612c5081612c3d565b8114612c5b57600080fd5b50565b600081359050612c6d81612c47565b92915050565b600080600060408486031215612c8c57612c8b612bce565b5b600084013567ffffffffffffffff811115612caa57612ca9612bd3565b5b612cb686828701612be7565b93509350506020612cc986828701612c5e565b9150509250925092565b600060208284031215612ce957612ce8612bce565b5b6000612cf784828501612c5e565b91505092915050565b612d0981612c3d565b82525050565b6000612d1a82612b2a565b9050919050565b612d2a81612d0f565b82525050565b600081519050919050565b600082825260208201905092915050565b60005b83811015612d6a578082015181840152602081019050612d4f565b83811115612d79576000848401525b50505050565b6000601f19601f8301169050919050565b6000612d9b82612d30565b612da58185612d3b565b9350612db5818560208601612d4c565b612dbe81612d7f565b840191505092915050565b6000606083016000830151612de16000860182612d21565b5060208301518482036020860152612df98282612d90565b91505060408301518482036040860152612e138282612d90565b9150508091505092915050565b600082825260208201905092915050565b6000612e3c82612d30565b612e468185612e20565b9350612e56818560208601612d4c565b612e5f81612d7f565b840191505092915050565b60008115159050919050565b612e7f81612e6a565b82525050565b612e8e81612d0f565b82525050565b600061012082019050612eaa600083018c612d00565b8181036020830152612ebc818b612dc9565b9050612ecb604083018a612d00565b612ed86060830189612d00565b612ee56080830188612d00565b81810360a0830152612ef78187612e31565b9050612f0660c0830186612e76565b612f1360e0830185612e85565b612f21610100830184612e85565b9a9950505050505050505050565b600081519050919050565b600082825260208201905092915050565b6000819050602082019050919050565b612f6481612c3d565b82525050565b6000606083016000830151612f826000860182612d21565b5060208301518482036020860152612f9a8282612d90565b91505060408301518482036040860152612fb48282612d90565b9150508091505092915050565b612fca81612e6a565b82525050565b600061012083016000830151612fe96000860182612f5b565b50602083015184820360208601526130018282612f6a565b91505060408301516130166040860182612f5b565b5060608301516130296060860182612f5b565b50608083015161303c6080860182612f5b565b5060a083015184820360a08601526130548282612d90565b91505060c083015161306960c0860182612fc1565b5060e083015161307c60e0860182612d21565b50610100830151613091610100860182612d21565b508091505092915050565b60006130a88383612fd0565b905092915050565b6000602082019050919050565b60006130c882612f2f565b6130d28185612f3a565b9350836020820285016130e485612f4b565b8060005b858110156131205784840389528151613101858261309c565b945061310c836130b0565b925060208a019950506001810190506130e8565b50829750879550505050505092915050565b6000602082019050818103600083015261314c81846130bd565b905092915050565b600061315f82612b76565b9050919050565b61316f81613154565b82525050565b600060208201905061318a6000830184613166565b92915050565b600061319b82612b76565b9050919050565b6131ab81613190565b82525050565b60006020820190506131c660008301846131a2565b92915050565b60006131d782612b76565b9050919050565b6131e7816131cc565b82525050565b600060208201905061320260008301846131de565b92915050565b600060208201905061321d6000830184612e85565b92915050565b60006020820190506132386000830184612d00565b92915050565b61324781612d0f565b811461325257600080fd5b50565b6000813590506132648161323e565b92915050565b61327381612e6a565b811461327e57600080fd5b50565b6000813590506132908161326a565b92915050565b600080600080600080600080600060e08a8c0312156132b8576132b7612bce565b5b60008a013567ffffffffffffffff8111156132d6576132d5612bd3565b5b6132e28c828d01612be7565b995099505060206132f58c828d01613255565b97505060406133068c828d01612c5e565b96505060606133178c828d01612c5e565b95505060806133288c828d01612c5e565b94505060a08a013567ffffffffffffffff81111561334957613348612bd3565b5b6133558c828d01612be7565b935093505060c06133688c828d01613281565b9150509295985092959850929598565b6000610120830160008301516133916000860182612f5b565b50602083015184820360208601526133a98282612f6a565b91505060408301516133be6040860182612f5b565b5060608301516133d16060860182612f5b565b5060808301516133e46080860182612f5b565b5060a083015184820360a08601526133fc8282612d90565b91505060c083015161341160c0860182612fc1565b5060e083015161342460e0860182612d21565b50610100830151613439610100860182612d21565b508091505092915050565b6000602082019050818103600083015261345e8184613378565b905092915050565b7f4e487b7100000000000000000000000000000000000000000000000000000000600052602260045260246000fd5b600060028204905060018216806134ad57607f821691505b6020821081036134c0576134bf613466565b5b50919050565b60006060820190506134db6000830186612e85565b6134e86020830185612d00565b6134f56040830184612e85565b949350505050565b60008151905061350c81612c47565b92915050565b60006020828403121561352857613527612bce565b5b6000613536848285016134fd565b91505092915050565b60006040820190506135546000830185612e85565b6135616020830184612d00565b9392505050565b6000819050919050565b7f4e487b7100000000000000000000000000000000000000000000000000000000600052601160045260246000fd5b60006135ac82613568565b91506135b783613568565b9250827f8000000000000000000000000000000000000000000000000000000000000000018212600084121516156135f2576135f1613572565b5b827f7fffffffffffffffffffffffffffffffffffffffffffffffffffffffffffffff01821360008412161561362a57613629613572565b5b828203905092915050565b7f4e487b7100000000000000000000000000000000000000000000000000000000600052604160045260246000fd5b60008190508160005260206000209050919050565b60006020601f8301049050919050565b600082821b905092915050565b6000600883026136c67fffffffffffffffffffffffffffffffffffffffffffffffffffffffffffffffff82613689565b6136d08683613689565b95508019841693508086168417925050509392505050565b60006137036136fe6136f984612c3d565b612b4a565b612c3d565b9050919050565b6000819050919050565b61371d836136e8565b6137316137298261370a565b848454613696565b825550505050565b600090565b613746613739565b613751818484613714565b505050565b5b818110156137755761376a60008261373e565b600181019050613757565b5050565b601f8211156137ba5761378b81613664565b61379484613679565b810160208510156137a3578190505b6137b76137af85613679565b830182613756565b50505b505050565b600082821c905092915050565b60006137dd600019846008026137bf565b1980831691505092915050565b60006137f683836137cc565b9150826002028217905092915050565b61380f82612d30565b67ffffffffffffffff81111561382857613827613635565b5b6138328254613495565b61383d828285613779565b600060209050601f831160018114613870576000841561385e578287015190505b61386885826137ea565b8655506138d0565b601f19841661387e86613664565b60005b828110156138a657848901518255600182019150602085019450602081019050613881565b868310156138c357848901516138bf601f8916826137cc565b8355505b6001600288020188555050505b505050505050565b7f4e487b7100000000000000000000000000000000000000000000000000000000600052603260045260246000fd5b82818337600083830152505050565b60006139228385612e20565b935061392f838584613907565b61393883612d7f565b840190509392505050565b6000602082019050818103600083015261395e818486613916565b90509392505050565b6000815190506139768161326a565b92915050565b60006020828403121561399257613991612bce565b5b60006139a084828501613967565b91505092915050565b7f55736572206e6f7420616c6c6f77656400000000000000000000000000000000600082015250565b60006139df601083612e20565b91506139ea826139a9565b602082019050919050565b60006020820190508181036000830152613a0e816139d2565b9050919050565b600080fd5b613a2382612d7f565b810181811067ffffffffffffffff82111715613a4257613a41613635565b5b80604052505050565b6000613a55612bc4565b9050613a618282613a1a565b919050565b600067ffffffffffffffff821115613a8157613a80613635565b5b613a8a82612d7f565b9050602081019050919050565b6000613aaa613aa584613a66565b613a4b565b905082815260208101848484011115613ac657613ac5613a15565b5b613ad1848285612d4c565b509392505050565b600082601f830112613aee57613aed612bd8565b5b8151613afe848260208601613a97565b91505092915050565b600060208284031215613b1d57613b1c612bce565b5b600082015167ffffffffffffffff811115613b3b57613b3a612bd3565b5b613b4784828501613ad9565b91505092915050565b6000613b5b82612c3d565b91507fffffffffffffffffffffffffffffffffffffffffffffffffffffffffffffffff8203613b8d57613b8c613572565b5b60018201905091905056fea264697066735822122094780881c31894511055b65135511e9f89ae0feb352b90791ff2e9341b0606b564736f6c634300080f0033",
  "immutableReferences": {},
  "source": "// SPDX-License-Identifier: Unlicense\r\npragma solidity ^0.8.14;\r\n\r\nimport \"./interfaces/ITokenFactory.sol\";\r\nimport \"./mocks/ERC20Mintable.sol\";\r\nimport \"./interfaces/IWhitelist.sol\";\r\nimport \"./interfaces/ITreasury.sol\";\r\nimport \"./interfaces/IOracle.sol\";\r\nimport \"./interfaces/IOptionsStruct.sol\";\r\n\r\ncontract JanusAddOn is IOptionsStruct {\r\n    error ZeroAddress();\r\n    error CanNotBuyYourOwnOption();\r\n    error NotEnoughBalance();\r\n\r\n    // holds all addresses that are permited to interact with the add-on\r\n    IWhitelist public whitelistHandler;\r\n    ITreasury public treasuryHandler;\r\n    IOracle public oracleHandler;\r\n    ERC20Mintable public proprietaryToken;\r\n    mapping (uint => Option) public options; // holds all options\r\n    Option[] optionsArray;\r\n    uint public optionCount;\r\n    address public owner;\r\n\r\n    constructor(address _proprietaryToken, address _whitelistHandler, address _treasuryHandler, address _oracleHandler) {\r\n        optionCount = 0;\r\n        proprietaryToken = ERC20Mintable(_proprietaryToken);\r\n        owner = msg.sender;\r\n        whitelistHandler = IWhitelist(_whitelistHandler);\r\n        treasuryHandler = ITreasury(_treasuryHandler);\r\n        oracleHandler = IOracle(_oracleHandler);\r\n    }\r\n\r\n    function createOption(string calldata _userWhitelist, address _tokenAddress, uint _amount, uint _strikePrice,\r\n        uint _premiumValue, string calldata _duration, bool _isCall) public {\r\n        if (!whitelistHandler.checkUser(_userWhitelist)) {\r\n            revert('User not allowed');\r\n        }\r\n        ERC20Mintable mintableToken = ERC20Mintable(_tokenAddress);\r\n        string memory tokenTitle = mintableToken.getName();\r\n        string memory tokenSymbol = mintableToken.getSymbol();\r\n        Token memory token = Token(_tokenAddress, tokenTitle, tokenSymbol);\r\n        Option memory option = Option(optionCount, token, _amount, _strikePrice, _premiumValue, _duration, _isCall, address(0), msg.sender);\r\n        options[optionCount] = option;\r\n        optionsArray.push(option);\r\n        optionCount++;\r\n    }\r\n\r\n    function buyOption(string calldata _userWhitelist, uint _optionID) public {\r\n        if (!whitelistHandler.checkUser(_userWhitelist)) {\r\n            revert('User not allowed');\r\n        }\r\n        if (msg.sender == options[_optionID].sellerAddress) {\r\n            revert CanNotBuyYourOwnOption();\r\n        }\r\n        uint buyerBalance = treasuryHandler.getBalanceOfStaker(msg.sender);\r\n        Option memory option = options[_optionID];\r\n        uint optionValueInProprietaryTokens = oracleHandler.convertToProprietaryToken(option.token.tokenAddress, option.amount, msg.sender);\r\n        int subTotal = int(buyerBalance) - int(optionValueInProprietaryTokens);\r\n        if (subTotal < 0) {\r\n            revert NotEnoughBalance();\r\n        }\r\n        option.buyerAddress = msg.sender;\r\n        options[_optionID] = option;\r\n        optionsArray[_optionID] = option;\r\n    }\r\n\r\n    function buyOption1(uint _optionID) public {\r\n        if (msg.sender == options[_optionID].sellerAddress) {\r\n            revert CanNotBuyYourOwnOption();\r\n        }\r\n        uint buyerBalance = treasuryHandler.getBalanceOfStaker(msg.sender);\r\n        Option memory option = options[_optionID];\r\n        uint optionValueInProprietaryTokens = oracleHandler.convertToProprietaryToken(option.token.tokenAddress, option.amount, msg.sender);\r\n        int subTotal = int(buyerBalance) - int(optionValueInProprietaryTokens);\r\n        if (subTotal < 0) {\r\n            revert NotEnoughBalance();\r\n        }\r\n        option.buyerAddress = msg.sender;\r\n        options[_optionID] = option;\r\n        optionsArray[_optionID] = option;\r\n    }\r\n\r\n    function getOptionByID(uint _optionID) public view returns(Option memory) {\r\n        return options[_optionID];\r\n    }\r\n\r\n    function getOptionsCount() public view returns(uint) {\r\n        return optionCount;\r\n    }\r\n\r\n    function getAllOptions() public view returns(Option[] memory) {\r\n        return optionsArray;\r\n    }\r\n\r\n    function executeOption(string calldata _userWhitelist, uint _optionID) public {\r\n        Option memory option = options[_optionID];\r\n        uint amount = oracleHandler.convertToProprietaryToken(option.token.tokenAddress, option.amount, msg.sender);\r\n        treasuryHandler.reduceBalanceOfStaker(option.sellerAddress, amount);\r\n        treasuryHandler.awardProprietaryTokenForStaking(option.sellerAddress, amount, option.buyerAddress);\r\n    }\r\n}\r\n",
  "sourcePath": "C:\\Users\\eu\\WebstormProjects\\Janus\\src\\contracts\\JanusAddOn.sol",
  "compiler": {
    "name": "solc",
    "version": "0.8.15+commit.e14f2714.Emscripten.clang"
  },
  "schemaVersion": "3.4.7",
  "updatedAt": "2022-06-20T01:56:56.172Z",
  "networkType": "ethereum",
  "devdoc": {
    "kind": "dev",
    "methods": {},
    "version": 1
  },
  "userdoc": {
    "kind": "user",
    "methods": {},
    "version": 1
  }
}