{
  "contractName": "Oracle",
  "abi": [
    {
      "inputs": [
        {
          "internalType": "address",
          "name": "_proprietaryTokenAddress",
          "type": "address"
        },
        {
          "internalType": "address",
          "name": "_whitelistAddress",
          "type": "address"
        }
      ],
      "stateMutability": "nonpayable",
      "type": "constructor"
    },
    {
      "inputs": [],
      "name": "OnlyOwnerCanAccess",
      "type": "error"
    },
    {
      "inputs": [],
      "name": "ZeroAddress",
      "type": "error"
    },
    {
      "inputs": [],
      "name": "ZeroAmount",
      "type": "error"
    },
    {
      "inputs": [
        {
          "internalType": "address",
          "name": "",
          "type": "address"
        }
      ],
      "name": "checkedToken",
      "outputs": [
        {
          "internalType": "bool",
          "name": "",
          "type": "bool"
        }
      ],
      "stateMutability": "view",
      "type": "function",
      "constant": true
    },
    {
      "inputs": [],
      "name": "owner",
      "outputs": [
        {
          "internalType": "address",
          "name": "",
          "type": "address"
        }
      ],
      "stateMutability": "view",
      "type": "function",
      "constant": true
    },
    {
      "inputs": [],
      "name": "proprietaryToken",
      "outputs": [
        {
          "internalType": "contract ERC20Mintable",
          "name": "",
          "type": "address"
        }
      ],
      "stateMutability": "view",
      "type": "function",
      "constant": true
    },
    {
      "inputs": [
        {
          "internalType": "address",
          "name": "",
          "type": "address"
        }
      ],
      "name": "valueToProprietaryToken",
      "outputs": [
        {
          "internalType": "uint256",
          "name": "",
          "type": "uint256"
        }
      ],
      "stateMutability": "view",
      "type": "function",
      "constant": true
    },
    {
      "inputs": [],
      "name": "whitelist",
      "outputs": [
        {
          "internalType": "contract IWhitelist",
          "name": "",
          "type": "address"
        }
      ],
      "stateMutability": "view",
      "type": "function",
      "constant": true
    },
    {
      "inputs": [
        {
          "internalType": "address",
          "name": "_tokenAddress",
          "type": "address"
        },
        {
          "internalType": "uint256",
          "name": "_conversionRateToOneProprietaryToken",
          "type": "uint256"
        }
      ],
      "name": "setConversionRate",
      "outputs": [
        {
          "internalType": "uint256",
          "name": "",
          "type": "uint256"
        }
      ],
      "stateMutability": "nonpayable",
      "type": "function"
    },
    {
      "inputs": [
        {
          "internalType": "address",
          "name": "_tokenAddress",
          "type": "address"
        },
        {
          "internalType": "uint256",
          "name": "_amount",
          "type": "uint256"
        },
        {
          "internalType": "address",
          "name": "_user",
          "type": "address"
        }
      ],
      "name": "convertToProprietaryToken",
      "outputs": [
        {
          "internalType": "uint256",
          "name": "",
          "type": "uint256"
        }
      ],
      "stateMutability": "nonpayable",
      "type": "function"
    }
  ],
  "bytecode": "0x60806040523480156200001157600080fd5b506040516200146c3803806200146c83398181016040528101906200003791906200016c565b81600260006101000a81548173ffffffffffffffffffffffffffffffffffffffff021916908373ffffffffffffffffffffffffffffffffffffffff16021790555080600360006101000a81548173ffffffffffffffffffffffffffffffffffffffff021916908373ffffffffffffffffffffffffffffffffffffffff16021790555033600460006101000a81548173ffffffffffffffffffffffffffffffffffffffff021916908373ffffffffffffffffffffffffffffffffffffffff1602179055505050620001b3565b600080fd5b600073ffffffffffffffffffffffffffffffffffffffff82169050919050565b6000620001348262000107565b9050919050565b620001468162000127565b81146200015257600080fd5b50565b60008151905062000166816200013b565b92915050565b6000806040838503121562000186576200018562000102565b5b6000620001968582860162000155565b9250506020620001a98582860162000155565b9150509250929050565b6112a980620001c36000396000f3fe608060405234801561001057600080fd5b506004361061007d5760003560e01c80636d1e36741161005b5780636d1e3674146101125780638da5cb5b1461013057806393e59dc11461014e578063b3e1cf701461016c5761007d565b8063398c7022146100825780634cda858f146100b257806366f0dbed146100e2575b600080fd5b61009c60048036038101906100979190610ab3565b61019c565b6040516100a99190610b02565b60405180910390f35b6100cc60048036038101906100c79190610b1d565b610368565b6040516100d99190610b02565b60405180910390f35b6100fc60048036038101906100f79190610b4a565b610380565b6040516101099190610b02565b60405180910390f35b61011a610629565b6040516101279190610bfc565b60405180910390f35b61013861064f565b6040516101459190610c26565b60405180910390f35b610156610675565b6040516101639190610c62565b60405180910390f35b61018660048036038101906101819190610b1d565b61069b565b6040516101939190610c98565b60405180910390f35b6000600460009054906101000a900473ffffffffffffffffffffffffffffffffffffffff1673ffffffffffffffffffffffffffffffffffffffff163373ffffffffffffffffffffffffffffffffffffffff1614610225576040517fe241c8e800000000000000000000000000000000000000000000000000000000815260040160405180910390fd5b600073ffffffffffffffffffffffffffffffffffffffff168373ffffffffffffffffffffffffffffffffffffffff160361028b576040517fd92e233d00000000000000000000000000000000000000000000000000000000815260040160405180910390fd5b600082036102c5576040517f1f2a200500000000000000000000000000000000000000000000000000000000815260040160405180910390fd5b816000808573ffffffffffffffffffffffffffffffffffffffff1673ffffffffffffffffffffffffffffffffffffffff1681526020019081526020016000208190555060018060008573ffffffffffffffffffffffffffffffffffffffff1673ffffffffffffffffffffffffffffffffffffffff16815260200190815260200160002060006101000a81548160ff02191690831515021790555081905092915050565b60006020528060005260406000206000915090505481565b6000600360009054906101000a900473ffffffffffffffffffffffffffffffffffffffff1673ffffffffffffffffffffffffffffffffffffffff16631eb41b716103c9846106bb565b6040518263ffffffff1660e01b81526004016103e59190610d4c565b6020604051808303816000875af1158015610404573d6000803e3d6000fd5b505050506040513d601f19601f820116820180604052508101906104289190610d9a565b50600073ffffffffffffffffffffffffffffffffffffffff168473ffffffffffffffffffffffffffffffffffffffff160361048f576040517fd92e233d00000000000000000000000000000000000000000000000000000000815260040160405180910390fd5b600083036104c9576040517f1f2a200500000000000000000000000000000000000000000000000000000000815260040160405180910390fd5b600160008573ffffffffffffffffffffffffffffffffffffffff1673ffffffffffffffffffffffffffffffffffffffff16815260200190815260200160002060009054906101000a900460ff161561056c576105656000808673ffffffffffffffffffffffffffffffffffffffff1673ffffffffffffffffffffffffffffffffffffffff1681526020019081526020016000205484606461087e565b9050610622565b600061057661099c565b905060018060008773ffffffffffffffffffffffffffffffffffffffff1673ffffffffffffffffffffffffffffffffffffffff16815260200190815260200160002060006101000a81548160ff021916908315150217905550806000808773ffffffffffffffffffffffffffffffffffffffff1673ffffffffffffffffffffffffffffffffffffffff1681526020019081526020016000208190555061061e8185606461087e565b9150505b9392505050565b600260009054906101000a900473ffffffffffffffffffffffffffffffffffffffff1681565b600460009054906101000a900473ffffffffffffffffffffffffffffffffffffffff1681565b600360009054906101000a900473ffffffffffffffffffffffffffffffffffffffff1681565b60016020528060005260406000206000915054906101000a900460ff1681565b60606000602867ffffffffffffffff8111156106da576106d9610dc7565b5b6040519080825280601f01601f19166020018201604052801561070c5781602001600182028036833780820191505090505b50905060005b601481101561087457600081601361072a9190610e25565b60086107369190610e59565b60026107429190610fe6565b8573ffffffffffffffffffffffffffffffffffffffff166107639190611060565b60f81b9050600060108260f81c61077a919061109e565b60f81b905060008160f81c601061079191906110cf565b8360f81c61079f919061110a565b60f81b90506107ad826109d4565b858560026107bb9190610e59565b815181106107cc576107cb61113e565b5b60200101907effffffffffffffffffffffffffffffffffffffffffffffffffffffffffffff1916908160001a905350610804816109d4565b8560018660026108149190610e59565b61081e919061116d565b8151811061082f5761082e61113e565b5b60200101907effffffffffffffffffffffffffffffffffffffffffffffffffffffffffffff1916908160001a905350505050808061086c906111c3565b915050610712565b5080915050919050565b600080826fffffffffffffffffffffffffffffffff168561089f9190611060565b90506000836fffffffffffffffffffffffffffffffff16866108c1919061120b565b90506000846fffffffffffffffffffffffffffffffff16866108e39190611060565b90506000856fffffffffffffffffffffffffffffffff1687610905919061120b565b9050856fffffffffffffffffffffffffffffffff1681846109269190610e59565b6109309190611060565b828461093c9190610e59565b82866109489190610e59565b886fffffffffffffffffffffffffffffffff1685886109679190610e59565b6109719190610e59565b61097b919061116d565b610985919061116d565b61098f919061116d565b9450505050509392505050565b60008060646001436109ae9190610e25565b4060001c6109bc919061120b565b90506001816109cb919061116d565b90508091505090565b6000600a8260f81c60ff1610156109ff5760308260f81c6109f5919061123c565b60f81b9050610a15565b60578260f81c610a0f919061123c565b60f81b90505b919050565b600080fd5b600073ffffffffffffffffffffffffffffffffffffffff82169050919050565b6000610a4a82610a1f565b9050919050565b610a5a81610a3f565b8114610a6557600080fd5b50565b600081359050610a7781610a51565b92915050565b6000819050919050565b610a9081610a7d565b8114610a9b57600080fd5b50565b600081359050610aad81610a87565b92915050565b60008060408385031215610aca57610ac9610a1a565b5b6000610ad885828601610a68565b9250506020610ae985828601610a9e565b9150509250929050565b610afc81610a7d565b82525050565b6000602082019050610b176000830184610af3565b92915050565b600060208284031215610b3357610b32610a1a565b5b6000610b4184828501610a68565b91505092915050565b600080600060608486031215610b6357610b62610a1a565b5b6000610b7186828701610a68565b9350506020610b8286828701610a9e565b9250506040610b9386828701610a68565b9150509250925092565b6000819050919050565b6000610bc2610bbd610bb884610a1f565b610b9d565b610a1f565b9050919050565b6000610bd482610ba7565b9050919050565b6000610be682610bc9565b9050919050565b610bf681610bdb565b82525050565b6000602082019050610c116000830184610bed565b92915050565b610c2081610a3f565b82525050565b6000602082019050610c3b6000830184610c17565b92915050565b6000610c4c82610bc9565b9050919050565b610c5c81610c41565b82525050565b6000602082019050610c776000830184610c53565b92915050565b60008115159050919050565b610c9281610c7d565b82525050565b6000602082019050610cad6000830184610c89565b92915050565b600081519050919050565b600082825260208201905092915050565b60005b83811015610ced578082015181840152602081019050610cd2565b83811115610cfc576000848401525b50505050565b6000601f19601f8301169050919050565b6000610d1e82610cb3565b610d288185610cbe565b9350610d38818560208601610ccf565b610d4181610d02565b840191505092915050565b60006020820190508181036000830152610d668184610d13565b905092915050565b610d7781610c7d565b8114610d8257600080fd5b50565b600081519050610d9481610d6e565b92915050565b600060208284031215610db057610daf610a1a565b5b6000610dbe84828501610d85565b91505092915050565b7f4e487b7100000000000000000000000000000000000000000000000000000000600052604160045260246000fd5b7f4e487b7100000000000000000000000000000000000000000000000000000000600052601160045260246000fd5b6000610e3082610a7d565b9150610e3b83610a7d565b925082821015610e4e57610e4d610df6565b5b828203905092915050565b6000610e6482610a7d565b9150610e6f83610a7d565b9250817fffffffffffffffffffffffffffffffffffffffffffffffffffffffffffffffff0483118215151615610ea857610ea7610df6565b5b828202905092915050565b60008160011c9050919050565b6000808291508390505b6001851115610f0a57808604811115610ee657610ee5610df6565b5b6001851615610ef55780820291505b8081029050610f0385610eb3565b9450610eca565b94509492505050565b600082610f235760019050610fdf565b81610f315760009050610fdf565b8160018114610f475760028114610f5157610f80565b6001915050610fdf565b60ff841115610f6357610f62610df6565b5b8360020a915084821115610f7a57610f79610df6565b5b50610fdf565b5060208310610133831016604e8410600b8410161715610fb55782820a905083811115610fb057610faf610df6565b5b610fdf565b610fc28484846001610ec0565b92509050818404811115610fd957610fd8610df6565b5b81810290505b9392505050565b6000610ff182610a7d565b9150610ffc83610a7d565b92506110297fffffffffffffffffffffffffffffffffffffffffffffffffffffffffffffffff8484610f13565b905092915050565b7f4e487b7100000000000000000000000000000000000000000000000000000000600052601260045260246000fd5b600061106b82610a7d565b915061107683610a7d565b92508261108657611085611031565b5b828204905092915050565b600060ff82169050919050565b60006110a982611091565b91506110b483611091565b9250826110c4576110c3611031565b5b828204905092915050565b60006110da82611091565b91506110e583611091565b92508160ff04831182151516156110ff576110fe610df6565b5b828202905092915050565b600061111582611091565b915061112083611091565b92508282101561113357611132610df6565b5b828203905092915050565b7f4e487b7100000000000000000000000000000000000000000000000000000000600052603260045260246000fd5b600061117882610a7d565b915061118383610a7d565b9250827fffffffffffffffffffffffffffffffffffffffffffffffffffffffffffffffff038211156111b8576111b7610df6565b5b828201905092915050565b60006111ce82610a7d565b91507fffffffffffffffffffffffffffffffffffffffffffffffffffffffffffffffff8203611200576111ff610df6565b5b600182019050919050565b600061121682610a7d565b915061122183610a7d565b92508261123157611230611031565b5b828206905092915050565b600061124782611091565b915061125283611091565b92508260ff0382111561126857611267610df6565b5b82820190509291505056fea264697066735822122008d39527e79ea093a8dba26bb86c161254bbde07c77a5f2f65087980145509f764736f6c634300080f0033",
  "immutableReferences": {},
  "source": "// SPDX-License-Identifier: Unlicense\r\npragma solidity ^0.8.14;\r\n\r\nimport \"./mocks/ERC20Mintable.sol\";\r\nimport \"./interfaces/IOracle.sol\";\r\nimport \"./interfaces/IWhitelist.sol\";\r\nimport \"./Whitelist.sol\";\r\n\r\ncontract Oracle is IOracle {\r\n    function toAsciiString(address x) internal pure returns (string memory) {\r\n        bytes memory s = new bytes(40);\r\n        for (uint i = 0; i < 20; i++) {\r\n            bytes1 b = bytes1(uint8(uint(uint160(x)) / (2**(8*(19 - i)))));\r\n            bytes1 hi = bytes1(uint8(b) / 16);\r\n            bytes1 lo = bytes1(uint8(b) - 16 * uint8(hi));\r\n            s[2*i] = char(hi);\r\n            s[2*i+1] = char(lo);\r\n        }\r\n        return string(s);\r\n    }\r\n    function char(bytes1 b) internal pure returns (bytes1 c) {\r\n        if (uint8(b) < 10) return bytes1(uint8(b) + 0x30);\r\n        else return bytes1(uint8(b) + 0x57);\r\n    }\r\n    function mulScale (uint x, uint y, uint128 scale)\r\n    internal pure returns (uint) {\r\n        uint a = x / scale;\r\n        uint b = x % scale;\r\n        uint c = y / scale;\r\n        uint d = y % scale;\r\n\r\n        return a * c * scale + a * d + b * c + b * d / scale;\r\n    }\r\n\r\n    error ZeroAddress();\r\n    error ZeroAmount();\r\n    error OnlyOwnerCanAccess();\r\n\r\n    mapping(address => uint) public valueToProprietaryToken;\r\n    mapping(address => bool) public checkedToken;\r\n    ERC20Mintable public proprietaryToken;\r\n    IWhitelist public whitelist;\r\n    address public owner;\r\n\r\n    constructor(address _proprietaryTokenAddress, address _whitelistAddress) {\r\n        proprietaryToken = ERC20Mintable(_proprietaryTokenAddress);\r\n        whitelist = IWhitelist(_whitelistAddress);\r\n        owner = msg.sender;\r\n    }\r\n\r\n    function random() internal view returns (uint) {\r\n        uint randomnumber = uint(blockhash(block.number-1)) % 100;\r\n        randomnumber = randomnumber + 1;\r\n        return randomnumber;\r\n    }\r\n\r\n\r\n    function setConversionRate(address _tokenAddress, uint _conversionRateToOneProprietaryToken) external returns (uint){\r\n        if (msg.sender != owner) {\r\n            revert OnlyOwnerCanAccess();\r\n        }\r\n\r\n        if (_tokenAddress == address(0)) {\r\n            revert ZeroAddress();\r\n        }\r\n        if (_conversionRateToOneProprietaryToken == 0) {\r\n            revert ZeroAmount();\r\n        }\r\n        valueToProprietaryToken[_tokenAddress] = _conversionRateToOneProprietaryToken;\r\n        checkedToken[_tokenAddress] = true;\r\n        return _conversionRateToOneProprietaryToken;\r\n    }\r\n\r\n    function convertToProprietaryToken(\r\n        address _tokenAddress,\r\n        uint _amount,\r\n        address _user\r\n    ) public returns (uint){\r\n        whitelist.checkUser(toAsciiString(_user));\r\n        if (_tokenAddress == address(0)) {\r\n            revert ZeroAddress();\r\n        }\r\n        if (_amount == 0) {\r\n            revert ZeroAmount();\r\n        }\r\n\r\n        if (checkedToken[_tokenAddress]) {\r\n            return mulScale(valueToProprietaryToken[_tokenAddress], _amount, 100);\r\n        } else {\r\n            uint outsideConversionRate = random();\r\n            checkedToken[_tokenAddress] = true;\r\n            valueToProprietaryToken[_tokenAddress] = outsideConversionRate;\r\n            return mulScale(outsideConversionRate, _amount, 100);\r\n        }\r\n    }\r\n}\r\n",
  "sourcePath": "C:\\Users\\eu\\WebstormProjects\\Janus\\src\\contracts\\Oracle.sol",
  "compiler": {
    "name": "solc",
    "version": "0.8.15+commit.e14f2714.Emscripten.clang"
  },
  "schemaVersion": "3.4.7",
  "updatedAt": "2022-06-20T01:56:56.251Z",
  "networkType": "ethereum",
  "devdoc": {
    "kind": "dev",
    "methods": {},
    "version": 1
  },
  "userdoc": {
    "kind": "user",
    "methods": {},
    "version": 1
  }
}