{
  "contractName": "TokenFactory",
  "abi": [
    {
      "anonymous": false,
      "inputs": [
        {
          "indexed": false,
          "internalType": "address",
          "name": "tokenAddress",
          "type": "address"
        },
        {
          "indexed": false,
          "internalType": "string",
          "name": "name",
          "type": "string"
        },
        {
          "indexed": false,
          "internalType": "string",
          "name": "symbol",
          "type": "string"
        },
        {
          "indexed": false,
          "internalType": "uint256",
          "name": "amount",
          "type": "uint256"
        }
      ],
      "name": "TokenDeployed",
      "type": "event"
    },
    {
      "inputs": [],
      "name": "addOnAddress",
      "outputs": [
        {
          "internalType": "address",
          "name": "",
          "type": "address"
        }
      ],
      "stateMutability": "view",
      "type": "function",
      "constant": true
    },
    {
      "inputs": [
        {
          "internalType": "address",
          "name": "",
          "type": "address"
        }
      ],
      "name": "deployedContractsCheck",
      "outputs": [
        {
          "internalType": "bool",
          "name": "",
          "type": "bool"
        }
      ],
      "stateMutability": "view",
      "type": "function",
      "constant": true
    },
    {
      "inputs": [
        {
          "internalType": "address",
          "name": "_address",
          "type": "address"
        }
      ],
      "name": "setAddOnAddress",
      "outputs": [],
      "stateMutability": "nonpayable",
      "type": "function"
    },
    {
      "inputs": [],
      "name": "getAllTokens",
      "outputs": [
        {
          "internalType": "address[]",
          "name": "",
          "type": "address[]"
        }
      ],
      "stateMutability": "view",
      "type": "function",
      "constant": true
    },
    {
      "inputs": [
        {
          "internalType": "address",
          "name": "_token",
          "type": "address"
        }
      ],
      "name": "addToken",
      "outputs": [],
      "stateMutability": "nonpayable",
      "type": "function"
    },
    {
      "inputs": [
        {
          "internalType": "string",
          "name": "name_",
          "type": "string"
        },
        {
          "internalType": "string",
          "name": "symbol_",
          "type": "string"
        },
        {
          "internalType": "uint256",
          "name": "amount_",
          "type": "uint256"
        }
      ],
      "name": "deployToken",
      "outputs": [
        {
          "internalType": "address",
          "name": "",
          "type": "address"
        }
      ],
      "stateMutability": "nonpayable",
      "type": "function"
    }
  ],
  "bytecode": "0x60806040526000600260006101000a81548173ffffffffffffffffffffffffffffffffffffffff021916908373ffffffffffffffffffffffffffffffffffffffff16021790555034801561005257600080fd5b5061343c806100626000396000f3fe60806040523480156200001157600080fd5b50600436106200006a5760003560e01c80632a5c792a146200006f5780633a93babb1462000091578063c3907bb414620000c7578063cee3f96114620000e9578063d1ba6084146200011f578063d48bfca7146200013f575b600080fd5b620000796200015f565b60405162000088919062000b42565b60405180910390f35b620000af6004803603810190620000a9919062000d17565b620001ef565b604051620000be919062000dc2565b60405180910390f35b620000d16200060b565b604051620000e0919062000dc2565b60405180910390f35b62000107600480360381019062000101919062000e10565b62000631565b60405162000116919062000e5f565b60405180910390f35b6200013d600480360381019062000137919062000e10565b62000651565b005b6200015d600480360381019062000157919062000e10565b620006ed565b005b60606000805480602002602001604051908101604052809291908181526020018280548015620001e557602002820191906000526020600020905b8160009054906101000a900473ffffffffffffffffffffffffffffffffffffffff1673ffffffffffffffffffffffffffffffffffffffff16815260200190600101908083116200019a575b5050505050905090565b6000808484604051620002029062000a32565b6200020f92919062000f0f565b604051809103906000f0801580156200022c573d6000803e3d6000fd5b5090506000819080600181540180825580915050600190039060005260206000200160009091909190916101000a81548173ffffffffffffffffffffffffffffffffffffffff021916908373ffffffffffffffffffffffffffffffffffffffff16021790555060018060008373ffffffffffffffffffffffffffffffffffffffff1673ffffffffffffffffffffffffffffffffffffffff16815260200190815260200160002060006101000a81548160ff0219169083151502179055508073ffffffffffffffffffffffffffffffffffffffff166394bf804d84836040518363ffffffff1660e01b81526004016200032692919062000f5b565b600060405180830381600087803b1580156200034157600080fd5b505af115801562000356573d6000803e3d6000fd5b50505050600073ffffffffffffffffffffffffffffffffffffffff16600260009054906101000a900473ffffffffffffffffffffffffffffffffffffffff1673ffffffffffffffffffffffffffffffffffffffff161462000457576000600260009054906101000a900473ffffffffffffffffffffffffffffffffffffffff1690508073ffffffffffffffffffffffffffffffffffffffff1663ec340e4c85336200040133620007fd565b6040518463ffffffff1660e01b8152600401620004219392919062000f88565b600060405180830381600087803b1580156200043c57600080fd5b505af115801562000451573d6000803e3d6000fd5b50505050505b7f965d14e60858869a5d867a6a8bc4d86b62d1af8fb0ec2e51ce43d009a073958b818273ffffffffffffffffffffffffffffffffffffffff166317d7de7c6040518163ffffffff1660e01b8152600401600060405180830381865afa158015620004c5573d6000803e3d6000fd5b505050506040513d6000823e3d601f19601f82011682018060405250810190620004f091906200104a565b8373ffffffffffffffffffffffffffffffffffffffff1663150704016040518163ffffffff1660e01b8152600401600060405180830381865afa1580156200053c573d6000803e3d6000fd5b505050506040513d6000823e3d601f19601f820116820180604052508101906200056791906200104a565b8473ffffffffffffffffffffffffffffffffffffffff166370a08231866040518263ffffffff1660e01b8152600401620005a2919062000dc2565b602060405180830381865afa158015620005c0573d6000803e3d6000fd5b505050506040513d601f19601f82011682018060405250810190620005e69190620010b2565b604051620005f89493929190620010e4565b60405180910390a1809150509392505050565b600260009054906101000a900473ffffffffffffffffffffffffffffffffffffffff1681565b60016020528060005260406000206000915054906101000a900460ff1681565b600073ffffffffffffffffffffffffffffffffffffffff16600260009054906101000a900473ffffffffffffffffffffffffffffffffffffffff1673ffffffffffffffffffffffffffffffffffffffff1603620006ea5780600260006101000a81548173ffffffffffffffffffffffffffffffffffffffff021916908373ffffffffffffffffffffffffffffffffffffffff1602179055505b50565b600160008273ffffffffffffffffffffffffffffffffffffffff1673ffffffffffffffffffffffffffffffffffffffff16815260200190815260200160002060009054906101000a900460ff16620007fa576000819080600181540180825580915050600190039060005260206000200160009091909190916101000a81548173ffffffffffffffffffffffffffffffffffffffff021916908373ffffffffffffffffffffffffffffffffffffffff16021790555060018060008373ffffffffffffffffffffffffffffffffffffffff1673ffffffffffffffffffffffffffffffffffffffff16815260200190815260200160002060006101000a81548160ff0219169083151502179055505b50565b60606000602867ffffffffffffffff8111156200081f576200081e62000b95565b5b6040519080825280601f01601f191660200182016040528015620008525781602001600182028036833780820191505090505b50905060005b6014811015620009dc5760008160136200087391906200116e565b6008620008819190620011a9565b60026200088f91906200135e565b8573ffffffffffffffffffffffffffffffffffffffff16620008b29190620013de565b60f81b9050600060108260f81c620008cb919062001423565b60f81b905060008160f81c6010620008e491906200145b565b8360f81c620008f491906200149d565b60f81b90506200090482620009e6565b85856002620009149190620011a9565b81518110620009285762000927620014d8565b5b60200101907effffffffffffffffffffffffffffffffffffffffffffffffffffffffffffff1916908160001a9053506200096281620009e6565b856001866002620009749190620011a9565b62000980919062001507565b81518110620009945762000993620014d8565b5b60200101907effffffffffffffffffffffffffffffffffffffffffffffffffffffffffffff1916908160001a9053505050508080620009d39062001564565b91505062000858565b5080915050919050565b6000600a8260f81c60ff16101562000a155760308260f81c62000a0a9190620015b1565b60f81b905062000a2d565b60578260f81c62000a279190620015b1565b60f81b90505b919050565b611e1780620015f083390190565b600081519050919050565b600082825260208201905092915050565b6000819050602082019050919050565b600073ffffffffffffffffffffffffffffffffffffffff82169050919050565b600062000a998262000a6c565b9050919050565b62000aab8162000a8c565b82525050565b600062000abf838362000aa0565b60208301905092915050565b6000602082019050919050565b600062000ae58262000a40565b62000af1818562000a4b565b935062000afe8362000a5c565b8060005b8381101562000b3557815162000b19888262000ab1565b975062000b268362000acb565b92505060018101905062000b02565b5085935050505092915050565b6000602082019050818103600083015262000b5e818462000ad8565b905092915050565b6000604051905090565b600080fd5b600080fd5b600080fd5b600080fd5b6000601f19601f8301169050919050565b7f4e487b7100000000000000000000000000000000000000000000000000000000600052604160045260246000fd5b62000bcf8262000b84565b810181811067ffffffffffffffff8211171562000bf15762000bf062000b95565b5b80604052505050565b600062000c0662000b66565b905062000c14828262000bc4565b919050565b600067ffffffffffffffff82111562000c375762000c3662000b95565b5b62000c428262000b84565b9050602081019050919050565b82818337600083830152505050565b600062000c7562000c6f8462000c19565b62000bfa565b90508281526020810184848401111562000c945762000c9362000b7f565b5b62000ca184828562000c4f565b509392505050565b600082601f83011262000cc15762000cc062000b7a565b5b813562000cd384826020860162000c5e565b91505092915050565b6000819050919050565b62000cf18162000cdc565b811462000cfd57600080fd5b50565b60008135905062000d118162000ce6565b92915050565b60008060006060848603121562000d335762000d3262000b70565b5b600084013567ffffffffffffffff81111562000d545762000d5362000b75565b5b62000d628682870162000ca9565b935050602084013567ffffffffffffffff81111562000d865762000d8562000b75565b5b62000d948682870162000ca9565b925050604062000da78682870162000d00565b9150509250925092565b62000dbc8162000a8c565b82525050565b600060208201905062000dd9600083018462000db1565b92915050565b62000dea8162000a8c565b811462000df657600080fd5b50565b60008135905062000e0a8162000ddf565b92915050565b60006020828403121562000e295762000e2862000b70565b5b600062000e398482850162000df9565b91505092915050565b60008115159050919050565b62000e598162000e42565b82525050565b600060208201905062000e76600083018462000e4e565b92915050565b600081519050919050565b600082825260208201905092915050565b60005b8381101562000eb857808201518184015260208101905062000e9b565b8381111562000ec8576000848401525b50505050565b600062000edb8262000e7c565b62000ee7818562000e87565b935062000ef981856020860162000e98565b62000f048162000b84565b840191505092915050565b6000604082019050818103600083015262000f2b818562000ece565b9050818103602083015262000f41818462000ece565b90509392505050565b62000f558162000cdc565b82525050565b600060408201905062000f72600083018562000f4a565b62000f81602083018462000db1565b9392505050565b600060608201905062000f9f600083018662000f4a565b62000fae602083018562000db1565b818103604083015262000fc2818462000ece565b9050949350505050565b600062000fe362000fdd8462000c19565b62000bfa565b90508281526020810184848401111562001002576200100162000b7f565b5b6200100f84828562000e98565b509392505050565b600082601f8301126200102f576200102e62000b7a565b5b81516200104184826020860162000fcc565b91505092915050565b60006020828403121562001063576200106262000b70565b5b600082015167ffffffffffffffff81111562001084576200108362000b75565b5b620010928482850162001017565b91505092915050565b600081519050620010ac8162000ce6565b92915050565b600060208284031215620010cb57620010ca62000b70565b5b6000620010db848285016200109b565b91505092915050565b6000608082019050620010fb600083018762000db1565b81810360208301526200110f818662000ece565b9050818103604083015262001125818562000ece565b905062001136606083018462000f4a565b95945050505050565b7f4e487b7100000000000000000000000000000000000000000000000000000000600052601160045260246000fd5b60006200117b8262000cdc565b9150620011888362000cdc565b9250828210156200119e576200119d6200113f565b5b828203905092915050565b6000620011b68262000cdc565b9150620011c38362000cdc565b9250817fffffffffffffffffffffffffffffffffffffffffffffffffffffffffffffffff0483118215151615620011ff57620011fe6200113f565b5b828202905092915050565b60008160011c9050919050565b6000808291508390505b600185111562001269578086048111156200124157620012406200113f565b5b6001851615620012515780820291505b808102905062001261856200120a565b945062001221565b94509492505050565b60008262001284576001905062001357565b8162001294576000905062001357565b8160018114620012ad5760028114620012b857620012ee565b600191505062001357565b60ff841115620012cd57620012cc6200113f565b5b8360020a915084821115620012e757620012e66200113f565b5b5062001357565b5060208310610133831016604e8410600b8410161715620013285782820a9050838111156200132257620013216200113f565b5b62001357565b62001337848484600162001217565b925090508184048111156200135157620013506200113f565b5b81810290505b9392505050565b60006200136b8262000cdc565b9150620013788362000cdc565b9250620013a77fffffffffffffffffffffffffffffffffffffffffffffffffffffffffffffffff848462001272565b905092915050565b7f4e487b7100000000000000000000000000000000000000000000000000000000600052601260045260246000fd5b6000620013eb8262000cdc565b9150620013f88362000cdc565b9250826200140b576200140a620013af565b5b828204905092915050565b600060ff82169050919050565b6000620014308262001416565b91506200143d8362001416565b92508262001450576200144f620013af565b5b828204905092915050565b6000620014688262001416565b9150620014758362001416565b92508160ff04831182151516156200149257620014916200113f565b5b828202905092915050565b6000620014aa8262001416565b9150620014b78362001416565b925082821015620014cd57620014cc6200113f565b5b828203905092915050565b7f4e487b7100000000000000000000000000000000000000000000000000000000600052603260045260246000fd5b6000620015148262000cdc565b9150620015218362000cdc565b9250827fffffffffffffffffffffffffffffffffffffffffffffffffffffffffffffffff038211156200155957620015586200113f565b5b828201905092915050565b6000620015718262000cdc565b91507fffffffffffffffffffffffffffffffffffffffffffffffffffffffffffffffff8203620015a657620015a56200113f565b5b600182019050919050565b6000620015be8262001416565b9150620015cb8362001416565b92508260ff03821115620015e457620015e36200113f565b5b82820190509291505056fe60e06040523480156200001157600080fd5b5060405162001e1738038062001e17833981810160405281019062000037919062000382565b8181601282600090805190602001906200005392919062000135565b5081600190805190602001906200006c92919062000135565b508060ff1660808160ff16815250504660a0818152505062000093620000a560201b60201c565b60c08181525050505050505062000607565b60007f8b73c3c69bb8fe3d512ecc4cf759cc79239f7b179b0ffacaa9a75d522b39400f6000604051620000d9919062000516565b60405180910390207fc89efdaa54c0f20c7adf612882df0950f5a951637e0307cdcb4c672f298b8bc646306040516020016200011a959493929190620005aa565b60405160208183030381529060405280519060200120905090565b828054620001439062000436565b90600052602060002090601f016020900481019282620001675760008555620001b3565b82601f106200018257805160ff1916838001178555620001b3565b82800160010185558215620001b3579182015b82811115620001b257825182559160200191906001019062000195565b5b509050620001c29190620001c6565b5090565b5b80821115620001e1576000816000905550600101620001c7565b5090565b6000604051905090565b600080fd5b600080fd5b600080fd5b600080fd5b6000601f19601f8301169050919050565b7f4e487b7100000000000000000000000000000000000000000000000000000000600052604160045260246000fd5b6200024e8262000203565b810181811067ffffffffffffffff8211171562000270576200026f62000214565b5b80604052505050565b600062000285620001e5565b905062000293828262000243565b919050565b600067ffffffffffffffff821115620002b657620002b562000214565b5b620002c18262000203565b9050602081019050919050565b60005b83811015620002ee578082015181840152602081019050620002d1565b83811115620002fe576000848401525b50505050565b60006200031b620003158462000298565b62000279565b9050828152602081018484840111156200033a5762000339620001fe565b5b62000347848285620002ce565b509392505050565b600082601f830112620003675762000366620001f9565b5b81516200037984826020860162000304565b91505092915050565b600080604083850312156200039c576200039b620001ef565b5b600083015167ffffffffffffffff811115620003bd57620003bc620001f4565b5b620003cb858286016200034f565b925050602083015167ffffffffffffffff811115620003ef57620003ee620001f4565b5b620003fd858286016200034f565b9150509250929050565b7f4e487b7100000000000000000000000000000000000000000000000000000000600052602260045260246000fd5b600060028204905060018216806200044f57607f821691505b60208210810362000465576200046462000407565b5b50919050565b600081905092915050565b60008190508160005260206000209050919050565b600081546200049a8162000436565b620004a681866200046b565b94506001821660008114620004c45760018114620004d6576200050d565b60ff198316865281860193506200050d565b620004e18562000476565b60005b838110156200050557815481890152600182019150602081019050620004e4565b838801955050505b50505092915050565b60006200052482846200048b565b915081905092915050565b6000819050919050565b62000544816200052f565b82525050565b6000819050919050565b6200055f816200054a565b82525050565b600073ffffffffffffffffffffffffffffffffffffffff82169050919050565b6000620005928262000565565b9050919050565b620005a48162000585565b82525050565b600060a082019050620005c1600083018862000539565b620005d0602083018762000539565b620005df604083018662000539565b620005ee606083018562000554565b620005fd608083018462000599565b9695505050505050565b60805160a05160c0516117e0620006376000396000610874015260006108400152600061081a01526117e06000f3fe608060405234801561001057600080fd5b50600436106100f55760003560e01c80633644e5151161009757806395d89b411161006657806395d89b411461028a578063a9059cbb146102a8578063d505accf146102d8578063dd62ed3e146102f4576100f5565b80633644e515146101f057806370a082311461020e5780637ecebe001461023e57806394bf804d1461026e576100f5565b806317d7de7c116100d357806317d7de7c1461016657806318160ddd1461018457806323b872dd146101a2578063313ce567146101d2576100f5565b806306fdde03146100fa578063095ea7b3146101185780631507040114610148575b600080fd5b610102610324565b60405161010f9190610f8c565b60405180910390f35b610132600480360381019061012d9190611047565b6103b2565b60405161013f91906110a2565b60405180910390f35b6101506104a4565b60405161015d9190610f8c565b60405180910390f35b61016e610536565b60405161017b9190610f8c565b60405180910390f35b61018c6105c8565b60405161019991906110cc565b60405180910390f35b6101bc60048036038101906101b791906110e7565b6105ce565b6040516101c991906110a2565b60405180910390f35b6101da610818565b6040516101e79190611156565b60405180910390f35b6101f861083c565b604051610205919061118a565b60405180910390f35b610228600480360381019061022391906111a5565b610899565b60405161023591906110cc565b60405180910390f35b610258600480360381019061025391906111a5565b6108b1565b60405161026591906110cc565b60405180910390f35b610288600480360381019061028391906111d2565b6108c9565b005b6102926108d7565b60405161029f9190610f8c565b60405180910390f35b6102c260048036038101906102bd9190611047565b610965565b6040516102cf91906110a2565b60405180910390f35b6102f260048036038101906102ed919061126a565b610a79565b005b61030e6004803603810190610309919061130c565b610d72565b60405161031b91906110cc565b60405180910390f35b600080546103319061137b565b80601f016020809104026020016040519081016040528092919081815260200182805461035d9061137b565b80156103aa5780601f1061037f576101008083540402835291602001916103aa565b820191906000526020600020905b81548152906001019060200180831161038d57829003601f168201915b505050505081565b600081600460003373ffffffffffffffffffffffffffffffffffffffff1673ffffffffffffffffffffffffffffffffffffffff16815260200190815260200160002060008573ffffffffffffffffffffffffffffffffffffffff1673ffffffffffffffffffffffffffffffffffffffff168152602001908152602001600020819055508273ffffffffffffffffffffffffffffffffffffffff163373ffffffffffffffffffffffffffffffffffffffff167f8c5be1e5ebec7d5bd14f71427d1e84f3dd0314c0f7b2291e5b200ac8c7c3b9258460405161049291906110cc565b60405180910390a36001905092915050565b6060600180546104b39061137b565b80601f01602080910402602001604051908101604052809291908181526020018280546104df9061137b565b801561052c5780601f106105015761010080835404028352916020019161052c565b820191906000526020600020905b81548152906001019060200180831161050f57829003601f168201915b5050505050905090565b6060600080546105459061137b565b80601f01602080910402602001604051908101604052809291908181526020018280546105719061137b565b80156105be5780601f10610593576101008083540402835291602001916105be565b820191906000526020600020905b8154815290600101906020018083116105a157829003601f168201915b5050505050905090565b60025481565b600080600460008673ffffffffffffffffffffffffffffffffffffffff1673ffffffffffffffffffffffffffffffffffffffff16815260200190815260200160002060003373ffffffffffffffffffffffffffffffffffffffff1673ffffffffffffffffffffffffffffffffffffffff1681526020019081526020016000205490507fffffffffffffffffffffffffffffffffffffffffffffffffffffffffffffffff811461070457828161068391906113db565b600460008773ffffffffffffffffffffffffffffffffffffffff1673ffffffffffffffffffffffffffffffffffffffff16815260200190815260200160002060003373ffffffffffffffffffffffffffffffffffffffff1673ffffffffffffffffffffffffffffffffffffffff168152602001908152602001600020819055505b82600360008773ffffffffffffffffffffffffffffffffffffffff1673ffffffffffffffffffffffffffffffffffffffff168152602001908152602001600020600082825461075391906113db565b9250508190555082600360008673ffffffffffffffffffffffffffffffffffffffff1673ffffffffffffffffffffffffffffffffffffffff168152602001908152602001600020600082825401925050819055508373ffffffffffffffffffffffffffffffffffffffff168573ffffffffffffffffffffffffffffffffffffffff167fddf252ad1be2c89b69c2b068fc378daa952ba7f163c4a11628f55a4df523b3ef8560405161080491906110cc565b60405180910390a360019150509392505050565b7f000000000000000000000000000000000000000000000000000000000000000081565b60007f000000000000000000000000000000000000000000000000000000000000000046146108725761086d610d97565b610894565b7f00000000000000000000000000000000000000000000000000000000000000005b905090565b60036020528060005260406000206000915090505481565b60056020528060005260406000206000915090505481565b6108d38183610e23565b5050565b600180546108e49061137b565b80601f01602080910402602001604051908101604052809291908181526020018280546109109061137b565b801561095d5780601f106109325761010080835404028352916020019161095d565b820191906000526020600020905b81548152906001019060200180831161094057829003601f168201915b505050505081565b600081600360003373ffffffffffffffffffffffffffffffffffffffff1673ffffffffffffffffffffffffffffffffffffffff16815260200190815260200160002060008282546109b691906113db565b9250508190555081600360008573ffffffffffffffffffffffffffffffffffffffff1673ffffffffffffffffffffffffffffffffffffffff168152602001908152602001600020600082825401925050819055508273ffffffffffffffffffffffffffffffffffffffff163373ffffffffffffffffffffffffffffffffffffffff167fddf252ad1be2c89b69c2b068fc378daa952ba7f163c4a11628f55a4df523b3ef84604051610a6791906110cc565b60405180910390a36001905092915050565b42841015610abc576040517f08c379a0000000000000000000000000000000000000000000000000000000008152600401610ab39061145b565b60405180910390fd5b60006001610ac861083c565b7f6e71edae12b1b97f4d1f60370fef10105fa2faae0126114a169c64845d6126c98a8a8a600560008f73ffffffffffffffffffffffffffffffffffffffff1673ffffffffffffffffffffffffffffffffffffffff1681526020019081526020016000206000815480929190600101919050558b604051602001610b509695949392919061148a565b60405160208183030381529060405280519060200120604051602001610b77929190611563565b6040516020818303038152906040528051906020012085858560405160008152602001604052604051610bad949392919061159a565b6020604051602081039080840390855afa158015610bcf573d6000803e3d6000fd5b505050602060405103519050600073ffffffffffffffffffffffffffffffffffffffff168173ffffffffffffffffffffffffffffffffffffffff1614158015610c4357508773ffffffffffffffffffffffffffffffffffffffff168173ffffffffffffffffffffffffffffffffffffffff16145b610c82576040517f08c379a0000000000000000000000000000000000000000000000000000000008152600401610c799061162b565b60405180910390fd5b85600460008373ffffffffffffffffffffffffffffffffffffffff1673ffffffffffffffffffffffffffffffffffffffff16815260200190815260200160002060008973ffffffffffffffffffffffffffffffffffffffff1673ffffffffffffffffffffffffffffffffffffffff16815260200190815260200160002081905550508573ffffffffffffffffffffffffffffffffffffffff168773ffffffffffffffffffffffffffffffffffffffff167f8c5be1e5ebec7d5bd14f71427d1e84f3dd0314c0f7b2291e5b200ac8c7c3b92587604051610d6191906110cc565b60405180910390a350505050505050565b6004602052816000526040600020602052806000526040600020600091509150505481565b60007f8b73c3c69bb8fe3d512ecc4cf759cc79239f7b179b0ffacaa9a75d522b39400f6000604051610dc991906116ea565b60405180910390207fc89efdaa54c0f20c7adf612882df0950f5a951637e0307cdcb4c672f298b8bc64630604051602001610e08959493929190611701565b60405160208183030381529060405280519060200120905090565b8060026000828254610e359190611754565b9250508190555080600360008473ffffffffffffffffffffffffffffffffffffffff1673ffffffffffffffffffffffffffffffffffffffff168152602001908152602001600020600082825401925050819055508173ffffffffffffffffffffffffffffffffffffffff16600073ffffffffffffffffffffffffffffffffffffffff167fddf252ad1be2c89b69c2b068fc378daa952ba7f163c4a11628f55a4df523b3ef83604051610ee791906110cc565b60405180910390a35050565b600081519050919050565b600082825260208201905092915050565b60005b83811015610f2d578082015181840152602081019050610f12565b83811115610f3c576000848401525b50505050565b6000601f19601f8301169050919050565b6000610f5e82610ef3565b610f688185610efe565b9350610f78818560208601610f0f565b610f8181610f42565b840191505092915050565b60006020820190508181036000830152610fa68184610f53565b905092915050565b600080fd5b600073ffffffffffffffffffffffffffffffffffffffff82169050919050565b6000610fde82610fb3565b9050919050565b610fee81610fd3565b8114610ff957600080fd5b50565b60008135905061100b81610fe5565b92915050565b6000819050919050565b61102481611011565b811461102f57600080fd5b50565b6000813590506110418161101b565b92915050565b6000806040838503121561105e5761105d610fae565b5b600061106c85828601610ffc565b925050602061107d85828601611032565b9150509250929050565b60008115159050919050565b61109c81611087565b82525050565b60006020820190506110b76000830184611093565b92915050565b6110c681611011565b82525050565b60006020820190506110e160008301846110bd565b92915050565b600080600060608486031215611100576110ff610fae565b5b600061110e86828701610ffc565b935050602061111f86828701610ffc565b925050604061113086828701611032565b9150509250925092565b600060ff82169050919050565b6111508161113a565b82525050565b600060208201905061116b6000830184611147565b92915050565b6000819050919050565b61118481611171565b82525050565b600060208201905061119f600083018461117b565b92915050565b6000602082840312156111bb576111ba610fae565b5b60006111c984828501610ffc565b91505092915050565b600080604083850312156111e9576111e8610fae565b5b60006111f785828601611032565b925050602061120885828601610ffc565b9150509250929050565b61121b8161113a565b811461122657600080fd5b50565b60008135905061123881611212565b92915050565b61124781611171565b811461125257600080fd5b50565b6000813590506112648161123e565b92915050565b600080600080600080600060e0888a03121561128957611288610fae565b5b60006112978a828b01610ffc565b97505060206112a88a828b01610ffc565b96505060406112b98a828b01611032565b95505060606112ca8a828b01611032565b94505060806112db8a828b01611229565b93505060a06112ec8a828b01611255565b92505060c06112fd8a828b01611255565b91505092959891949750929550565b6000806040838503121561132357611322610fae565b5b600061133185828601610ffc565b925050602061134285828601610ffc565b9150509250929050565b7f4e487b7100000000000000000000000000000000000000000000000000000000600052602260045260246000fd5b6000600282049050600182168061139357607f821691505b6020821081036113a6576113a561134c565b5b50919050565b7f4e487b7100000000000000000000000000000000000000000000000000000000600052601160045260246000fd5b60006113e682611011565b91506113f183611011565b925082821015611404576114036113ac565b5b828203905092915050565b7f5045524d49545f444541444c494e455f45585049524544000000000000000000600082015250565b6000611445601783610efe565b91506114508261140f565b602082019050919050565b6000602082019050818103600083015261147481611438565b9050919050565b61148481610fd3565b82525050565b600060c08201905061149f600083018961117b565b6114ac602083018861147b565b6114b9604083018761147b565b6114c660608301866110bd565b6114d360808301856110bd565b6114e060a08301846110bd565b979650505050505050565b600081905092915050565b7f1901000000000000000000000000000000000000000000000000000000000000600082015250565b600061152c6002836114eb565b9150611537826114f6565b600282019050919050565b6000819050919050565b61155d61155882611171565b611542565b82525050565b600061156e8261151f565b915061157a828561154c565b60208201915061158a828461154c565b6020820191508190509392505050565b60006080820190506115af600083018761117b565b6115bc6020830186611147565b6115c9604083018561117b565b6115d6606083018461117b565b95945050505050565b7f494e56414c49445f5349474e4552000000000000000000000000000000000000600082015250565b6000611615600e83610efe565b9150611620826115df565b602082019050919050565b6000602082019050818103600083015261164481611608565b9050919050565b600081905092915050565b60008190508160005260206000209050919050565b600081546116788161137b565b611682818661164b565b9450600182166000811461169d57600181146116ae576116e1565b60ff198316865281860193506116e1565b6116b785611656565b60005b838110156116d9578154818901526001820191506020810190506116ba565b838801955050505b50505092915050565b60006116f6828461166b565b915081905092915050565b600060a082019050611716600083018861117b565b611723602083018761117b565b611730604083018661117b565b61173d60608301856110bd565b61174a608083018461147b565b9695505050505050565b600061175f82611011565b915061176a83611011565b9250827fffffffffffffffffffffffffffffffffffffffffffffffffffffffffffffffff0382111561179f5761179e6113ac565b5b82820190509291505056fea264697066735822122089eb1b13808c1c32bd5906de37898525ff18c7fc41e3f59119cf759045ee0fdf64736f6c634300080e0033a2646970667358221220482c7f8d8fb7120f33b9d1f4170c042f5c4027e127d694c97d6debe39a1db89d64736f6c634300080e0033",
  "immutableReferences": {},
  "source": "// SPDX-License-Identifier: Unlicense\r\npragma solidity ^0.8.14;\r\n\r\nimport \"./mocks/ERC20Mintable.sol\";\r\nimport \"./JanusAddOn.sol\";\r\n\r\ncontract TokenFactory {\r\n\r\n    function toAsciiString(address x) internal pure returns (string memory) {\r\n        bytes memory s = new bytes(40);\r\n        for (uint i = 0; i < 20; i++) {\r\n            bytes1 b = bytes1(uint8(uint(uint160(x)) / (2**(8*(19 - i)))));\r\n            bytes1 hi = bytes1(uint8(b) / 16);\r\n            bytes1 lo = bytes1(uint8(b) - 16 * uint8(hi));\r\n            s[2*i] = char(hi);\r\n            s[2*i+1] = char(lo);\r\n        }\r\n        return string(s);\r\n    }\r\n\r\n    function char(bytes1 b) internal pure returns (bytes1 c) {\r\n        if (uint8(b) < 10) return bytes1(uint8(b) + 0x30);\r\n        else return bytes1(uint8(b) + 0x57);\r\n    }\r\n\r\n\r\n    address[] deployedContracts;\r\n    mapping(address => bool) public deployedContractsCheck;\r\n    address public addOnAddress = address(0);\r\n\r\n    function setAddOnAddress(address _address) public {\r\n        if (addOnAddress == address(0)) {\r\n            addOnAddress = _address;\r\n        }\r\n    }\r\n\r\n    function getAllTokens() public view returns(address[] memory) {\r\n        return deployedContracts;\r\n    }\r\n\r\n    function addToken(address _token) public {\r\n        if(!deployedContractsCheck[_token]) {\r\n            deployedContracts.push(_token);\r\n            deployedContractsCheck[_token] = true;\r\n        }\r\n    }\r\n\r\n    event TokenDeployed(address tokenAddress, string name, string symbol, uint256 amount);\r\n\r\n    function deployToken(string memory name_, string memory symbol_, uint256 amount_) public returns(address) {\r\n        ERC20Mintable t = new ERC20Mintable(name_, symbol_);\r\n        deployedContracts.push(address(t));\r\n        deployedContractsCheck[address(t)] = true;\r\n        t.mint(amount_, address(t));\r\n        if (addOnAddress != address(0)) {\r\n            JanusAddOn addOn = JanusAddOn(addOnAddress);\r\n            addOn.awardProprietaryTokenForStaking(amount_, msg.sender, toAsciiString(msg.sender));\r\n        }\r\n        emit TokenDeployed(address(t), t.getName(), t.getSymbol(), t.balanceOf(address (t)));\r\n        return address(t);\r\n    }\r\n}\r\n",
  "sourcePath": "C:\\Users\\eu\\WebstormProjects\\Janus\\src\\contracts\\TokenFactory.sol",
  "compiler": {
    "name": "solc",
    "version": "0.8.14+commit.80d49f37.Emscripten.clang"
  },
  "schemaVersion": "3.4.7",
  "updatedAt": "2022-06-08T14:28:31.751Z",
  "networkType": "ethereum",
  "devdoc": {
    "kind": "dev",
    "methods": {},
    "version": 1
  },
  "userdoc": {
    "kind": "user",
    "methods": {},
    "version": 1
  }
}