{
  "contractName": "TokenFactory",
  "abi": [
    {
      "inputs": [
        {
          "internalType": "address",
          "name": "_whitelistAddress",
          "type": "address"
        },
        {
          "internalType": "address",
          "name": "_treasuryAddress",
          "type": "address"
        },
        {
          "internalType": "address",
          "name": "_proprietaryTokenAddress",
          "type": "address"
        },
        {
          "internalType": "address",
          "name": "_oracleAddress",
          "type": "address"
        }
      ],
      "stateMutability": "nonpayable",
      "type": "constructor"
    },
    {
      "anonymous": false,
      "inputs": [
        {
          "indexed": false,
          "internalType": "address",
          "name": "tokenAddress",
          "type": "address"
        },
        {
          "indexed": false,
          "internalType": "string",
          "name": "name",
          "type": "string"
        },
        {
          "indexed": false,
          "internalType": "string",
          "name": "symbol",
          "type": "string"
        },
        {
          "indexed": false,
          "internalType": "uint256",
          "name": "amount",
          "type": "uint256"
        }
      ],
      "name": "TokenDeployed",
      "type": "event"
    },
    {
      "inputs": [
        {
          "internalType": "address",
          "name": "",
          "type": "address"
        }
      ],
      "name": "deployedTokenAddressesCheck",
      "outputs": [
        {
          "internalType": "bool",
          "name": "",
          "type": "bool"
        }
      ],
      "stateMutability": "view",
      "type": "function",
      "constant": true
    },
    {
      "inputs": [
        {
          "internalType": "string",
          "name": "",
          "type": "string"
        }
      ],
      "name": "deployedTokenSymbolStrings",
      "outputs": [
        {
          "internalType": "bool",
          "name": "",
          "type": "bool"
        }
      ],
      "stateMutability": "view",
      "type": "function",
      "constant": true
    },
    {
      "inputs": [
        {
          "internalType": "string",
          "name": "",
          "type": "string"
        }
      ],
      "name": "deployedTokenSymbolsToAddress",
      "outputs": [
        {
          "internalType": "address",
          "name": "",
          "type": "address"
        }
      ],
      "stateMutability": "view",
      "type": "function",
      "constant": true
    },
    {
      "inputs": [],
      "name": "oracle",
      "outputs": [
        {
          "internalType": "contract IOracle",
          "name": "",
          "type": "address"
        }
      ],
      "stateMutability": "view",
      "type": "function",
      "constant": true
    },
    {
      "inputs": [],
      "name": "proprietaryToken",
      "outputs": [
        {
          "internalType": "contract ERC20Mintable",
          "name": "",
          "type": "address"
        }
      ],
      "stateMutability": "view",
      "type": "function",
      "constant": true
    },
    {
      "inputs": [
        {
          "internalType": "address",
          "name": "",
          "type": "address"
        }
      ],
      "name": "tokenTotalAmount",
      "outputs": [
        {
          "internalType": "uint256",
          "name": "",
          "type": "uint256"
        }
      ],
      "stateMutability": "view",
      "type": "function",
      "constant": true
    },
    {
      "inputs": [],
      "name": "treasury",
      "outputs": [
        {
          "internalType": "contract ITreasury",
          "name": "",
          "type": "address"
        }
      ],
      "stateMutability": "view",
      "type": "function",
      "constant": true
    },
    {
      "inputs": [],
      "name": "whitelist",
      "outputs": [
        {
          "internalType": "contract IWhitelist",
          "name": "",
          "type": "address"
        }
      ],
      "stateMutability": "view",
      "type": "function",
      "constant": true
    },
    {
      "inputs": [],
      "name": "getAllTokens",
      "outputs": [
        {
          "internalType": "address[]",
          "name": "",
          "type": "address[]"
        }
      ],
      "stateMutability": "view",
      "type": "function",
      "constant": true
    },
    {
      "inputs": [
        {
          "internalType": "address",
          "name": "_token",
          "type": "address"
        }
      ],
      "name": "addToken",
      "outputs": [],
      "stateMutability": "nonpayable",
      "type": "function"
    },
    {
      "inputs": [
        {
          "internalType": "address",
          "name": "_token",
          "type": "address"
        }
      ],
      "name": "getTotalAmountOfToken",
      "outputs": [
        {
          "internalType": "uint256",
          "name": "",
          "type": "uint256"
        }
      ],
      "stateMutability": "view",
      "type": "function",
      "constant": true
    },
    {
      "inputs": [
        {
          "internalType": "address",
          "name": "_token",
          "type": "address"
        },
        {
          "internalType": "uint256",
          "name": "_amount",
          "type": "uint256"
        }
      ],
      "name": "setTotalAmountOfToken",
      "outputs": [],
      "stateMutability": "nonpayable",
      "type": "function"
    },
    {
      "inputs": [
        {
          "internalType": "string",
          "name": "_name",
          "type": "string"
        },
        {
          "internalType": "string",
          "name": "_symbol",
          "type": "string"
        },
        {
          "internalType": "uint256",
          "name": "_amount",
          "type": "uint256"
        }
      ],
      "name": "stakeToken",
      "outputs": [
        {
          "internalType": "address",
          "name": "",
          "type": "address"
        }
      ],
      "stateMutability": "nonpayable",
      "type": "function"
    },
    {
      "inputs": [
        {
          "internalType": "string",
          "name": "_name",
          "type": "string"
        },
        {
          "internalType": "string",
          "name": "_symbol",
          "type": "string"
        },
        {
          "internalType": "uint256",
          "name": "_amount",
          "type": "uint256"
        }
      ],
      "name": "stakeToken1",
      "outputs": [],
      "stateMutability": "nonpayable",
      "type": "function"
    }
  ],
  "bytecode": "0x60806040523480156200001157600080fd5b5060405162004300380380620043008339818101604052810190620000379190620001ae565b836000806101000a81548173ffffffffffffffffffffffffffffffffffffffff021916908373ffffffffffffffffffffffffffffffffffffffff16021790555081600360006101000a81548173ffffffffffffffffffffffffffffffffffffffff021916908373ffffffffffffffffffffffffffffffffffffffff16021790555080600260006101000a81548173ffffffffffffffffffffffffffffffffffffffff021916908373ffffffffffffffffffffffffffffffffffffffff16021790555082600160006101000a81548173ffffffffffffffffffffffffffffffffffffffff021916908373ffffffffffffffffffffffffffffffffffffffff1602179055505050505062000220565b600080fd5b600073ffffffffffffffffffffffffffffffffffffffff82169050919050565b6000620001768262000149565b9050919050565b620001888162000169565b81146200019457600080fd5b50565b600081519050620001a8816200017d565b92915050565b60008060008060808587031215620001cb57620001ca62000144565b5b6000620001db8782880162000197565b9450506020620001ee8782880162000197565b9350506040620002018782880162000197565b9250506060620002148782880162000197565b91505092959194509250565b6140d080620002306000396000f3fe60806040523480156200001157600080fd5b5060043610620001005760003560e01c80636d1e3674116200009957806393e59dc1116200006f57806393e59dc114620002a5578063c4dc1a1614620002c7578063d48bfca714620002fd578063fe4ae1f5146200031d5762000100565b80636d1e367414620002415780637dc0d1d014620002635780638a02c41f14620002855762000100565b80635af8d2cb11620000db5780635af8d2cb146200017d5780635e914c9214620001b357806361d027b314620001e95780636377241c146200020b5762000100565b80631d255b0514620001055780632a5c792a146200012557806339ac80501462000147575b600080fd5b6200012360048036038101906200011d9190620014c3565b62000353565b005b6200012f620007f6565b6040516200013e91906200165f565b60405180910390f35b6200016560048036038101906200015f9190620016b4565b62000886565b604051620001749190620016f7565b60405180910390f35b6200019b6004803603810190620001959190620014c3565b620008cf565b604051620001aa919062001725565b60405180910390f35b620001d16004803603810190620001cb9190620016b4565b62000e29565b604051620001e091906200175f565b60405180910390f35b620001f362000e49565b604051620002029190620017e7565b60405180910390f35b620002296004803603810190620002239190620016b4565b62000e6f565b604051620002389190620016f7565b60405180910390f35b6200024b62000e87565b6040516200025a919062001829565b60405180910390f35b6200026d62000ead565b6040516200027c91906200186b565b60405180910390f35b620002a360048036038101906200029d919062001888565b62000ed3565b005b620002af62000f1b565b604051620002be9190620018f4565b60405180910390f35b620002e56004803603810190620002df919062001911565b62000f3f565b604051620002f4919062001725565b60405180910390f35b6200031b6004803603810190620003159190620016b4565b62000f88565b005b6200033b600480360381019062000335919062001911565b62001099565b6040516200034a91906200175f565b60405180910390f35b600782604051620003659190620019e5565b908152602001604051809103902060009054906101000a900460ff1615620005445760006006836040516200039b9190620019e5565b908152602001604051809103902060009054906101000a900473ffffffffffffffffffffffffffffffffffffffff1690508073ffffffffffffffffffffffffffffffffffffffff166394bf804d83336040518363ffffffff1660e01b815260040162000409929190620019fe565b600060405180830381600087803b1580156200042457600080fd5b505af115801562000439573d6000803e3d6000fd5b5050505081600860008373ffffffffffffffffffffffffffffffffffffffff1673ffffffffffffffffffffffffffffffffffffffff16815260200190815260200160002060008282546200048e919062001a5a565b92505081905550600160009054906101000a900473ffffffffffffffffffffffffffffffffffffffff1673ffffffffffffffffffffffffffffffffffffffff1663b4fb93558284336040518463ffffffff1660e01b8152600401620004f69392919062001ab7565b6020604051808303816000875af115801562000516573d6000803e3d6000fd5b505050506040513d601f19601f820116820180604052508101906200053c919062001b0b565b5050620007f1565b60008383604051620005569062001304565b6200056392919062001b8f565b604051809103906000f08015801562000580573d6000803e3d6000fd5b5090506004819080600181540180825580915050600190039060005260206000200160009091909190916101000a81548173ffffffffffffffffffffffffffffffffffffffff021916908373ffffffffffffffffffffffffffffffffffffffff1602179055506001600560008373ffffffffffffffffffffffffffffffffffffffff1673ffffffffffffffffffffffffffffffffffffffff16815260200190815260200160002060006101000a81548160ff0219169083151502179055506001600784604051620006529190620019e5565b908152602001604051809103902060006101000a81548160ff021916908315150217905550806006846040516200068a9190620019e5565b908152602001604051809103902060006101000a81548173ffffffffffffffffffffffffffffffffffffffff021916908373ffffffffffffffffffffffffffffffffffffffff1602179055508073ffffffffffffffffffffffffffffffffffffffff166394bf804d83336040518363ffffffff1660e01b815260040162000713929190620019fe565b600060405180830381600087803b1580156200072e57600080fd5b505af115801562000743573d6000803e3d6000fd5b50505050600160009054906101000a900473ffffffffffffffffffffffffffffffffffffffff1673ffffffffffffffffffffffffffffffffffffffff1663b4fb93558284336040518463ffffffff1660e01b8152600401620007a89392919062001ab7565b6020604051808303816000875af1158015620007c8573d6000803e3d6000fd5b505050506040513d601f19601f82011682018060405250810190620007ee919062001b0b565b50505b505050565b606060048054806020026020016040519081016040528092919081815260200182805480156200087c57602002820191906000526020600020905b8160009054906101000a900473ffffffffffffffffffffffffffffffffffffffff1673ffffffffffffffffffffffffffffffffffffffff168152602001906001019080831162000831575b5050505050905090565b6000600860008373ffffffffffffffffffffffffffffffffffffffff1673ffffffffffffffffffffffffffffffffffffffff168152602001908152602001600020549050919050565b60008060009054906101000a900473ffffffffffffffffffffffffffffffffffffffff1673ffffffffffffffffffffffffffffffffffffffff16631eb41b716200091933620010cf565b6040518263ffffffff1660e01b815260040162000937919062001bca565b6020604051808303816000875af115801562000957573d6000803e3d6000fd5b505050506040513d601f19601f820116820180604052508101906200097d919062001c1f565b50600783604051620009909190620019e5565b908152602001604051809103902060009054906101000a900460ff161562000b72576000600684604051620009c69190620019e5565b908152602001604051809103902060009054906101000a900473ffffffffffffffffffffffffffffffffffffffff1690508073ffffffffffffffffffffffffffffffffffffffff166394bf804d84336040518363ffffffff1660e01b815260040162000a34929190620019fe565b600060405180830381600087803b15801562000a4f57600080fd5b505af115801562000a64573d6000803e3d6000fd5b5050505082600860008373ffffffffffffffffffffffffffffffffffffffff1673ffffffffffffffffffffffffffffffffffffffff168152602001908152602001600020600082825462000ab9919062001a5a565b92505081905550600160009054906101000a900473ffffffffffffffffffffffffffffffffffffffff1673ffffffffffffffffffffffffffffffffffffffff1663b4fb93558285336040518463ffffffff1660e01b815260040162000b219392919062001ab7565b6020604051808303816000875af115801562000b41573d6000803e3d6000fd5b505050506040513d601f19601f8201168201806040525081019062000b67919062001b0b565b508091505062000e22565b6000848460405162000b849062001304565b62000b9192919062001b8f565b604051809103906000f08015801562000bae573d6000803e3d6000fd5b5090506004819080600181540180825580915050600190039060005260206000200160009091909190916101000a81548173ffffffffffffffffffffffffffffffffffffffff021916908373ffffffffffffffffffffffffffffffffffffffff1602179055506001600560008373ffffffffffffffffffffffffffffffffffffffff1673ffffffffffffffffffffffffffffffffffffffff16815260200190815260200160002060006101000a81548160ff021916908315150217905550600160078560405162000c809190620019e5565b908152602001604051809103902060006101000a81548160ff0219169083151502179055508060068560405162000cb89190620019e5565b908152602001604051809103902060006101000a81548173ffffffffffffffffffffffffffffffffffffffff021916908373ffffffffffffffffffffffffffffffffffffffff1602179055508073ffffffffffffffffffffffffffffffffffffffff166394bf804d84336040518363ffffffff1660e01b815260040162000d41929190620019fe565b600060405180830381600087803b15801562000d5c57600080fd5b505af115801562000d71573d6000803e3d6000fd5b50505050600160009054906101000a900473ffffffffffffffffffffffffffffffffffffffff1673ffffffffffffffffffffffffffffffffffffffff1663b4fb93558285336040518463ffffffff1660e01b815260040162000dd69392919062001ab7565b6020604051808303816000875af115801562000df6573d6000803e3d6000fd5b505050506040513d601f19601f8201168201806040525081019062000e1c919062001b0b565b50809150505b9392505050565b60056020528060005260406000206000915054906101000a900460ff1681565b600160009054906101000a900473ffffffffffffffffffffffffffffffffffffffff1681565b60086020528060005260406000206000915090505481565b600360009054906101000a900473ffffffffffffffffffffffffffffffffffffffff1681565b600260009054906101000a900473ffffffffffffffffffffffffffffffffffffffff1681565b80600860008473ffffffffffffffffffffffffffffffffffffffff1673ffffffffffffffffffffffffffffffffffffffff168152602001908152602001600020819055505050565b60008054906101000a900473ffffffffffffffffffffffffffffffffffffffff1681565b6006818051602081018201805184825260208301602085012081835280955050505050506000915054906101000a900473ffffffffffffffffffffffffffffffffffffffff1681565b600560008273ffffffffffffffffffffffffffffffffffffffff1673ffffffffffffffffffffffffffffffffffffffff16815260200190815260200160002060009054906101000a900460ff1662001096576004819080600181540180825580915050600190039060005260206000200160009091909190916101000a81548173ffffffffffffffffffffffffffffffffffffffff021916908373ffffffffffffffffffffffffffffffffffffffff1602179055506001600560008373ffffffffffffffffffffffffffffffffffffffff1673ffffffffffffffffffffffffffffffffffffffff16815260200190815260200160002060006101000a81548160ff0219169083151502179055505b50565b6007818051602081018201805184825260208301602085012081835280955050505050506000915054906101000a900460ff1681565b60606000602867ffffffffffffffff811115620010f157620010f062001341565b5b6040519080825280601f01601f191660200182016040528015620011245781602001600182028036833780820191505090505b50905060005b6014811015620012ae57600081601362001145919062001c51565b600862001153919062001c8c565b600262001161919062001e41565b8573ffffffffffffffffffffffffffffffffffffffff1662001184919062001ec1565b60f81b9050600060108260f81c6200119d919062001f06565b60f81b905060008160f81c6010620011b6919062001f3e565b8360f81c620011c6919062001f80565b60f81b9050620011d682620012b8565b85856002620011e6919062001c8c565b81518110620011fa57620011f962001fbb565b5b60200101907effffffffffffffffffffffffffffffffffffffffffffffffffffffffffffff1916908160001a9053506200123481620012b8565b85600186600262001246919062001c8c565b62001252919062001a5a565b8151811062001266576200126562001fbb565b5b60200101907effffffffffffffffffffffffffffffffffffffffffffffffffffffffffffff1916908160001a9053505050508080620012a59062001fea565b9150506200112a565b5080915050919050565b6000600a8260f81c60ff161015620012e75760308260f81c620012dc919062002037565b60f81b9050620012ff565b60578260f81c620012f9919062002037565b60f81b90505b919050565b612025806200207683390190565b6000604051905090565b600080fd5b600080fd5b600080fd5b600080fd5b6000601f19601f8301169050919050565b7f4e487b7100000000000000000000000000000000000000000000000000000000600052604160045260246000fd5b6200137b8262001330565b810181811067ffffffffffffffff821117156200139d576200139c62001341565b5b80604052505050565b6000620013b262001312565b9050620013c0828262001370565b919050565b600067ffffffffffffffff821115620013e357620013e262001341565b5b620013ee8262001330565b9050602081019050919050565b82818337600083830152505050565b6000620014216200141b84620013c5565b620013a6565b90508281526020810184848401111562001440576200143f6200132b565b5b6200144d848285620013fb565b509392505050565b600082601f8301126200146d576200146c62001326565b5b81356200147f8482602086016200140a565b91505092915050565b6000819050919050565b6200149d8162001488565b8114620014a957600080fd5b50565b600081359050620014bd8162001492565b92915050565b600080600060608486031215620014df57620014de6200131c565b5b600084013567ffffffffffffffff8111156200150057620014ff62001321565b5b6200150e8682870162001455565b935050602084013567ffffffffffffffff81111562001532576200153162001321565b5b620015408682870162001455565b92505060406200155386828701620014ac565b9150509250925092565b600081519050919050565b600082825260208201905092915050565b6000819050602082019050919050565b600073ffffffffffffffffffffffffffffffffffffffff82169050919050565b6000620015b68262001589565b9050919050565b620015c881620015a9565b82525050565b6000620015dc8383620015bd565b60208301905092915050565b6000602082019050919050565b600062001602826200155d565b6200160e818562001568565b93506200161b8362001579565b8060005b8381101562001652578151620016368882620015ce565b97506200164383620015e8565b9250506001810190506200161f565b5085935050505092915050565b600060208201905081810360008301526200167b8184620015f5565b905092915050565b6200168e81620015a9565b81146200169a57600080fd5b50565b600081359050620016ae8162001683565b92915050565b600060208284031215620016cd57620016cc6200131c565b5b6000620016dd848285016200169d565b91505092915050565b620016f18162001488565b82525050565b60006020820190506200170e6000830184620016e6565b92915050565b6200171f81620015a9565b82525050565b60006020820190506200173c600083018462001714565b92915050565b60008115159050919050565b620017598162001742565b82525050565b60006020820190506200177660008301846200174e565b92915050565b6000819050919050565b6000620017a7620017a16200179b8462001589565b6200177c565b62001589565b9050919050565b6000620017bb8262001786565b9050919050565b6000620017cf82620017ae565b9050919050565b620017e181620017c2565b82525050565b6000602082019050620017fe6000830184620017d6565b92915050565b60006200181182620017ae565b9050919050565b620018238162001804565b82525050565b600060208201905062001840600083018462001818565b92915050565b60006200185382620017ae565b9050919050565b620018658162001846565b82525050565b60006020820190506200188260008301846200185a565b92915050565b60008060408385031215620018a257620018a16200131c565b5b6000620018b2858286016200169d565b9250506020620018c585828601620014ac565b9150509250929050565b6000620018dc82620017ae565b9050919050565b620018ee81620018cf565b82525050565b60006020820190506200190b6000830184620018e3565b92915050565b6000602082840312156200192a57620019296200131c565b5b600082013567ffffffffffffffff8111156200194b576200194a62001321565b5b620019598482850162001455565b91505092915050565b600081519050919050565b600081905092915050565b60005b83811015620019985780820151818401526020810190506200197b565b83811115620019a8576000848401525b50505050565b6000620019bb8262001962565b620019c781856200196d565b9350620019d981856020860162001978565b80840191505092915050565b6000620019f38284620019ae565b915081905092915050565b600060408201905062001a156000830185620016e6565b62001a24602083018462001714565b9392505050565b7f4e487b7100000000000000000000000000000000000000000000000000000000600052601160045260246000fd5b600062001a678262001488565b915062001a748362001488565b9250827fffffffffffffffffffffffffffffffffffffffffffffffffffffffffffffffff0382111562001aac5762001aab62001a2b565b5b828201905092915050565b600060608201905062001ace600083018662001714565b62001add6020830185620016e6565b62001aec604083018462001714565b949350505050565b60008151905062001b058162001492565b92915050565b60006020828403121562001b245762001b236200131c565b5b600062001b348482850162001af4565b91505092915050565b600082825260208201905092915050565b600062001b5b8262001962565b62001b67818562001b3d565b935062001b7981856020860162001978565b62001b848162001330565b840191505092915050565b6000604082019050818103600083015262001bab818562001b4e565b9050818103602083015262001bc1818462001b4e565b90509392505050565b6000602082019050818103600083015262001be6818462001b4e565b905092915050565b62001bf98162001742565b811462001c0557600080fd5b50565b60008151905062001c198162001bee565b92915050565b60006020828403121562001c385762001c376200131c565b5b600062001c488482850162001c08565b91505092915050565b600062001c5e8262001488565b915062001c6b8362001488565b92508282101562001c815762001c8062001a2b565b5b828203905092915050565b600062001c998262001488565b915062001ca68362001488565b9250817fffffffffffffffffffffffffffffffffffffffffffffffffffffffffffffffff048311821515161562001ce25762001ce162001a2b565b5b828202905092915050565b60008160011c9050919050565b6000808291508390505b600185111562001d4c5780860481111562001d245762001d2362001a2b565b5b600185161562001d345780820291505b808102905062001d448562001ced565b945062001d04565b94509492505050565b60008262001d67576001905062001e3a565b8162001d77576000905062001e3a565b816001811462001d90576002811462001d9b5762001dd1565b600191505062001e3a565b60ff84111562001db05762001daf62001a2b565b5b8360020a91508482111562001dca5762001dc962001a2b565b5b5062001e3a565b5060208310610133831016604e8410600b841016171562001e0b5782820a90508381111562001e055762001e0462001a2b565b5b62001e3a565b62001e1a848484600162001cfa565b9250905081840481111562001e345762001e3362001a2b565b5b81810290505b9392505050565b600062001e4e8262001488565b915062001e5b8362001488565b925062001e8a7fffffffffffffffffffffffffffffffffffffffffffffffffffffffffffffffff848462001d55565b905092915050565b7f4e487b7100000000000000000000000000000000000000000000000000000000600052601260045260246000fd5b600062001ece8262001488565b915062001edb8362001488565b92508262001eee5762001eed62001e92565b5b828204905092915050565b600060ff82169050919050565b600062001f138262001ef9565b915062001f208362001ef9565b92508262001f335762001f3262001e92565b5b828204905092915050565b600062001f4b8262001ef9565b915062001f588362001ef9565b92508160ff048311821515161562001f755762001f7462001a2b565b5b828202905092915050565b600062001f8d8262001ef9565b915062001f9a8362001ef9565b92508282101562001fb05762001faf62001a2b565b5b828203905092915050565b7f4e487b7100000000000000000000000000000000000000000000000000000000600052603260045260246000fd5b600062001ff78262001488565b91507fffffffffffffffffffffffffffffffffffffffffffffffffffffffffffffffff82036200202c576200202b62001a2b565b5b600182019050919050565b6000620020448262001ef9565b9150620020518362001ef9565b92508260ff038211156200206a576200206962001a2b565b5b82820190509291505056fe60e06040523480156200001157600080fd5b5060405162002025380380620020258339818101604052810190620000379190620002c4565b8181601282600090816200004c919062000594565b5081600190816200005e919062000594565b508060ff1660808160ff16815250504660a08181525050620000856200009760201b60201c565b60c08181525050505050505062000811565b60007f8b73c3c69bb8fe3d512ecc4cf759cc79239f7b179b0ffacaa9a75d522b39400f6000604051620000cb91906200072a565b60405180910390207fc89efdaa54c0f20c7adf612882df0950f5a951637e0307cdcb4c672f298b8bc646306040516020016200010c959493929190620007b4565b60405160208183030381529060405280519060200120905090565b6000604051905090565b600080fd5b600080fd5b600080fd5b600080fd5b6000601f19601f8301169050919050565b7f4e487b7100000000000000000000000000000000000000000000000000000000600052604160045260246000fd5b620001908262000145565b810181811067ffffffffffffffff82111715620001b257620001b162000156565b5b80604052505050565b6000620001c762000127565b9050620001d5828262000185565b919050565b600067ffffffffffffffff821115620001f857620001f762000156565b5b620002038262000145565b9050602081019050919050565b60005b838110156200023057808201518184015260208101905062000213565b8381111562000240576000848401525b50505050565b60006200025d6200025784620001da565b620001bb565b9050828152602081018484840111156200027c576200027b62000140565b5b6200028984828562000210565b509392505050565b600082601f830112620002a957620002a86200013b565b5b8151620002bb84826020860162000246565b91505092915050565b60008060408385031215620002de57620002dd62000131565b5b600083015167ffffffffffffffff811115620002ff57620002fe62000136565b5b6200030d8582860162000291565b925050602083015167ffffffffffffffff81111562000331576200033062000136565b5b6200033f8582860162000291565b9150509250929050565b600081519050919050565b7f4e487b7100000000000000000000000000000000000000000000000000000000600052602260045260246000fd5b600060028204905060018216806200039c57607f821691505b602082108103620003b257620003b162000354565b5b50919050565b60008190508160005260206000209050919050565b60006020601f8301049050919050565b600082821b905092915050565b6000600883026200041c7fffffffffffffffffffffffffffffffffffffffffffffffffffffffffffffffff82620003dd565b620004288683620003dd565b95508019841693508086168417925050509392505050565b6000819050919050565b6000819050919050565b6000620004756200046f620004698462000440565b6200044a565b62000440565b9050919050565b6000819050919050565b620004918362000454565b620004a9620004a0826200047c565b848454620003ea565b825550505050565b600090565b620004c0620004b1565b620004cd81848462000486565b505050565b5b81811015620004f557620004e9600082620004b6565b600181019050620004d3565b5050565b601f82111562000544576200050e81620003b8565b6200051984620003cd565b8101602085101562000529578190505b620005416200053885620003cd565b830182620004d2565b50505b505050565b600082821c905092915050565b6000620005696000198460080262000549565b1980831691505092915050565b600062000584838362000556565b9150826002028217905092915050565b6200059f8262000349565b67ffffffffffffffff811115620005bb57620005ba62000156565b5b620005c7825462000383565b620005d4828285620004f9565b600060209050601f8311600181146200060c5760008415620005f7578287015190505b62000603858262000576565b86555062000673565b601f1984166200061c86620003b8565b60005b8281101562000646578489015182556001820191506020850194506020810190506200061f565b8683101562000666578489015162000662601f89168262000556565b8355505b6001600288020188555050505b505050505050565b600081905092915050565b60008190508160005260206000209050919050565b60008154620006aa8162000383565b620006b681866200067b565b94506001821660008114620006d45760018114620006ea5762000721565b60ff198316865281151582028601935062000721565b620006f58562000686565b60005b838110156200071957815481890152600182019150602081019050620006f8565b838801955050505b50505092915050565b60006200073882846200069b565b915081905092915050565b6000819050919050565b620007588162000743565b82525050565b620007698162000440565b82525050565b600073ffffffffffffffffffffffffffffffffffffffff82169050919050565b60006200079c826200076f565b9050919050565b620007ae816200078f565b82525050565b600060a082019050620007cb60008301886200074d565b620007da60208301876200074d565b620007e960408301866200074d565b620007f860608301856200075e565b620008076080830184620007a3565b9695505050505050565b60805160a05160c0516117e4620008416000396000610874015260006108400152600061081a01526117e46000f3fe608060405234801561001057600080fd5b50600436106100f55760003560e01c80633644e5151161009757806395d89b411161006657806395d89b411461028a578063a9059cbb146102a8578063d505accf146102d8578063dd62ed3e146102f4576100f5565b80633644e515146101f057806370a082311461020e5780637ecebe001461023e57806394bf804d1461026e576100f5565b806317d7de7c116100d357806317d7de7c1461016657806318160ddd1461018457806323b872dd146101a2578063313ce567146101d2576100f5565b806306fdde03146100fa578063095ea7b3146101185780631507040114610148575b600080fd5b610102610324565b60405161010f9190610f8c565b60405180910390f35b610132600480360381019061012d9190611047565b6103b2565b60405161013f91906110a2565b60405180910390f35b6101506104a4565b60405161015d9190610f8c565b60405180910390f35b61016e610536565b60405161017b9190610f8c565b60405180910390f35b61018c6105c8565b60405161019991906110cc565b60405180910390f35b6101bc60048036038101906101b791906110e7565b6105ce565b6040516101c991906110a2565b60405180910390f35b6101da610818565b6040516101e79190611156565b60405180910390f35b6101f861083c565b604051610205919061118a565b60405180910390f35b610228600480360381019061022391906111a5565b610899565b60405161023591906110cc565b60405180910390f35b610258600480360381019061025391906111a5565b6108b1565b60405161026591906110cc565b60405180910390f35b610288600480360381019061028391906111d2565b6108c9565b005b6102926108d7565b60405161029f9190610f8c565b60405180910390f35b6102c260048036038101906102bd9190611047565b610965565b6040516102cf91906110a2565b60405180910390f35b6102f260048036038101906102ed919061126a565b610a79565b005b61030e6004803603810190610309919061130c565b610d72565b60405161031b91906110cc565b60405180910390f35b600080546103319061137b565b80601f016020809104026020016040519081016040528092919081815260200182805461035d9061137b565b80156103aa5780601f1061037f576101008083540402835291602001916103aa565b820191906000526020600020905b81548152906001019060200180831161038d57829003601f168201915b505050505081565b600081600460003373ffffffffffffffffffffffffffffffffffffffff1673ffffffffffffffffffffffffffffffffffffffff16815260200190815260200160002060008573ffffffffffffffffffffffffffffffffffffffff1673ffffffffffffffffffffffffffffffffffffffff168152602001908152602001600020819055508273ffffffffffffffffffffffffffffffffffffffff163373ffffffffffffffffffffffffffffffffffffffff167f8c5be1e5ebec7d5bd14f71427d1e84f3dd0314c0f7b2291e5b200ac8c7c3b9258460405161049291906110cc565b60405180910390a36001905092915050565b6060600180546104b39061137b565b80601f01602080910402602001604051908101604052809291908181526020018280546104df9061137b565b801561052c5780601f106105015761010080835404028352916020019161052c565b820191906000526020600020905b81548152906001019060200180831161050f57829003601f168201915b5050505050905090565b6060600080546105459061137b565b80601f01602080910402602001604051908101604052809291908181526020018280546105719061137b565b80156105be5780601f10610593576101008083540402835291602001916105be565b820191906000526020600020905b8154815290600101906020018083116105a157829003601f168201915b5050505050905090565b60025481565b600080600460008673ffffffffffffffffffffffffffffffffffffffff1673ffffffffffffffffffffffffffffffffffffffff16815260200190815260200160002060003373ffffffffffffffffffffffffffffffffffffffff1673ffffffffffffffffffffffffffffffffffffffff1681526020019081526020016000205490507fffffffffffffffffffffffffffffffffffffffffffffffffffffffffffffffff811461070457828161068391906113db565b600460008773ffffffffffffffffffffffffffffffffffffffff1673ffffffffffffffffffffffffffffffffffffffff16815260200190815260200160002060003373ffffffffffffffffffffffffffffffffffffffff1673ffffffffffffffffffffffffffffffffffffffff168152602001908152602001600020819055505b82600360008773ffffffffffffffffffffffffffffffffffffffff1673ffffffffffffffffffffffffffffffffffffffff168152602001908152602001600020600082825461075391906113db565b9250508190555082600360008673ffffffffffffffffffffffffffffffffffffffff1673ffffffffffffffffffffffffffffffffffffffff168152602001908152602001600020600082825401925050819055508373ffffffffffffffffffffffffffffffffffffffff168573ffffffffffffffffffffffffffffffffffffffff167fddf252ad1be2c89b69c2b068fc378daa952ba7f163c4a11628f55a4df523b3ef8560405161080491906110cc565b60405180910390a360019150509392505050565b7f000000000000000000000000000000000000000000000000000000000000000081565b60007f000000000000000000000000000000000000000000000000000000000000000046146108725761086d610d97565b610894565b7f00000000000000000000000000000000000000000000000000000000000000005b905090565b60036020528060005260406000206000915090505481565b60056020528060005260406000206000915090505481565b6108d38183610e23565b5050565b600180546108e49061137b565b80601f01602080910402602001604051908101604052809291908181526020018280546109109061137b565b801561095d5780601f106109325761010080835404028352916020019161095d565b820191906000526020600020905b81548152906001019060200180831161094057829003601f168201915b505050505081565b600081600360003373ffffffffffffffffffffffffffffffffffffffff1673ffffffffffffffffffffffffffffffffffffffff16815260200190815260200160002060008282546109b691906113db565b9250508190555081600360008573ffffffffffffffffffffffffffffffffffffffff1673ffffffffffffffffffffffffffffffffffffffff168152602001908152602001600020600082825401925050819055508273ffffffffffffffffffffffffffffffffffffffff163373ffffffffffffffffffffffffffffffffffffffff167fddf252ad1be2c89b69c2b068fc378daa952ba7f163c4a11628f55a4df523b3ef84604051610a6791906110cc565b60405180910390a36001905092915050565b42841015610abc576040517f08c379a0000000000000000000000000000000000000000000000000000000008152600401610ab39061145b565b60405180910390fd5b60006001610ac861083c565b7f6e71edae12b1b97f4d1f60370fef10105fa2faae0126114a169c64845d6126c98a8a8a600560008f73ffffffffffffffffffffffffffffffffffffffff1673ffffffffffffffffffffffffffffffffffffffff1681526020019081526020016000206000815480929190600101919050558b604051602001610b509695949392919061148a565b60405160208183030381529060405280519060200120604051602001610b77929190611563565b6040516020818303038152906040528051906020012085858560405160008152602001604052604051610bad949392919061159a565b6020604051602081039080840390855afa158015610bcf573d6000803e3d6000fd5b505050602060405103519050600073ffffffffffffffffffffffffffffffffffffffff168173ffffffffffffffffffffffffffffffffffffffff1614158015610c4357508773ffffffffffffffffffffffffffffffffffffffff168173ffffffffffffffffffffffffffffffffffffffff16145b610c82576040517f08c379a0000000000000000000000000000000000000000000000000000000008152600401610c799061162b565b60405180910390fd5b85600460008373ffffffffffffffffffffffffffffffffffffffff1673ffffffffffffffffffffffffffffffffffffffff16815260200190815260200160002060008973ffffffffffffffffffffffffffffffffffffffff1673ffffffffffffffffffffffffffffffffffffffff16815260200190815260200160002081905550508573ffffffffffffffffffffffffffffffffffffffff168773ffffffffffffffffffffffffffffffffffffffff167f8c5be1e5ebec7d5bd14f71427d1e84f3dd0314c0f7b2291e5b200ac8c7c3b92587604051610d6191906110cc565b60405180910390a350505050505050565b6004602052816000526040600020602052806000526040600020600091509150505481565b60007f8b73c3c69bb8fe3d512ecc4cf759cc79239f7b179b0ffacaa9a75d522b39400f6000604051610dc991906116ee565b60405180910390207fc89efdaa54c0f20c7adf612882df0950f5a951637e0307cdcb4c672f298b8bc64630604051602001610e08959493929190611705565b60405160208183030381529060405280519060200120905090565b8060026000828254610e359190611758565b9250508190555080600360008473ffffffffffffffffffffffffffffffffffffffff1673ffffffffffffffffffffffffffffffffffffffff168152602001908152602001600020600082825401925050819055508173ffffffffffffffffffffffffffffffffffffffff16600073ffffffffffffffffffffffffffffffffffffffff167fddf252ad1be2c89b69c2b068fc378daa952ba7f163c4a11628f55a4df523b3ef83604051610ee791906110cc565b60405180910390a35050565b600081519050919050565b600082825260208201905092915050565b60005b83811015610f2d578082015181840152602081019050610f12565b83811115610f3c576000848401525b50505050565b6000601f19601f8301169050919050565b6000610f5e82610ef3565b610f688185610efe565b9350610f78818560208601610f0f565b610f8181610f42565b840191505092915050565b60006020820190508181036000830152610fa68184610f53565b905092915050565b600080fd5b600073ffffffffffffffffffffffffffffffffffffffff82169050919050565b6000610fde82610fb3565b9050919050565b610fee81610fd3565b8114610ff957600080fd5b50565b60008135905061100b81610fe5565b92915050565b6000819050919050565b61102481611011565b811461102f57600080fd5b50565b6000813590506110418161101b565b92915050565b6000806040838503121561105e5761105d610fae565b5b600061106c85828601610ffc565b925050602061107d85828601611032565b9150509250929050565b60008115159050919050565b61109c81611087565b82525050565b60006020820190506110b76000830184611093565b92915050565b6110c681611011565b82525050565b60006020820190506110e160008301846110bd565b92915050565b600080600060608486031215611100576110ff610fae565b5b600061110e86828701610ffc565b935050602061111f86828701610ffc565b925050604061113086828701611032565b9150509250925092565b600060ff82169050919050565b6111508161113a565b82525050565b600060208201905061116b6000830184611147565b92915050565b6000819050919050565b61118481611171565b82525050565b600060208201905061119f600083018461117b565b92915050565b6000602082840312156111bb576111ba610fae565b5b60006111c984828501610ffc565b91505092915050565b600080604083850312156111e9576111e8610fae565b5b60006111f785828601611032565b925050602061120885828601610ffc565b9150509250929050565b61121b8161113a565b811461122657600080fd5b50565b60008135905061123881611212565b92915050565b61124781611171565b811461125257600080fd5b50565b6000813590506112648161123e565b92915050565b600080600080600080600060e0888a03121561128957611288610fae565b5b60006112978a828b01610ffc565b97505060206112a88a828b01610ffc565b96505060406112b98a828b01611032565b95505060606112ca8a828b01611032565b94505060806112db8a828b01611229565b93505060a06112ec8a828b01611255565b92505060c06112fd8a828b01611255565b91505092959891949750929550565b6000806040838503121561132357611322610fae565b5b600061133185828601610ffc565b925050602061134285828601610ffc565b9150509250929050565b7f4e487b7100000000000000000000000000000000000000000000000000000000600052602260045260246000fd5b6000600282049050600182168061139357607f821691505b6020821081036113a6576113a561134c565b5b50919050565b7f4e487b7100000000000000000000000000000000000000000000000000000000600052601160045260246000fd5b60006113e682611011565b91506113f183611011565b925082821015611404576114036113ac565b5b828203905092915050565b7f5045524d49545f444541444c494e455f45585049524544000000000000000000600082015250565b6000611445601783610efe565b91506114508261140f565b602082019050919050565b6000602082019050818103600083015261147481611438565b9050919050565b61148481610fd3565b82525050565b600060c08201905061149f600083018961117b565b6114ac602083018861147b565b6114b9604083018761147b565b6114c660608301866110bd565b6114d360808301856110bd565b6114e060a08301846110bd565b979650505050505050565b600081905092915050565b7f1901000000000000000000000000000000000000000000000000000000000000600082015250565b600061152c6002836114eb565b9150611537826114f6565b600282019050919050565b6000819050919050565b61155d61155882611171565b611542565b82525050565b600061156e8261151f565b915061157a828561154c565b60208201915061158a828461154c565b6020820191508190509392505050565b60006080820190506115af600083018761117b565b6115bc6020830186611147565b6115c9604083018561117b565b6115d6606083018461117b565b95945050505050565b7f494e56414c49445f5349474e4552000000000000000000000000000000000000600082015250565b6000611615600e83610efe565b9150611620826115df565b602082019050919050565b6000602082019050818103600083015261164481611608565b9050919050565b600081905092915050565b60008190508160005260206000209050919050565b600081546116788161137b565b611682818661164b565b9450600182166000811461169d57600181146116b2576116e5565b60ff19831686528115158202860193506116e5565b6116bb85611656565b60005b838110156116dd578154818901526001820191506020810190506116be565b838801955050505b50505092915050565b60006116fa828461166b565b915081905092915050565b600060a08201905061171a600083018861117b565b611727602083018761117b565b611734604083018661117b565b61174160608301856110bd565b61174e608083018461147b565b9695505050505050565b600061176382611011565b915061176e83611011565b9250827fffffffffffffffffffffffffffffffffffffffffffffffffffffffffffffffff038211156117a3576117a26113ac565b5b82820190509291505056fea26469706673582212206bf3ad42967c8b3b7592757df879414f8ad2022e8224c181ca30a93cb5251dba64736f6c634300080f0033a26469706673582212205f1bcdf7693d0d77d711e94952b633704a58b343dca95d3a8b88858bc21ece0e64736f6c634300080f0033",
  "immutableReferences": {},
  "source": "// SPDX-License-Identifier: Unlicense\r\npragma solidity ^0.8.14;\r\n\r\nimport \"./mocks/ERC20Mintable.sol\";\r\nimport \"./JanusAddOn.sol\";\r\nimport \"./interfaces/ITreasury.sol\";\r\nimport \"./interfaces/IOracle.sol\";\r\nimport \"./interfaces/IWhitelist.sol\";\r\n\r\ncontract TokenFactory {\r\n\r\n    function toAsciiString(address x) internal pure returns (string memory) {\r\n        bytes memory s = new bytes(40);\r\n        for (uint i = 0; i < 20; i++) {\r\n            bytes1 b = bytes1(uint8(uint(uint160(x)) / (2**(8*(19 - i)))));\r\n            bytes1 hi = bytes1(uint8(b) / 16);\r\n            bytes1 lo = bytes1(uint8(b) - 16 * uint8(hi));\r\n            s[2*i] = char(hi);\r\n            s[2*i+1] = char(lo);\r\n        }\r\n        return string(s);\r\n    }\r\n\r\n    function char(bytes1 b) internal pure returns (bytes1 c) {\r\n        if (uint8(b) < 10) return bytes1(uint8(b) + 0x30);\r\n        else return bytes1(uint8(b) + 0x57);\r\n    }\r\n\r\n\r\n\r\n    IWhitelist public whitelist;\r\n    ITreasury public treasury;\r\n    IOracle public oracle;\r\n    ERC20Mintable public proprietaryToken;\r\n    address[] deployedTokenAddresses;\r\n    mapping(address => bool) public deployedTokenAddressesCheck;\r\n    mapping(string => address) public deployedTokenSymbolsToAddress;\r\n    mapping(string => bool) public deployedTokenSymbolStrings;\r\n    mapping(address => uint) public tokenTotalAmount;\r\n\r\n    constructor(\r\n        address _whitelistAddress,\r\n        address _treasuryAddress,\r\n        address _proprietaryTokenAddress,\r\n        address _oracleAddress\r\n    ) {\r\n        whitelist = IWhitelist(_whitelistAddress);\r\n        proprietaryToken = ERC20Mintable(_proprietaryTokenAddress);\r\n        oracle = IOracle(_oracleAddress);\r\n        treasury = ITreasury(_treasuryAddress);\r\n    }\r\n\r\n    function getAllTokens() public view returns(address[] memory) {\r\n        return deployedTokenAddresses;\r\n    }\r\n\r\n    function addToken(address _token) public {\r\n        if(!deployedTokenAddressesCheck[_token]) {\r\n            deployedTokenAddresses.push(_token);\r\n            deployedTokenAddressesCheck[_token] = true;\r\n        }\r\n    }\r\n\r\n    event TokenDeployed(address tokenAddress, string name, string symbol, uint256 amount);\r\n\r\n    function getTotalAmountOfToken(address _token) public view returns(uint) {\r\n        return tokenTotalAmount[_token];\r\n    }\r\n\r\n    function setTotalAmountOfToken(address _token, uint _amount) public {\r\n        tokenTotalAmount[_token] = _amount;\r\n    }\r\n\r\n    function stakeToken(string memory _name, string memory _symbol, uint _amount) public returns(address) {\r\n        whitelist.checkUser(toAsciiString(msg.sender));\r\n\r\n        if (deployedTokenSymbolStrings[_symbol]) {\r\n            ERC20Mintable t = ERC20Mintable(deployedTokenSymbolsToAddress[_symbol]);\r\n            t.mint(_amount, msg.sender);\r\n            tokenTotalAmount[address(t)] += _amount;\r\n            treasury.awardProprietaryTokenForStaking(address(t), _amount, msg.sender);\r\n            return address(t);\r\n        } else {\r\n            ERC20Mintable t = new ERC20Mintable(_name, _symbol);\r\n            deployedTokenAddresses.push(address(t));\r\n            deployedTokenAddressesCheck[address(t)] = true;\r\n            deployedTokenSymbolStrings[_symbol] = true;\r\n            deployedTokenSymbolsToAddress[_symbol] = address(t);\r\n            t.mint(_amount, msg.sender);\r\n            treasury.awardProprietaryTokenForStaking(address(t), _amount, msg.sender);\r\n            return address(t);\r\n        }\r\n    }\r\n\r\n    function stakeToken1(string memory _name, string memory _symbol, uint _amount) public {\r\n        if (deployedTokenSymbolStrings[_symbol]) {\r\n            ERC20Mintable t = ERC20Mintable(deployedTokenSymbolsToAddress[_symbol]);\r\n            t.mint(_amount, msg.sender);\r\n            tokenTotalAmount[address(t)] += _amount;\r\n            treasury.awardProprietaryTokenForStaking(address(t), _amount, msg.sender);\r\n        } else {\r\n            ERC20Mintable t = new ERC20Mintable(_name, _symbol);\r\n            deployedTokenAddresses.push(address(t));\r\n            deployedTokenAddressesCheck[address(t)] = true;\r\n            deployedTokenSymbolStrings[_symbol] = true;\r\n            deployedTokenSymbolsToAddress[_symbol] = address(t);\r\n            t.mint(_amount, msg.sender);\r\n            treasury.awardProprietaryTokenForStaking(address(t), _amount, msg.sender);\r\n        }\r\n    }\r\n}\r\n",
  "sourcePath": "C:\\Users\\eu\\WebstormProjects\\Janus\\src\\contracts\\TokenFactory.sol",
  "compiler": {
    "name": "solc",
    "version": "0.8.15+commit.e14f2714.Emscripten.clang"
  },
  "schemaVersion": "3.4.7",
  "updatedAt": "2022-06-20T01:56:56.146Z",
  "networkType": "ethereum",
  "devdoc": {
    "kind": "dev",
    "methods": {},
    "version": 1
  },
  "userdoc": {
    "kind": "user",
    "methods": {},
    "version": 1
  }
}