{
  "contractName": "Treasury",
  "abi": [
    {
      "inputs": [
        {
          "internalType": "address",
          "name": "_proprietaryTokenAddress",
          "type": "address"
        },
        {
          "internalType": "address",
          "name": "_oracleAddress",
          "type": "address"
        },
        {
          "internalType": "address",
          "name": "_whitelistAddress",
          "type": "address"
        }
      ],
      "stateMutability": "nonpayable",
      "type": "constructor"
    },
    {
      "inputs": [],
      "name": "CannotReduceFurther",
      "type": "error"
    },
    {
      "inputs": [],
      "name": "NotStaking",
      "type": "error"
    },
    {
      "inputs": [],
      "name": "OnlyOwnerCanAccess",
      "type": "error"
    },
    {
      "inputs": [],
      "name": "ZeroAddress",
      "type": "error"
    },
    {
      "inputs": [],
      "name": "ZeroAmount",
      "type": "error"
    },
    {
      "inputs": [
        {
          "internalType": "address",
          "name": "",
          "type": "address"
        }
      ],
      "name": "hasStaked",
      "outputs": [
        {
          "internalType": "bool",
          "name": "",
          "type": "bool"
        }
      ],
      "stateMutability": "view",
      "type": "function",
      "constant": true
    },
    {
      "inputs": [
        {
          "internalType": "address",
          "name": "",
          "type": "address"
        }
      ],
      "name": "isStaking",
      "outputs": [
        {
          "internalType": "bool",
          "name": "",
          "type": "bool"
        }
      ],
      "stateMutability": "view",
      "type": "function",
      "constant": true
    },
    {
      "inputs": [],
      "name": "oracle",
      "outputs": [
        {
          "internalType": "contract IOracle",
          "name": "",
          "type": "address"
        }
      ],
      "stateMutability": "view",
      "type": "function",
      "constant": true
    },
    {
      "inputs": [],
      "name": "owner",
      "outputs": [
        {
          "internalType": "address",
          "name": "",
          "type": "address"
        }
      ],
      "stateMutability": "view",
      "type": "function",
      "constant": true
    },
    {
      "inputs": [],
      "name": "proprietaryToken",
      "outputs": [
        {
          "internalType": "contract ERC20Mintable",
          "name": "",
          "type": "address"
        }
      ],
      "stateMutability": "view",
      "type": "function",
      "constant": true
    },
    {
      "inputs": [
        {
          "internalType": "uint256",
          "name": "",
          "type": "uint256"
        }
      ],
      "name": "stakers",
      "outputs": [
        {
          "internalType": "address",
          "name": "",
          "type": "address"
        }
      ],
      "stateMutability": "view",
      "type": "function",
      "constant": true
    },
    {
      "inputs": [
        {
          "internalType": "address",
          "name": "",
          "type": "address"
        }
      ],
      "name": "stakingBalance",
      "outputs": [
        {
          "internalType": "uint256",
          "name": "",
          "type": "uint256"
        }
      ],
      "stateMutability": "view",
      "type": "function",
      "constant": true
    },
    {
      "inputs": [],
      "name": "whitelist",
      "outputs": [
        {
          "internalType": "contract IWhitelist",
          "name": "",
          "type": "address"
        }
      ],
      "stateMutability": "view",
      "type": "function",
      "constant": true
    },
    {
      "inputs": [],
      "name": "getAwardRate",
      "outputs": [
        {
          "internalType": "uint256",
          "name": "",
          "type": "uint256"
        }
      ],
      "stateMutability": "view",
      "type": "function",
      "constant": true
    },
    {
      "inputs": [
        {
          "internalType": "uint256",
          "name": "newRate",
          "type": "uint256"
        }
      ],
      "name": "setAwardRate",
      "outputs": [
        {
          "internalType": "uint256",
          "name": "",
          "type": "uint256"
        }
      ],
      "stateMutability": "nonpayable",
      "type": "function"
    },
    {
      "inputs": [
        {
          "internalType": "address",
          "name": "_tokenAddress",
          "type": "address"
        },
        {
          "internalType": "uint256",
          "name": "_amount",
          "type": "uint256"
        },
        {
          "internalType": "address",
          "name": "_user",
          "type": "address"
        }
      ],
      "name": "awardProprietaryTokenForStaking",
      "outputs": [
        {
          "internalType": "uint256",
          "name": "",
          "type": "uint256"
        }
      ],
      "stateMutability": "nonpayable",
      "type": "function"
    },
    {
      "inputs": [
        {
          "internalType": "address",
          "name": "_staker",
          "type": "address"
        }
      ],
      "name": "getBalanceOfStaker",
      "outputs": [
        {
          "internalType": "uint256",
          "name": "",
          "type": "uint256"
        }
      ],
      "stateMutability": "nonpayable",
      "type": "function"
    },
    {
      "inputs": [
        {
          "internalType": "address",
          "name": "_staker",
          "type": "address"
        },
        {
          "internalType": "uint256",
          "name": "_amount",
          "type": "uint256"
        }
      ],
      "name": "reduceBalanceOfStaker",
      "outputs": [
        {
          "internalType": "uint256",
          "name": "",
          "type": "uint256"
        }
      ],
      "stateMutability": "nonpayable",
      "type": "function"
    },
    {
      "inputs": [],
      "name": "getBalanceOfStaker1",
      "outputs": [
        {
          "internalType": "uint256",
          "name": "",
          "type": "uint256"
        }
      ],
      "stateMutability": "nonpayable",
      "type": "function"
    }
  ],
  "bytecode": "0x60806040523480156200001157600080fd5b5060405162001deb38038062001deb8339818101604052810190620000379190620001b6565b82600460006101000a81548173ffffffffffffffffffffffffffffffffffffffff021916908373ffffffffffffffffffffffffffffffffffffffff16021790555081600560006101000a81548173ffffffffffffffffffffffffffffffffffffffff021916908373ffffffffffffffffffffffffffffffffffffffff16021790555080600660006101000a81548173ffffffffffffffffffffffffffffffffffffffff021916908373ffffffffffffffffffffffffffffffffffffffff16021790555033600760006101000a81548173ffffffffffffffffffffffffffffffffffffffff021916908373ffffffffffffffffffffffffffffffffffffffff160217905550600060088190555050505062000212565b600080fd5b600073ffffffffffffffffffffffffffffffffffffffff82169050919050565b60006200017e8262000151565b9050919050565b620001908162000171565b81146200019c57600080fd5b50565b600081519050620001b08162000185565b92915050565b600080600060608486031215620001d257620001d16200014c565b5b6000620001e2868287016200019f565b9350506020620001f5868287016200019f565b925050604062000208868287016200019f565b9150509250925092565b611bc980620002226000396000f3fe608060405234801561001057600080fd5b50600436106100ea5760003560e01c806393e59dc11161008c578063c88d4e2611610066578063c88d4e2614610275578063c93c8f3414610293578063dfd6d394146102c3578063fd5e6dd1146102f3576100ea565b806393e59dc1146101f757806396aeec8f14610215578063b4fb935514610245576100ea565b80636d1e3674116100c85780636d1e36741461016d5780636f49712b1461018b5780637dc0d1d0146101bb5780638da5cb5b146101d9576100ea565b806345bc78ab146100ef5780634f338a161461011f5780636b56d61d1461013d575b600080fd5b61010960048036038101906101049190611292565b610323565b60405161011691906112d8565b60405180910390f35b61012761033b565b60405161013491906112d8565b60405180910390f35b6101576004803603810190610152919061131f565b610345565b60405161016491906112d8565b60405180910390f35b6101756103dd565b60405161018291906113ab565b60405180910390f35b6101a560048036038101906101a09190611292565b610403565b6040516101b291906113e1565b60405180910390f35b6101c3610423565b6040516101d0919061141d565b60405180910390f35b6101e1610449565b6040516101ee9190611447565b60405180910390f35b6101ff61046f565b60405161020c9190611483565b60405180910390f35b61022f600480360381019061022a919061149e565b610495565b60405161023c91906112d8565b60405180910390f35b61025f600480360381019061025a91906114de565b6107cc565b60405161026c91906112d8565b60405180910390f35b61027d610c2e565b60405161028a91906112d8565b60405180910390f35b6102ad60048036038101906102a89190611292565b610cd0565b6040516102ba91906113e1565b60405180910390f35b6102dd60048036038101906102d89190611292565b610cf0565b6040516102ea91906112d8565b60405180910390f35b61030d6004803603810190610308919061131f565b610ec9565b60405161031a9190611447565b60405180910390f35b60016020528060005260406000206000915090505481565b6000600854905090565b6000600760009054906101000a900473ffffffffffffffffffffffffffffffffffffffff1673ffffffffffffffffffffffffffffffffffffffff163373ffffffffffffffffffffffffffffffffffffffff16146103ce576040517fe241c8e800000000000000000000000000000000000000000000000000000000815260040160405180910390fd5b81600881905550819050919050565b600460009054906101000a900473ffffffffffffffffffffffffffffffffffffffff1681565b60036020528060005260406000206000915054906101000a900460ff1681565b600560009054906101000a900473ffffffffffffffffffffffffffffffffffffffff1681565b600760009054906101000a900473ffffffffffffffffffffffffffffffffffffffff1681565b600660009054906101000a900473ffffffffffffffffffffffffffffffffffffffff1681565b6000600660009054906101000a900473ffffffffffffffffffffffffffffffffffffffff1673ffffffffffffffffffffffffffffffffffffffff16631eb41b716104de33610f08565b6040518263ffffffff1660e01b81526004016104fa91906115ca565b6020604051808303816000875af1158015610519573d6000803e3d6000fd5b505050506040513d601f19601f8201168201806040525081019061053d9190611618565b50600073ffffffffffffffffffffffffffffffffffffffff168373ffffffffffffffffffffffffffffffffffffffff16036105a4576040517fd92e233d00000000000000000000000000000000000000000000000000000000815260040160405180910390fd5b600260008473ffffffffffffffffffffffffffffffffffffffff1673ffffffffffffffffffffffffffffffffffffffff16815260200190815260200160002060009054906101000a900460ff16610627576040517f890fec5200000000000000000000000000000000000000000000000000000000815260040160405180910390fd5b600360008473ffffffffffffffffffffffffffffffffffffffff1673ffffffffffffffffffffffffffffffffffffffff16815260200190815260200160002060009054906101000a900460ff166106aa576040517f890fec5200000000000000000000000000000000000000000000000000000000815260040160405180910390fd5b6000600160008573ffffffffffffffffffffffffffffffffffffffff1673ffffffffffffffffffffffffffffffffffffffff168152602001908152602001600020549050600083826106fc9190611674565b1015610734576040517f2b18590700000000000000000000000000000000000000000000000000000000815260040160405180910390fd5b82816107409190611674565b600160008673ffffffffffffffffffffffffffffffffffffffff1673ffffffffffffffffffffffffffffffffffffffff16815260200190815260200160002081905550600160008573ffffffffffffffffffffffffffffffffffffffff1673ffffffffffffffffffffffffffffffffffffffff1681526020019081526020016000205491505092915050565b6000600660009054906101000a900473ffffffffffffffffffffffffffffffffffffffff1673ffffffffffffffffffffffffffffffffffffffff16631eb41b7161081584610f08565b6040518263ffffffff1660e01b815260040161083191906115ca565b6020604051808303816000875af1158015610850573d6000803e3d6000fd5b505050506040513d601f19601f820116820180604052508101906108749190611618565b50600083116108af576040517f1f2a200500000000000000000000000000000000000000000000000000000000815260040160405180910390fd5b6000610960600560009054906101000a900473ffffffffffffffffffffffffffffffffffffffff1673ffffffffffffffffffffffffffffffffffffffff166366f0dbed8787876040518463ffffffff1660e01b8152600401610913939291906116a8565b6020604051808303816000875af1158015610932573d6000803e3d6000fd5b505050506040513d601f19601f8201168201806040525081019061095691906116f4565b60085460646110cb565b9050600460009054906101000a900473ffffffffffffffffffffffffffffffffffffffff1673ffffffffffffffffffffffffffffffffffffffff166394bf804d82856040518363ffffffff1660e01b81526004016109bf929190611721565b600060405180830381600087803b1580156109d957600080fd5b505af11580156109ed573d6000803e3d6000fd5b5050505080600160008573ffffffffffffffffffffffffffffffffffffffff1673ffffffffffffffffffffffffffffffffffffffff16815260200190815260200160002054610a3c919061174a565b600160008573ffffffffffffffffffffffffffffffffffffffff1673ffffffffffffffffffffffffffffffffffffffff16815260200190815260200160002081905550600260008473ffffffffffffffffffffffffffffffffffffffff1673ffffffffffffffffffffffffffffffffffffffff16815260200190815260200160002060009054906101000a900460ff16610b34576000839080600181540180825580915050600190039060005260206000200160009091909190916101000a81548173ffffffffffffffffffffffffffffffffffffffff021916908373ffffffffffffffffffffffffffffffffffffffff1602179055505b6001600360008573ffffffffffffffffffffffffffffffffffffffff1673ffffffffffffffffffffffffffffffffffffffff16815260200190815260200160002060006101000a81548160ff0219169083151502179055506001600260008573ffffffffffffffffffffffffffffffffffffffff1673ffffffffffffffffffffffffffffffffffffffff16815260200190815260200160002060006101000a81548160ff021916908315150217905550600160008473ffffffffffffffffffffffffffffffffffffffff1673ffffffffffffffffffffffffffffffffffffffff168152602001908152602001600020549150509392505050565b6000600260003373ffffffffffffffffffffffffffffffffffffffff1673ffffffffffffffffffffffffffffffffffffffff16815260200190815260200160002060009054906101000a900460ff16610c8a5760009050610ccd565b600160003373ffffffffffffffffffffffffffffffffffffffff1673ffffffffffffffffffffffffffffffffffffffff1681526020019081526020016000205490505b90565b60026020528060005260406000206000915054906101000a900460ff1681565b6000600660009054906101000a900473ffffffffffffffffffffffffffffffffffffffff1673ffffffffffffffffffffffffffffffffffffffff16631eb41b71610d3984610f08565b6040518263ffffffff1660e01b8152600401610d5591906115ca565b6020604051808303816000875af1158015610d74573d6000803e3d6000fd5b505050506040513d601f19601f82011682018060405250810190610d989190611618565b50600073ffffffffffffffffffffffffffffffffffffffff168273ffffffffffffffffffffffffffffffffffffffff1603610dff576040517fd92e233d00000000000000000000000000000000000000000000000000000000815260040160405180910390fd5b600260008373ffffffffffffffffffffffffffffffffffffffff1673ffffffffffffffffffffffffffffffffffffffff16815260200190815260200160002060009054906101000a900460ff16610e82576040517f890fec5200000000000000000000000000000000000000000000000000000000815260040160405180910390fd5b600160008373ffffffffffffffffffffffffffffffffffffffff1673ffffffffffffffffffffffffffffffffffffffff168152602001908152602001600020549050919050565b60008181548110610ed957600080fd5b906000526020600020016000915054906101000a900473ffffffffffffffffffffffffffffffffffffffff1681565b60606000602867ffffffffffffffff811115610f2757610f266117a0565b5b6040519080825280601f01601f191660200182016040528015610f595781602001600182028036833780820191505090505b50905060005b60148110156110c1576000816013610f779190611674565b6008610f8391906117cf565b6002610f8f919061195c565b8573ffffffffffffffffffffffffffffffffffffffff16610fb091906119d6565b60f81b9050600060108260f81c610fc79190611a14565b60f81b905060008160f81c6010610fde9190611a45565b8360f81c610fec9190611a80565b60f81b9050610ffa826111e9565b8585600261100891906117cf565b8151811061101957611018611ab4565b5b60200101907effffffffffffffffffffffffffffffffffffffffffffffffffffffffffffff1916908160001a905350611051816111e9565b85600186600261106191906117cf565b61106b919061174a565b8151811061107c5761107b611ab4565b5b60200101907effffffffffffffffffffffffffffffffffffffffffffffffffffffffffffff1916908160001a90535050505080806110b990611ae3565b915050610f5f565b5080915050919050565b600080826fffffffffffffffffffffffffffffffff16856110ec91906119d6565b90506000836fffffffffffffffffffffffffffffffff168661110e9190611b2b565b90506000846fffffffffffffffffffffffffffffffff168661113091906119d6565b90506000856fffffffffffffffffffffffffffffffff16876111529190611b2b565b9050856fffffffffffffffffffffffffffffffff16818461117391906117cf565b61117d91906119d6565b828461118991906117cf565b828661119591906117cf565b886fffffffffffffffffffffffffffffffff1685886111b491906117cf565b6111be91906117cf565b6111c8919061174a565b6111d2919061174a565b6111dc919061174a565b9450505050509392505050565b6000600a8260f81c60ff1610156112145760308260f81c61120a9190611b5c565b60f81b905061122a565b60578260f81c6112249190611b5c565b60f81b90505b919050565b600080fd5b600073ffffffffffffffffffffffffffffffffffffffff82169050919050565b600061125f82611234565b9050919050565b61126f81611254565b811461127a57600080fd5b50565b60008135905061128c81611266565b92915050565b6000602082840312156112a8576112a761122f565b5b60006112b68482850161127d565b91505092915050565b6000819050919050565b6112d2816112bf565b82525050565b60006020820190506112ed60008301846112c9565b92915050565b6112fc816112bf565b811461130757600080fd5b50565b600081359050611319816112f3565b92915050565b6000602082840312156113355761133461122f565b5b60006113438482850161130a565b91505092915050565b6000819050919050565b600061137161136c61136784611234565b61134c565b611234565b9050919050565b600061138382611356565b9050919050565b600061139582611378565b9050919050565b6113a58161138a565b82525050565b60006020820190506113c0600083018461139c565b92915050565b60008115159050919050565b6113db816113c6565b82525050565b60006020820190506113f660008301846113d2565b92915050565b600061140782611378565b9050919050565b611417816113fc565b82525050565b6000602082019050611432600083018461140e565b92915050565b61144181611254565b82525050565b600060208201905061145c6000830184611438565b92915050565b600061146d82611378565b9050919050565b61147d81611462565b82525050565b60006020820190506114986000830184611474565b92915050565b600080604083850312156114b5576114b461122f565b5b60006114c38582860161127d565b92505060206114d48582860161130a565b9150509250929050565b6000806000606084860312156114f7576114f661122f565b5b60006115058682870161127d565b93505060206115168682870161130a565b92505060406115278682870161127d565b9150509250925092565b600081519050919050565b600082825260208201905092915050565b60005b8381101561156b578082015181840152602081019050611550565b8381111561157a576000848401525b50505050565b6000601f19601f8301169050919050565b600061159c82611531565b6115a6818561153c565b93506115b681856020860161154d565b6115bf81611580565b840191505092915050565b600060208201905081810360008301526115e48184611591565b905092915050565b6115f5816113c6565b811461160057600080fd5b50565b600081519050611612816115ec565b92915050565b60006020828403121561162e5761162d61122f565b5b600061163c84828501611603565b91505092915050565b7f4e487b7100000000000000000000000000000000000000000000000000000000600052601160045260246000fd5b600061167f826112bf565b915061168a836112bf565b92508282101561169d5761169c611645565b5b828203905092915050565b60006060820190506116bd6000830186611438565b6116ca60208301856112c9565b6116d76040830184611438565b949350505050565b6000815190506116ee816112f3565b92915050565b60006020828403121561170a5761170961122f565b5b6000611718848285016116df565b91505092915050565b600060408201905061173660008301856112c9565b6117436020830184611438565b9392505050565b6000611755826112bf565b9150611760836112bf565b9250827fffffffffffffffffffffffffffffffffffffffffffffffffffffffffffffffff0382111561179557611794611645565b5b828201905092915050565b7f4e487b7100000000000000000000000000000000000000000000000000000000600052604160045260246000fd5b60006117da826112bf565b91506117e5836112bf565b9250817fffffffffffffffffffffffffffffffffffffffffffffffffffffffffffffffff048311821515161561181e5761181d611645565b5b828202905092915050565b60008160011c9050919050565b6000808291508390505b60018511156118805780860481111561185c5761185b611645565b5b600185161561186b5780820291505b808102905061187985611829565b9450611840565b94509492505050565b6000826118995760019050611955565b816118a75760009050611955565b81600181146118bd57600281146118c7576118f6565b6001915050611955565b60ff8411156118d9576118d8611645565b5b8360020a9150848211156118f0576118ef611645565b5b50611955565b5060208310610133831016604e8410600b841016171561192b5782820a90508381111561192657611925611645565b5b611955565b6119388484846001611836565b9250905081840481111561194f5761194e611645565b5b81810290505b9392505050565b6000611967826112bf565b9150611972836112bf565b925061199f7fffffffffffffffffffffffffffffffffffffffffffffffffffffffffffffffff8484611889565b905092915050565b7f4e487b7100000000000000000000000000000000000000000000000000000000600052601260045260246000fd5b60006119e1826112bf565b91506119ec836112bf565b9250826119fc576119fb6119a7565b5b828204905092915050565b600060ff82169050919050565b6000611a1f82611a07565b9150611a2a83611a07565b925082611a3a57611a396119a7565b5b828204905092915050565b6000611a5082611a07565b9150611a5b83611a07565b92508160ff0483118215151615611a7557611a74611645565b5b828202905092915050565b6000611a8b82611a07565b9150611a9683611a07565b925082821015611aa957611aa8611645565b5b828203905092915050565b7f4e487b7100000000000000000000000000000000000000000000000000000000600052603260045260246000fd5b6000611aee826112bf565b91507fffffffffffffffffffffffffffffffffffffffffffffffffffffffffffffffff8203611b2057611b1f611645565b5b600182019050919050565b6000611b36826112bf565b9150611b41836112bf565b925082611b5157611b506119a7565b5b828206905092915050565b6000611b6782611a07565b9150611b7283611a07565b92508260ff03821115611b8857611b87611645565b5b82820190509291505056fea2646970667358221220a0e02b1f07ed57fe195a3b271ea98ad4168358b55f3b03961959505409179c1d64736f6c634300080f0033",
  "immutableReferences": {},
  "source": "// SPDX-License-Identifier: Unlicense\r\npragma solidity ^0.8.14;\r\n\r\nimport \"./interfaces/IWhitelist.sol\";\r\nimport \"./mocks/ERC20Mintable.sol\";\r\nimport \"./interfaces/IOracle.sol\";\r\nimport \"./interfaces/ITreasury.sol\";\r\nimport \"./Oracle.sol\";\r\nimport \"./Whitelist.sol\";\r\n\r\ncontract Treasury is ITreasury {\r\n    function toAsciiString(address x) internal pure returns (string memory) {\r\n        bytes memory s = new bytes(40);\r\n        for (uint i = 0; i < 20; i++) {\r\n            bytes1 b = bytes1(uint8(uint(uint160(x)) / (2**(8*(19 - i)))));\r\n            bytes1 hi = bytes1(uint8(b) / 16);\r\n            bytes1 lo = bytes1(uint8(b) - 16 * uint8(hi));\r\n            s[2*i] = char(hi);\r\n            s[2*i+1] = char(lo);\r\n        }\r\n        return string(s);\r\n    }\r\n    function char(bytes1 b) internal pure returns (bytes1 c) {\r\n        if (uint8(b) < 10) return bytes1(uint8(b) + 0x30);\r\n        else return bytes1(uint8(b) + 0x57);\r\n    }\r\n\r\n    function mulScale (uint x, uint y, uint128 scale)\r\n    internal pure returns (uint) {\r\n        uint a = x / scale;\r\n        uint b = x % scale;\r\n        uint c = y / scale;\r\n        uint d = y % scale;\r\n\r\n        return a * c * scale + a * d + b * c + b * d / scale;\r\n    }\r\n\r\n    error OnlyOwnerCanAccess();\r\n    error ZeroAddress();\r\n    error ZeroAmount();\r\n    error NotStaking();\r\n    error CannotReduceFurther();\r\n\r\n    // holds all the stakers (aka. Liquidity Providers)\r\n    address[] public stakers;\r\n    mapping(address => uint) public stakingBalance;\r\n    mapping(address => bool) public hasStaked;\r\n    mapping(address => bool) public isStaking;\r\n    ERC20Mintable public proprietaryToken;\r\n    IOracle public oracle;\r\n    IWhitelist public whitelist;\r\n    address public owner;\r\n    uint awardRate;\r\n\r\n    constructor(address _proprietaryTokenAddress, address _oracleAddress, address _whitelistAddress) {\r\n        proprietaryToken = ERC20Mintable(_proprietaryTokenAddress);\r\n        oracle = Oracle(_oracleAddress);\r\n        whitelist = Whitelist(_whitelistAddress);\r\n        owner = msg.sender;\r\n        awardRate = 0; // 0%\r\n    }\r\n\r\n    function getAwardRate() public view returns(uint) {\r\n        return awardRate;\r\n    }\r\n\r\n    function setAwardRate(uint newRate) public returns(uint) {\r\n        if (msg.sender != owner) {\r\n            revert OnlyOwnerCanAccess();\r\n        }\r\n        awardRate = newRate;\r\n        return newRate;\r\n    }\r\n\r\n    function awardProprietaryTokenForStaking(\r\n        address _tokenAddress,\r\n        uint _amount,\r\n        address _user\r\n    ) public returns(uint) {\r\n        whitelist.checkUser(toAsciiString(_user));\r\n        if(_amount <= 0) {\r\n            revert ZeroAmount();\r\n        }\r\n\r\n        uint amount = mulScale(oracle.convertToProprietaryToken(_tokenAddress, _amount, _user), awardRate, 100);\r\n\r\n        proprietaryToken.mint(amount, _user);\r\n        stakingBalance[_user] = stakingBalance[_user] + amount;\r\n        if(!hasStaked[_user]) {\r\n            stakers.push(payable(_user));\r\n        }\r\n        isStaking[_user] = true;\r\n        hasStaked[_user] = true;\r\n        return stakingBalance[_user];\r\n    }\r\n\r\n    function getBalanceOfStaker(address _staker) public returns(uint) {\r\n        whitelist.checkUser(toAsciiString(_staker));\r\n        if (_staker == address(0)) {\r\n            revert ZeroAddress();\r\n        }\r\n        if (!hasStaked[_staker]) {\r\n            revert NotStaking();\r\n        }\r\n        return stakingBalance[_staker];\r\n    }\r\n\r\n    function reduceBalanceOfStaker(address _staker, uint _amount) public returns(uint) {\r\n        whitelist.checkUser(toAsciiString(msg.sender));\r\n        if (_staker == address(0)) {\r\n            revert ZeroAddress();\r\n        }\r\n        if (!hasStaked[_staker]) {\r\n            revert NotStaking();\r\n        }\r\n        if (!isStaking[_staker]) {\r\n            revert NotStaking();\r\n        }\r\n        uint currentBalance = stakingBalance[_staker];\r\n        if (currentBalance - _amount < 0) {\r\n            revert CannotReduceFurther();\r\n        }\r\n        stakingBalance[_staker] = currentBalance - _amount;\r\n        return stakingBalance[_staker];\r\n    }\r\n\r\n    function getBalanceOfStaker1() public returns(uint) {\r\n        if (!hasStaked[msg.sender]) {\r\n            return 0;\r\n        }\r\n        return stakingBalance[msg.sender];\r\n    }\r\n}\r\n",
  "sourcePath": "C:\\Users\\eu\\WebstormProjects\\Janus\\src\\contracts\\Treasury.sol",
  "compiler": {
    "name": "solc",
    "version": "0.8.15+commit.e14f2714.Emscripten.clang"
  },
  "schemaVersion": "3.4.7",
  "updatedAt": "2022-06-20T01:56:56.272Z",
  "networkType": "ethereum",
  "devdoc": {
    "kind": "dev",
    "methods": {},
    "version": 1
  },
  "userdoc": {
    "kind": "user",
    "methods": {},
    "version": 1
  }
}