{
  "contractName": "Whitelist",
  "abi": [
    {
      "inputs": [],
      "stateMutability": "nonpayable",
      "type": "constructor"
    },
    {
      "inputs": [],
      "name": "DataNotWhitelisted",
      "type": "error"
    },
    {
      "inputs": [],
      "name": "EmptyDataProvided",
      "type": "error"
    },
    {
      "inputs": [],
      "name": "OnlyOwnerCanWhitelist",
      "type": "error"
    },
    {
      "inputs": [],
      "name": "owner",
      "outputs": [
        {
          "internalType": "address",
          "name": "",
          "type": "address"
        }
      ],
      "stateMutability": "view",
      "type": "function",
      "constant": true
    },
    {
      "inputs": [
        {
          "internalType": "string",
          "name": "",
          "type": "string"
        }
      ],
      "name": "whitelistedAddresses",
      "outputs": [
        {
          "internalType": "bool",
          "name": "",
          "type": "bool"
        }
      ],
      "stateMutability": "view",
      "type": "function",
      "constant": true
    },
    {
      "inputs": [],
      "name": "countWhitelist",
      "outputs": [
        {
          "internalType": "uint256",
          "name": "",
          "type": "uint256"
        }
      ],
      "stateMutability": "view",
      "type": "function",
      "constant": true
    },
    {
      "inputs": [
        {
          "internalType": "string",
          "name": "_data",
          "type": "string"
        }
      ],
      "name": "checkUser",
      "outputs": [
        {
          "internalType": "bool",
          "name": "",
          "type": "bool"
        }
      ],
      "stateMutability": "view",
      "type": "function",
      "constant": true
    },
    {
      "inputs": [
        {
          "internalType": "string",
          "name": "_data",
          "type": "string"
        }
      ],
      "name": "whitelistUser",
      "outputs": [],
      "stateMutability": "nonpayable",
      "type": "function"
    }
  ],
  "bytecode": "0x608060405234801561001057600080fd5b50600060018190555033600260006101000a81548173ffffffffffffffffffffffffffffffffffffffff021916908373ffffffffffffffffffffffffffffffffffffffff1602179055506106e2806100696000396000f3fe608060405234801561001057600080fd5b50600436106100575760003560e01c80631eb41b711461005c578063779325a71461008c5780637e1cda10146100bc57806380505003146100da5780638da5cb5b146100f6575b600080fd5b61007660048036038101906100719190610487565b610114565b60405161008391906104eb565b60405180910390f35b6100a660048036038101906100a19190610487565b6101c1565b6040516100b391906104eb565b60405180910390f35b6100c46101f7565b6040516100d1919061051f565b60405180910390f35b6100f460048036038101906100ef9190610487565b610201565b005b6100fe610307565b60405161010b919061057b565b60405180910390f35b6000808290506000815103610155576040517f44001c7300000000000000000000000000000000000000000000000000000000815260040160405180910390fd5b6000836040516101659190610610565b908152602001604051809103902060009054906101000a900460ff166101b7576040517fa866432100000000000000000000000000000000000000000000000000000000815260040160405180910390fd5b6001915050919050565b6000818051602081018201805184825260208301602085012081835280955050505050506000915054906101000a900460ff1681565b6000600154905090565b600260009054906101000a900473ffffffffffffffffffffffffffffffffffffffff1673ffffffffffffffffffffffffffffffffffffffff163373ffffffffffffffffffffffffffffffffffffffff1614610288576040517fa76f225800000000000000000000000000000000000000000000000000000000815260040160405180910390fd5b6000816040516102989190610610565b908152602001604051809103902060009054906101000a900460ff166103045760016000826040516102ca9190610610565b908152602001604051809103902060006101000a81548160ff021916908315150217905550600180546102fd9190610656565b6001819055505b50565b600260009054906101000a900473ffffffffffffffffffffffffffffffffffffffff1681565b6000604051905090565b600080fd5b600080fd5b600080fd5b600080fd5b6000601f19601f8301169050919050565b7f4e487b7100000000000000000000000000000000000000000000000000000000600052604160045260246000fd5b6103948261034b565b810181811067ffffffffffffffff821117156103b3576103b261035c565b5b80604052505050565b60006103c661032d565b90506103d2828261038b565b919050565b600067ffffffffffffffff8211156103f2576103f161035c565b5b6103fb8261034b565b9050602081019050919050565b82818337600083830152505050565b600061042a610425846103d7565b6103bc565b90508281526020810184848401111561044657610445610346565b5b610451848285610408565b509392505050565b600082601f83011261046e5761046d610341565b5b813561047e848260208601610417565b91505092915050565b60006020828403121561049d5761049c610337565b5b600082013567ffffffffffffffff8111156104bb576104ba61033c565b5b6104c784828501610459565b91505092915050565b60008115159050919050565b6104e5816104d0565b82525050565b600060208201905061050060008301846104dc565b92915050565b6000819050919050565b61051981610506565b82525050565b60006020820190506105346000830184610510565b92915050565b600073ffffffffffffffffffffffffffffffffffffffff82169050919050565b60006105658261053a565b9050919050565b6105758161055a565b82525050565b6000602082019050610590600083018461056c565b92915050565b600081519050919050565b600081905092915050565b60005b838110156105ca5780820151818401526020810190506105af565b838111156105d9576000848401525b50505050565b60006105ea82610596565b6105f481856105a1565b93506106048185602086016105ac565b80840191505092915050565b600061061c82846105df565b915081905092915050565b7f4e487b7100000000000000000000000000000000000000000000000000000000600052601160045260246000fd5b600061066182610506565b915061066c83610506565b9250827fffffffffffffffffffffffffffffffffffffffffffffffffffffffffffffffff038211156106a1576106a0610627565b5b82820190509291505056fea2646970667358221220456fe6e6aece1f03a963668e79880be2596a003efd9c993be9e3df420b06524d64736f6c634300080f0033",
  "immutableReferences": {},
  "source": "// SPDX-License-Identifier: Unlicense\r\npragma solidity ^0.8.14;\r\n\r\nimport \"./interfaces/IWhitelist.sol\";\r\n\r\ncontract Whitelist is IWhitelist {\r\n    error EmptyDataProvided();\r\n    error DataNotWhitelisted();\r\n    error OnlyOwnerCanWhitelist();\r\n\r\n    // holds all addresses that are permited to interact with the add-on\r\n    mapping(string => bool) public whitelistedAddresses;\r\n    uint whitelistSize;\r\n    address public owner;\r\n\r\n    constructor() {\r\n        whitelistSize = 0;\r\n        owner = msg.sender;\r\n    }\r\n\r\n    function countWhitelist() public view returns(uint) {\r\n        return whitelistSize;\r\n    }\r\n\r\n    function checkUser(string memory _data) public view returns(bool) {\r\n        bytes memory tempEmptyStringTest = bytes(_data);\r\n        if (tempEmptyStringTest.length == 0) {\r\n            revert EmptyDataProvided();\r\n        }\r\n        if(!whitelistedAddresses[_data]) {\r\n            revert DataNotWhitelisted();\r\n        }\r\n        return true;\r\n    }\r\n\r\n    function whitelistUser(string memory _data) public {\r\n        if (msg.sender != owner) {\r\n            revert OnlyOwnerCanWhitelist();\r\n        }\r\n        if(!whitelistedAddresses[_data]) {\r\n            whitelistedAddresses[_data] = true;\r\n            whitelistSize = whitelistSize + 1;\r\n        }\r\n    }\r\n}\r\n",
  "sourcePath": "C:\\Users\\eu\\WebstormProjects\\Janus\\src\\contracts\\Whitelist.sol",
  "compiler": {
    "name": "solc",
    "version": "0.8.15+commit.e14f2714.Emscripten.clang"
  },
  "schemaVersion": "3.4.7",
  "updatedAt": "2022-06-20T01:56:56.230Z",
  "networkType": "ethereum",
  "devdoc": {
    "kind": "dev",
    "methods": {},
    "version": 1
  },
  "userdoc": {
    "kind": "user",
    "methods": {},
    "version": 1
  }
}