{
  "contractName": "ZuniswapV2Router",
  "abi": [
    {
      "inputs": [
        {
          "internalType": "address",
          "name": "factoryAddress",
          "type": "address"
        }
      ],
      "stateMutability": "nonpayable",
      "type": "constructor"
    },
    {
      "inputs": [],
      "name": "ExcessiveInputAmount",
      "type": "error"
    },
    {
      "inputs": [],
      "name": "InsufficientAAmount",
      "type": "error"
    },
    {
      "inputs": [],
      "name": "InsufficientBAmount",
      "type": "error"
    },
    {
      "inputs": [],
      "name": "InsufficientOutputAmount",
      "type": "error"
    },
    {
      "inputs": [],
      "name": "SafeTransferFailed",
      "type": "error"
    },
    {
      "inputs": [
        {
          "internalType": "address",
          "name": "tokenA",
          "type": "address"
        },
        {
          "internalType": "address",
          "name": "tokenB",
          "type": "address"
        },
        {
          "internalType": "uint256",
          "name": "amountADesired",
          "type": "uint256"
        },
        {
          "internalType": "uint256",
          "name": "amountBDesired",
          "type": "uint256"
        },
        {
          "internalType": "uint256",
          "name": "amountAMin",
          "type": "uint256"
        },
        {
          "internalType": "uint256",
          "name": "amountBMin",
          "type": "uint256"
        },
        {
          "internalType": "address",
          "name": "to",
          "type": "address"
        }
      ],
      "name": "addLiquidity",
      "outputs": [
        {
          "internalType": "uint256",
          "name": "amountA",
          "type": "uint256"
        },
        {
          "internalType": "uint256",
          "name": "amountB",
          "type": "uint256"
        },
        {
          "internalType": "uint256",
          "name": "liquidity",
          "type": "uint256"
        }
      ],
      "stateMutability": "nonpayable",
      "type": "function"
    },
    {
      "inputs": [
        {
          "internalType": "address",
          "name": "tokenA",
          "type": "address"
        },
        {
          "internalType": "address",
          "name": "tokenB",
          "type": "address"
        },
        {
          "internalType": "uint256",
          "name": "liquidity",
          "type": "uint256"
        },
        {
          "internalType": "uint256",
          "name": "amountAMin",
          "type": "uint256"
        },
        {
          "internalType": "uint256",
          "name": "amountBMin",
          "type": "uint256"
        },
        {
          "internalType": "address",
          "name": "to",
          "type": "address"
        }
      ],
      "name": "removeLiquidity",
      "outputs": [
        {
          "internalType": "uint256",
          "name": "amountA",
          "type": "uint256"
        },
        {
          "internalType": "uint256",
          "name": "amountB",
          "type": "uint256"
        }
      ],
      "stateMutability": "nonpayable",
      "type": "function"
    },
    {
      "inputs": [
        {
          "internalType": "uint256",
          "name": "amountIn",
          "type": "uint256"
        },
        {
          "internalType": "uint256",
          "name": "amountOutMin",
          "type": "uint256"
        },
        {
          "internalType": "address[]",
          "name": "path",
          "type": "address[]"
        },
        {
          "internalType": "address",
          "name": "to",
          "type": "address"
        }
      ],
      "name": "swapExactTokensForTokens",
      "outputs": [
        {
          "internalType": "uint256[]",
          "name": "amounts",
          "type": "uint256[]"
        }
      ],
      "stateMutability": "nonpayable",
      "type": "function"
    },
    {
      "inputs": [
        {
          "internalType": "uint256",
          "name": "amountOut",
          "type": "uint256"
        },
        {
          "internalType": "uint256",
          "name": "amountInMax",
          "type": "uint256"
        },
        {
          "internalType": "address[]",
          "name": "path",
          "type": "address[]"
        },
        {
          "internalType": "address",
          "name": "to",
          "type": "address"
        }
      ],
      "name": "swapTokensForExactTokens",
      "outputs": [
        {
          "internalType": "uint256[]",
          "name": "amounts",
          "type": "uint256[]"
        }
      ],
      "stateMutability": "nonpayable",
      "type": "function"
    }
  ],
  "bytecode": "0x60806040523480156200001157600080fd5b5060405162001e9038038062001e908339818101604052810190620000379190620000e8565b806000806101000a81548173ffffffffffffffffffffffffffffffffffffffff021916908373ffffffffffffffffffffffffffffffffffffffff160217905550506200011a565b600080fd5b600073ffffffffffffffffffffffffffffffffffffffff82169050919050565b6000620000b08262000083565b9050919050565b620000c281620000a3565b8114620000ce57600080fd5b50565b600081519050620000e281620000b7565b92915050565b6000602082840312156200010157620001006200007e565b5b60006200011184828501620000d1565b91505092915050565b611d66806200012a6000396000f3fe608060405234801561001057600080fd5b506004361061004c5760003560e01c806342712a6714610051578063472b43f314610081578063c0e3ee6b146100b1578063ca3d6539146100e2575b600080fd5b61006b6004803603810190610066919061112e565b610114565b6040516100789190611274565b60405180910390f35b61009b6004803603810190610096919061112e565b61033a565b6040516100a89190611274565b60405180910390f35b6100cb60048036038101906100c69190611296565b610560565b6040516100d9929190611332565b60405180910390f35b6100fc60048036038101906100f7919061135b565b610716565b60405161010b939291906113fd565b60405180910390f35b606073__ZuniswapV2Library_____________________63192128b260008054906101000a900473ffffffffffffffffffffffffffffffffffffffff168887876040518563ffffffff1660e01b81526004016101739493929190611515565b600060405180830381865af4158015610190573d6000803e3d6000fd5b505050506040513d6000823e3d601f19601f820116820180604052508101906101b991906116b9565b90508481600183516101cb9190611731565b815181106101dc576101db611765565b5b6020026020010151111561021c576040517fe1b0da4f00000000000000000000000000000000000000000000000000000000815260040160405180910390fd5b6102e58484600081811061023357610232611765565b5b90506020020160208101906102489190611794565b336102c460008054906101000a900473ffffffffffffffffffffffffffffffffffffffff168888600081811061028157610280611765565b5b90506020020160208101906102969190611794565b898960018181106102aa576102a9611765565b5b90506020020160208101906102bf9190611794565b610972565b846000815181106102d8576102d7611765565b5b60200260200101516109e4565b61033181858580806020026020016040519081016040528093929190818152602001838360200280828437600081840152601f19601f8201169050808301925050505050505084610b4f565b95945050505050565b606073__ZuniswapV2Library_____________________63bb7b9c7660008054906101000a900473ffffffffffffffffffffffffffffffffffffffff168887876040518563ffffffff1660e01b81526004016103999493929190611515565b600060405180830381865af41580156103b6573d6000803e3d6000fd5b505050506040513d6000823e3d601f19601f820116820180604052508101906103df91906116b9565b90508481600183516103f19190611731565b8151811061040257610401611765565b5b60200260200101511015610442576040517f42301c2300000000000000000000000000000000000000000000000000000000815260040160405180910390fd5b61050b8484600081811061045957610458611765565b5b905060200201602081019061046e9190611794565b336104ea60008054906101000a900473ffffffffffffffffffffffffffffffffffffffff16888860008181106104a7576104a6611765565b5b90506020020160208101906104bc9190611794565b898960018181106104d0576104cf611765565b5b90506020020160208101906104e59190611794565b610972565b846000815181106104fe576104fd611765565b5b60200260200101516109e4565b61055781858580806020026020016040519081016040528093929190818152602001838360200280828437600081840152601f19601f8201169050808301925050505050505084610b4f565b95945050505050565b600080600061059060008054906101000a900473ffffffffffffffffffffffffffffffffffffffff168a8a610972565b90508073ffffffffffffffffffffffffffffffffffffffff166323b872dd33838a6040518463ffffffff1660e01b81526004016105cf939291906117d0565b6020604051808303816000875af11580156105ee573d6000803e3d6000fd5b505050506040513d601f19601f82011682018060405250810190610612919061183f565b508073ffffffffffffffffffffffffffffffffffffffff166389afcb44856040518263ffffffff1660e01b815260040161064c919061186c565b60408051808303816000875af115801561066a573d6000803e3d6000fd5b505050506040513d601f19601f8201168201806040525081019061068e9190611887565b8093508194505050858310156106d0576040517f8dc525d100000000000000000000000000000000000000000000000000000000815260040160405180910390fd5b8483101561070a576040517fef71d09100000000000000000000000000000000000000000000000000000000815260040160405180910390fd5b50965096945050505050565b60008060008073ffffffffffffffffffffffffffffffffffffffff1660008054906101000a900473ffffffffffffffffffffffffffffffffffffffff1673ffffffffffffffffffffffffffffffffffffffff166369454b868c8c6040518363ffffffff1660e01b815260040161078d9291906118c7565b602060405180830381865afa1580156107aa573d6000803e3d6000fd5b505050506040513d601f19601f820116820180604052508101906107ce9190611905565b73ffffffffffffffffffffffffffffffffffffffff16036108895760008054906101000a900473ffffffffffffffffffffffffffffffffffffffff1673ffffffffffffffffffffffffffffffffffffffff1663c9c653968b8b6040518363ffffffff1660e01b81526004016108449291906118c7565b6020604051808303816000875af1158015610863573d6000803e3d6000fd5b505050506040513d601f19601f820116820180604052508101906108879190611905565b505b6108978a8a8a8a8a8a610d59565b809350819450505060006108cc60008054906101000a900473ffffffffffffffffffffffffffffffffffffffff168c8c610972565b90506108da8b3383876109e4565b6108e68a3383866109e4565b8073ffffffffffffffffffffffffffffffffffffffff16636a627842866040518263ffffffff1660e01b815260040161091f919061186c565b6020604051808303816000875af115801561093e573d6000803e3d6000fd5b505050506040513d601f19601f820116820180604052508101906109629190611932565b9150509750975097945050505050565b60008060006109818585610fd6565b915091508582826040516020016109999291906119a7565b604051602081830303815290604052805190602001206040516020016109c0929190611aa1565b6040516020818303038152906040528051906020012060001c925050509392505050565b6000808573ffffffffffffffffffffffffffffffffffffffff16858585604051602401610a13939291906117d0565b6040516020818303038152906040527f23b872dd000000000000000000000000000000000000000000000000000000007bffffffffffffffffffffffffffffffffffffffffffffffffffffffff19166020820180517bffffffffffffffffffffffffffffffffffffffffffffffffffffffff8381831617835250505050604051610a9d9190611b5d565b6000604051808303816000865af19150503d8060008114610ada576040519150601f19603f3d011682016040523d82523d6000602084013e610adf565b606091505b5091509150811580610b1057506000815114158015610b0f575080806020019051810190610b0d919061183f565b155b5b15610b47576040517ffb7f507900000000000000000000000000000000000000000000000000000000815260040160405180910390fd5b505050505050565b60005b60018351610b609190611731565b811015610d5357600080848381518110610b7d57610b7c611765565b5b602002602001015185600185610b939190611b74565b81518110610ba457610ba3611765565b5b6020026020010151915091506000610bbc8383610fd6565b509050600087600186610bcf9190611b74565b81518110610be057610bdf611765565b5b602002602001015190506000808373ffffffffffffffffffffffffffffffffffffffff168673ffffffffffffffffffffffffffffffffffffffff1614610c2857826000610c2c565b6000835b91509150600060028a51610c409190611731565b8810610c4c5788610c9e565b610c9d60008054906101000a900473ffffffffffffffffffffffffffffffffffffffff16878c60028c610c7f9190611b74565b81518110610c9057610c8f611765565b5b6020026020010151610972565b5b9050610ccb60008054906101000a900473ffffffffffffffffffffffffffffffffffffffff168888610972565b73ffffffffffffffffffffffffffffffffffffffff1663022c0d9f8484846040518463ffffffff1660e01b8152600401610d0793929190611c01565b600060405180830381600087803b158015610d2157600080fd5b505af1158015610d35573d6000803e3d6000fd5b50505050505050505050508080610d4b90611c4b565b915050610b52565b50505050565b60008060008073__ZuniswapV2Library_____________________633274946160008054906101000a900473ffffffffffffffffffffffffffffffffffffffff168c8c6040518463ffffffff1660e01b8152600401610dba93929190611c93565b6040805180830381865af4158015610dd6573d6000803e3d6000fd5b505050506040513d601f19601f82011682018060405250810190610dfa9190611887565b91509150600082148015610e0e5750600081145b15610e225787878094508195505050610fc9565b600073__ZuniswapV2Library_____________________63ad615dec8a85856040518463ffffffff1660e01b8152600401610e5f93929190611cca565b602060405180830381865af4158015610e7c573d6000803e3d6000fd5b505050506040513d601f19601f82011682018060405250810190610ea09190611932565b9050878111610ef157858111610ee2576040517fef71d09100000000000000000000000000000000000000000000000000000000815260040160405180910390fd5b88818095508196505050610fc7565b600073__ZuniswapV2Library_____________________63ad615dec8a85876040518463ffffffff1660e01b8152600401610f2e93929190611cca565b602060405180830381865af4158015610f4b573d6000803e3d6000fd5b505050506040513d601f19601f82011682018060405250810190610f6f9190611932565b905089811115610f8257610f81611d01565b5b878111610fbb576040517f8dc525d100000000000000000000000000000000000000000000000000000000815260040160405180910390fd5b80898096508197505050505b505b5050965096945050505050565b6000808273ffffffffffffffffffffffffffffffffffffffff168473ffffffffffffffffffffffffffffffffffffffff1610611013578284611016565b83835b915091509250929050565b6000604051905090565b600080fd5b600080fd5b6000819050919050565b61104881611035565b811461105357600080fd5b50565b6000813590506110658161103f565b92915050565b600080fd5b600080fd5b600080fd5b60008083601f8401126110905761108f61106b565b5b8235905067ffffffffffffffff8111156110ad576110ac611070565b5b6020830191508360208202830111156110c9576110c8611075565b5b9250929050565b600073ffffffffffffffffffffffffffffffffffffffff82169050919050565b60006110fb826110d0565b9050919050565b61110b816110f0565b811461111657600080fd5b50565b60008135905061112881611102565b92915050565b60008060008060006080868803121561114a5761114961102b565b5b600061115888828901611056565b955050602061116988828901611056565b945050604086013567ffffffffffffffff81111561118a57611189611030565b5b6111968882890161107a565b935093505060606111a988828901611119565b9150509295509295909350565b600081519050919050565b600082825260208201905092915050565b6000819050602082019050919050565b6111eb81611035565b82525050565b60006111fd83836111e2565b60208301905092915050565b6000602082019050919050565b6000611221826111b6565b61122b81856111c1565b9350611236836111d2565b8060005b8381101561126757815161124e88826111f1565b975061125983611209565b92505060018101905061123a565b5085935050505092915050565b6000602082019050818103600083015261128e8184611216565b905092915050565b60008060008060008060c087890312156112b3576112b261102b565b5b60006112c189828a01611119565b96505060206112d289828a01611119565b95505060406112e389828a01611056565b94505060606112f489828a01611056565b935050608061130589828a01611056565b92505060a061131689828a01611119565b9150509295509295509295565b61132c81611035565b82525050565b60006040820190506113476000830185611323565b6113546020830184611323565b9392505050565b600080600080600080600060e0888a03121561137a5761137961102b565b5b60006113888a828b01611119565b97505060206113998a828b01611119565b96505060406113aa8a828b01611056565b95505060606113bb8a828b01611056565b94505060806113cc8a828b01611056565b93505060a06113dd8a828b01611056565b92505060c06113ee8a828b01611119565b91505092959891949750929550565b60006060820190506114126000830186611323565b61141f6020830185611323565b61142c6040830184611323565b949350505050565b61143d816110f0565b82525050565b61144c81611035565b82525050565b600082825260208201905092915050565b6000819050919050565b611476816110f0565b82525050565b6000611488838361146d565b60208301905092915050565b60006114a36020840184611119565b905092915050565b6000602082019050919050565b60006114c48385611452565b93506114cf82611463565b8060005b85811015611508576114e58284611494565b6114ef888261147c565b97506114fa836114ab565b9250506001810190506114d3565b5085925050509392505050565b600060608201905061152a6000830187611434565b6115376020830186611443565b818103604083015261154a8184866114b8565b905095945050505050565b6000601f19601f8301169050919050565b7f4e487b7100000000000000000000000000000000000000000000000000000000600052604160045260246000fd5b61159e82611555565b810181811067ffffffffffffffff821117156115bd576115bc611566565b5b80604052505050565b60006115d0611021565b90506115dc8282611595565b919050565b600067ffffffffffffffff8211156115fc576115fb611566565b5b602082029050602081019050919050565b60008151905061161c8161103f565b92915050565b6000611635611630846115e1565b6115c6565b9050808382526020820190506020840283018581111561165857611657611075565b5b835b81811015611681578061166d888261160d565b84526020840193505060208101905061165a565b5050509392505050565b600082601f8301126116a05761169f61106b565b5b81516116b0848260208601611622565b91505092915050565b6000602082840312156116cf576116ce61102b565b5b600082015167ffffffffffffffff8111156116ed576116ec611030565b5b6116f98482850161168b565b91505092915050565b7f4e487b7100000000000000000000000000000000000000000000000000000000600052601160045260246000fd5b600061173c82611035565b915061174783611035565b92508282101561175a57611759611702565b5b828203905092915050565b7f4e487b7100000000000000000000000000000000000000000000000000000000600052603260045260246000fd5b6000602082840312156117aa576117a961102b565b5b60006117b884828501611119565b91505092915050565b6117ca816110f0565b82525050565b60006060820190506117e560008301866117c1565b6117f260208301856117c1565b6117ff6040830184611323565b949350505050565b60008115159050919050565b61181c81611807565b811461182757600080fd5b50565b60008151905061183981611813565b92915050565b6000602082840312156118555761185461102b565b5b60006118638482850161182a565b91505092915050565b600060208201905061188160008301846117c1565b92915050565b6000806040838503121561189e5761189d61102b565b5b60006118ac8582860161160d565b92505060206118bd8582860161160d565b9150509250929050565b60006040820190506118dc60008301856117c1565b6118e960208301846117c1565b9392505050565b6000815190506118ff81611102565b92915050565b60006020828403121561191b5761191a61102b565b5b6000611929848285016118f0565b91505092915050565b6000602082840312156119485761194761102b565b5b60006119568482850161160d565b91505092915050565b60008160601b9050919050565b60006119778261195f565b9050919050565b60006119898261196c565b9050919050565b6119a161199c826110f0565b61197e565b82525050565b60006119b38285611990565b6014820191506119c38284611990565b6014820191508190509392505050565b600081905092915050565b7fff00000000000000000000000000000000000000000000000000000000000000600082015250565b6000611a146001836119d3565b9150611a1f826119de565b600182019050919050565b6000819050919050565b6000819050919050565b611a4f611a4a82611a2a565b611a34565b82525050565b7f5c6161774801e93a0f8f0d07a85c441c3660cb025ca0ae9193931073a4d62e7a600082015250565b6000611a8b6020836119d3565b9150611a9682611a55565b602082019050919050565b6000611aac82611a07565b9150611ab88285611990565b601482019150611ac88284611a3e565b602082019150611ad782611a7e565b91508190509392505050565b600081519050919050565b600081905092915050565b60005b83811015611b17578082015181840152602081019050611afc565b83811115611b26576000848401525b50505050565b6000611b3782611ae3565b611b418185611aee565b9350611b51818560208601611af9565b80840191505092915050565b6000611b698284611b2c565b915081905092915050565b6000611b7f82611035565b9150611b8a83611035565b9250827fffffffffffffffffffffffffffffffffffffffffffffffffffffffffffffffff03821115611bbf57611bbe611702565b5b828201905092915050565b600082825260208201905092915050565b50565b6000611beb600083611bca565b9150611bf682611bdb565b600082019050919050565b6000608082019050611c166000830186611323565b611c236020830185611323565b611c3060408301846117c1565b8181036060830152611c4181611bde565b9050949350505050565b6000611c5682611035565b91507fffffffffffffffffffffffffffffffffffffffffffffffffffffffffffffffff8203611c8857611c87611702565b5b600182019050919050565b6000606082019050611ca86000830186611434565b611cb56020830185611434565b611cc26040830184611434565b949350505050565b6000606082019050611cdf6000830186611443565b611cec6020830185611443565b611cf96040830184611443565b949350505050565b7f4e487b7100000000000000000000000000000000000000000000000000000000600052600160045260246000fdfea26469706673582212200ed804ab5fa12bd40306473d832f5b99b114b73873864640183ab02de6cf596564736f6c634300080e0033",
  "immutableReferences": {},
  "source": "// SPDX-License-Identifier: Unlicense\r\npragma solidity ^0.8.10;\r\n\r\nimport \"./interfaces/IZuniswapV2Factory.sol\";\r\nimport \"./interfaces/IZuniswapV2Pair.sol\";\r\nimport \"./ZuniswapV2Library.sol\";\r\n\r\ncontract ZuniswapV2Router {\r\n    error ExcessiveInputAmount();\r\n    error InsufficientAAmount();\r\n    error InsufficientBAmount();\r\n    error InsufficientOutputAmount();\r\n    error SafeTransferFailed();\r\n\r\n    IZuniswapV2Factory factory;\r\n\r\n    constructor(address factoryAddress) {\r\n        factory = IZuniswapV2Factory(factoryAddress);\r\n    }\r\n\r\n    function addLiquidity(\r\n        address tokenA,\r\n        address tokenB,\r\n        uint256 amountADesired,\r\n        uint256 amountBDesired,\r\n        uint256 amountAMin,\r\n        uint256 amountBMin,\r\n        address to\r\n    )\r\n        public\r\n        returns (\r\n            uint256 amountA,\r\n            uint256 amountB,\r\n            uint256 liquidity\r\n        )\r\n    {\r\n        if (factory.pairs(tokenA, tokenB) == address(0)) {\r\n            factory.createPair(tokenA, tokenB);\r\n        }\r\n\r\n        (amountA, amountB) = _calculateLiquidity(\r\n            tokenA,\r\n            tokenB,\r\n            amountADesired,\r\n            amountBDesired,\r\n            amountAMin,\r\n            amountBMin\r\n        );\r\n        address pairAddress = ZuniswapV2Library.pairFor(\r\n            address(factory),\r\n            tokenA,\r\n            tokenB\r\n        );\r\n        _safeTransferFrom(tokenA, msg.sender, pairAddress, amountA);\r\n        _safeTransferFrom(tokenB, msg.sender, pairAddress, amountB);\r\n        liquidity = IZuniswapV2Pair(pairAddress).mint(to);\r\n    }\r\n\r\n    function removeLiquidity(\r\n        address tokenA,\r\n        address tokenB,\r\n        uint256 liquidity,\r\n        uint256 amountAMin,\r\n        uint256 amountBMin,\r\n        address to\r\n    ) public returns (uint256 amountA, uint256 amountB) {\r\n        address pair = ZuniswapV2Library.pairFor(\r\n            address(factory),\r\n            tokenA,\r\n            tokenB\r\n        );\r\n        IZuniswapV2Pair(pair).transferFrom(msg.sender, pair, liquidity);\r\n        (amountA, amountB) = IZuniswapV2Pair(pair).burn(to);\r\n        if (amountA < amountAMin) revert InsufficientAAmount();\r\n        if (amountA < amountBMin) revert InsufficientBAmount();\r\n    }\r\n\r\n    function swapExactTokensForTokens(\r\n        uint256 amountIn,\r\n        uint256 amountOutMin,\r\n        address[] calldata path,\r\n        address to\r\n    ) public returns (uint256[] memory amounts) {\r\n        amounts = ZuniswapV2Library.getAmountsOut(\r\n            address(factory),\r\n            amountIn,\r\n            path\r\n        );\r\n        if (amounts[amounts.length - 1] < amountOutMin)\r\n            revert InsufficientOutputAmount();\r\n        _safeTransferFrom(\r\n            path[0],\r\n            msg.sender,\r\n            ZuniswapV2Library.pairFor(address(factory), path[0], path[1]),\r\n            amounts[0]\r\n        );\r\n        _swap(amounts, path, to);\r\n    }\r\n\r\n    function swapTokensForExactTokens(\r\n        uint256 amountOut,\r\n        uint256 amountInMax,\r\n        address[] calldata path,\r\n        address to\r\n    ) public returns (uint256[] memory amounts) {\r\n        amounts = ZuniswapV2Library.getAmountsIn(\r\n            address(factory),\r\n            amountOut,\r\n            path\r\n        );\r\n        if (amounts[amounts.length - 1] > amountInMax)\r\n            revert ExcessiveInputAmount();\r\n        _safeTransferFrom(\r\n            path[0],\r\n            msg.sender,\r\n            ZuniswapV2Library.pairFor(address(factory), path[0], path[1]),\r\n            amounts[0]\r\n        );\r\n        _swap(amounts, path, to);\r\n    }\r\n\r\n    //\r\n    //\r\n    //\r\n    //  PRIVATE\r\n    //\r\n    //\r\n    //\r\n    function _swap(\r\n        uint256[] memory amounts,\r\n        address[] memory path,\r\n        address to_\r\n    ) internal {\r\n        for (uint256 i; i < path.length - 1; i++) {\r\n            (address input, address output) = (path[i], path[i + 1]);\r\n            (address token0, ) = ZuniswapV2Library.sortTokens(input, output);\r\n            uint256 amountOut = amounts[i + 1];\r\n            (uint256 amount0Out, uint256 amount1Out) = input == token0\r\n                ? (uint256(0), amountOut)\r\n                : (amountOut, uint256(0));\r\n            address to = i < path.length - 2\r\n                ? ZuniswapV2Library.pairFor(\r\n                    address(factory),\r\n                    output,\r\n                    path[i + 2]\r\n                )\r\n                : to_;\r\n            IZuniswapV2Pair(\r\n                ZuniswapV2Library.pairFor(address(factory), input, output)\r\n            ).swap(amount0Out, amount1Out, to, \"\");\r\n        }\r\n    }\r\n\r\n    function _calculateLiquidity(\r\n        address tokenA,\r\n        address tokenB,\r\n        uint256 amountADesired,\r\n        uint256 amountBDesired,\r\n        uint256 amountAMin,\r\n        uint256 amountBMin\r\n    ) internal returns (uint256 amountA, uint256 amountB) {\r\n        (uint256 reserveA, uint256 reserveB) = ZuniswapV2Library.getReserves(\r\n            address(factory),\r\n            tokenA,\r\n            tokenB\r\n        );\r\n\r\n        if (reserveA == 0 && reserveB == 0) {\r\n            (amountA, amountB) = (amountADesired, amountBDesired);\r\n        } else {\r\n            uint256 amountBOptimal = ZuniswapV2Library.quote(\r\n                amountADesired,\r\n                reserveA,\r\n                reserveB\r\n            );\r\n            if (amountBOptimal <= amountBDesired) {\r\n                if (amountBOptimal <= amountBMin) revert InsufficientBAmount();\r\n                (amountA, amountB) = (amountADesired, amountBOptimal);\r\n            } else {\r\n                uint256 amountAOptimal = ZuniswapV2Library.quote(\r\n                    amountBDesired,\r\n                    reserveB,\r\n                    reserveA\r\n                );\r\n                assert(amountAOptimal <= amountADesired);\r\n\r\n                if (amountAOptimal <= amountAMin) revert InsufficientAAmount();\r\n                (amountA, amountB) = (amountAOptimal, amountBDesired);\r\n            }\r\n        }\r\n    }\r\n\r\n    function _safeTransferFrom(\r\n        address token,\r\n        address from,\r\n        address to,\r\n        uint256 value\r\n    ) private {\r\n        (bool success, bytes memory data) = token.call(\r\n            abi.encodeWithSignature(\r\n                \"transferFrom(address,address,uint256)\",\r\n                from,\r\n                to,\r\n                value\r\n            )\r\n        );\r\n        if (!success || (data.length != 0 && !abi.decode(data, (bool))))\r\n            revert SafeTransferFailed();\r\n    }\r\n}\r\n",
  "sourcePath": "C:\\Users\\eu\\WebstormProjects\\zuniswapv2\\src\\contracts\\ZuniswapV2Router.sol",
  "compiler": {
    "name": "solc",
    "version": "0.8.14+commit.80d49f37.Emscripten.clang"
  },
  "schemaVersion": "3.4.7",
  "updatedAt": "2022-06-06T14:37:52.752Z",
  "devdoc": {
    "kind": "dev",
    "methods": {},
    "version": 1
  },
  "userdoc": {
    "kind": "user",
    "methods": {},
    "version": 1
  }
}