{
  "contractName": "ZuniswapV2Library",
  "abi": [
    {
      "inputs": [],
      "name": "InsufficientAmount",
      "type": "error"
    },
    {
      "inputs": [],
      "name": "InsufficientLiquidity",
      "type": "error"
    },
    {
      "inputs": [],
      "name": "InvalidPath",
      "type": "error"
    },
    {
      "inputs": [
        {
          "internalType": "uint256",
          "name": "amountIn",
          "type": "uint256"
        },
        {
          "internalType": "uint256",
          "name": "reserveIn",
          "type": "uint256"
        },
        {
          "internalType": "uint256",
          "name": "reserveOut",
          "type": "uint256"
        }
      ],
      "name": "quote",
      "outputs": [
        {
          "internalType": "uint256",
          "name": "amountOut",
          "type": "uint256"
        }
      ],
      "stateMutability": "pure",
      "type": "function"
    },
    {
      "inputs": [
        {
          "internalType": "uint256",
          "name": "amountIn",
          "type": "uint256"
        },
        {
          "internalType": "uint256",
          "name": "reserveIn",
          "type": "uint256"
        },
        {
          "internalType": "uint256",
          "name": "reserveOut",
          "type": "uint256"
        }
      ],
      "name": "getAmountOut",
      "outputs": [
        {
          "internalType": "uint256",
          "name": "",
          "type": "uint256"
        }
      ],
      "stateMutability": "pure",
      "type": "function"
    },
    {
      "inputs": [
        {
          "internalType": "uint256",
          "name": "amountOut",
          "type": "uint256"
        },
        {
          "internalType": "uint256",
          "name": "reserveIn",
          "type": "uint256"
        },
        {
          "internalType": "uint256",
          "name": "reserveOut",
          "type": "uint256"
        }
      ],
      "name": "getAmountIn",
      "outputs": [
        {
          "internalType": "uint256",
          "name": "",
          "type": "uint256"
        }
      ],
      "stateMutability": "pure",
      "type": "function"
    }
  ],
  "bytecode": "0x6111e0610053600b82828239805160001a607314610046577f4e487b7100000000000000000000000000000000000000000000000000000000600052600060045260246000fd5b30600052607381538281f3fe730000000000000000000000000000000000000000301460806040526004361061006c5760003560e01c8063054d50d414610071578063192128b2146100a157806332749461146100de57806385f8c2591461011c578063ad615dec1461014c578063bb7b9c761461017c575b600080fd5b61008b6004803603810190610086919061093f565b6101b9565b60405161009891906109a1565b60405180910390f35b8180156100ad57600080fd5b506100c860048036038101906100c39190610b73565b610291565b6040516100d59190610ca0565b60405180910390f35b8180156100ea57600080fd5b5061010560048036038101906101009190610cc2565b610429565b604051610113929190610d15565b60405180910390f35b6101366004803603810190610131919061093f565b610531565b60405161014391906109a1565b60405180910390f35b6101666004803603810190610161919061093f565b61060f565b60405161017391906109a1565b60405180910390f35b81801561018857600080fd5b506101a3600480360381019061019e9190610b73565b6106b0565b6040516101b09190610ca0565b60405180910390f35b60008084036101f4576040517f5945ea5600000000000000000000000000000000000000000000000000000000815260040160405180910390fd5b60008314806102035750600082145b1561023a576040517fbb55fd2700000000000000000000000000000000000000000000000000000000815260040160405180910390fd5b60006103e58561024a9190610d6d565b90506000838261025a9190610d6d565b90506000826103e88761026d9190610d6d565b6102779190610dc7565b905080826102859190610e4c565b93505050509392505050565b60606002825110156102cf576040517f20db826700000000000000000000000000000000000000000000000000000000815260040160405180910390fd5b6000825167ffffffffffffffff8111156102ec576102eb610a30565b5b60405190808252806020026020018201604052801561031a5781602001602082028036833780820191505090505b50905083816001835161032d9190610e7d565b8151811061033e5761033d610eb1565b5b60200260200101818152505060006001845161035a9190610e7d565b90505b600081111561041d576000806103b4888760018661037b9190610e7d565b8151811061038c5761038b610eb1565b5b60200260200101518886815181106103a7576103a6610eb1565b5b6020026020010151610429565b915091506103dd8484815181106103ce576103cd610eb1565b5b60200260200101518383610531565b846001856103eb9190610e7d565b815181106103fc576103fb610eb1565b5b6020026020010181815250505050808061041590610ee0565b91505061035d565b50809150509392505050565b6000806000806104398686610838565b9150915060008061044b898585610883565b73ffffffffffffffffffffffffffffffffffffffff16630902f1ac6040518163ffffffff1660e01b81526004016060604051808303816000875af1158015610497573d6000803e3d6000fd5b505050506040513d601f19601f820116820180604052508101906104bb9190610f8b565b506dffffffffffffffffffffffffffff1691506dffffffffffffffffffffffffffff1691508373ffffffffffffffffffffffffffffffffffffffff168873ffffffffffffffffffffffffffffffffffffffff161461051a57808261051d565b81815b809650819750505050505050935093915050565b600080840361056c576040517f5945ea5600000000000000000000000000000000000000000000000000000000815260040160405180910390fd5b600083148061057b5750600082145b156105b2576040517fbb55fd2700000000000000000000000000000000000000000000000000000000815260040160405180910390fd5b60006103e885856105c39190610d6d565b6105cd9190610d6d565b905060006103e586856105e09190610e7d565b6105ea9190610d6d565b9050600181836105fa9190610e4c565b6106049190610dc7565b925050509392505050565b600080840361064a576040517f5945ea5600000000000000000000000000000000000000000000000000000000815260040160405180910390fd5b60008314806106595750600082145b15610690576040517fbb55fd2700000000000000000000000000000000000000000000000000000000815260040160405180910390fd5b82828561069d9190610d6d565b6106a79190610e4c565b90509392505050565b60606002825110156106ee576040517f20db826700000000000000000000000000000000000000000000000000000000815260040160405180910390fd5b6000825167ffffffffffffffff81111561070b5761070a610a30565b5b6040519080825280602002602001820160405280156107395781602001602082028036833780820191505090505b509050838160008151811061075157610750610eb1565b5b60200260200101818152505060005b6001845161076e9190610e7d565b81101561082c576000806107c38887858151811061078f5761078e610eb1565b5b6020026020010151886001876107a59190610dc7565b815181106107b6576107b5610eb1565b5b6020026020010151610429565b915091506107ec8484815181106107dd576107dc610eb1565b5b602002602001015183836101b9565b846001856107fa9190610dc7565b8151811061080b5761080a610eb1565b5b6020026020010181815250505050808061082490610fde565b915050610760565b50809150509392505050565b6000808273ffffffffffffffffffffffffffffffffffffffff168473ffffffffffffffffffffffffffffffffffffffff1610610875578284610878565b83835b915091509250929050565b60008060006108928585610838565b915091508582826040516020016108aa92919061106e565b604051602081830303815290604052805190602001206040516020016108d1929190611168565b6040516020818303038152906040528051906020012060001c925050509392505050565b6000604051905090565b600080fd5b600080fd5b6000819050919050565b61091c81610909565b811461092757600080fd5b50565b60008135905061093981610913565b92915050565b600080600060608486031215610958576109576108ff565b5b60006109668682870161092a565b93505060206109778682870161092a565b92505060406109888682870161092a565b9150509250925092565b61099b81610909565b82525050565b60006020820190506109b66000830184610992565b92915050565b600073ffffffffffffffffffffffffffffffffffffffff82169050919050565b60006109e7826109bc565b9050919050565b6109f7816109dc565b8114610a0257600080fd5b50565b600081359050610a14816109ee565b92915050565b600080fd5b6000601f19601f8301169050919050565b7f4e487b7100000000000000000000000000000000000000000000000000000000600052604160045260246000fd5b610a6882610a1f565b810181811067ffffffffffffffff82111715610a8757610a86610a30565b5b80604052505050565b6000610a9a6108f5565b9050610aa68282610a5f565b919050565b600067ffffffffffffffff821115610ac657610ac5610a30565b5b602082029050602081019050919050565b600080fd5b6000610aef610aea84610aab565b610a90565b90508083825260208201905060208402830185811115610b1257610b11610ad7565b5b835b81811015610b3b5780610b278882610a05565b845260208401935050602081019050610b14565b5050509392505050565b600082601f830112610b5a57610b59610a1a565b5b8135610b6a848260208601610adc565b91505092915050565b600080600060608486031215610b8c57610b8b6108ff565b5b6000610b9a86828701610a05565b9350506020610bab8682870161092a565b925050604084013567ffffffffffffffff811115610bcc57610bcb610904565b5b610bd886828701610b45565b9150509250925092565b600081519050919050565b600082825260208201905092915050565b6000819050602082019050919050565b610c1781610909565b82525050565b6000610c298383610c0e565b60208301905092915050565b6000602082019050919050565b6000610c4d82610be2565b610c578185610bed565b9350610c6283610bfe565b8060005b83811015610c93578151610c7a8882610c1d565b9750610c8583610c35565b925050600181019050610c66565b5085935050505092915050565b60006020820190508181036000830152610cba8184610c42565b905092915050565b600080600060608486031215610cdb57610cda6108ff565b5b6000610ce986828701610a05565b9350506020610cfa86828701610a05565b9250506040610d0b86828701610a05565b9150509250925092565b6000604082019050610d2a6000830185610992565b610d376020830184610992565b9392505050565b7f4e487b7100000000000000000000000000000000000000000000000000000000600052601160045260246000fd5b6000610d7882610909565b9150610d8383610909565b9250817fffffffffffffffffffffffffffffffffffffffffffffffffffffffffffffffff0483118215151615610dbc57610dbb610d3e565b5b828202905092915050565b6000610dd282610909565b9150610ddd83610909565b9250827fffffffffffffffffffffffffffffffffffffffffffffffffffffffffffffffff03821115610e1257610e11610d3e565b5b828201905092915050565b7f4e487b7100000000000000000000000000000000000000000000000000000000600052601260045260246000fd5b6000610e5782610909565b9150610e6283610909565b925082610e7257610e71610e1d565b5b828204905092915050565b6000610e8882610909565b9150610e9383610909565b925082821015610ea657610ea5610d3e565b5b828203905092915050565b7f4e487b7100000000000000000000000000000000000000000000000000000000600052603260045260246000fd5b6000610eeb82610909565b915060008203610efe57610efd610d3e565b5b600182039050919050565b60006dffffffffffffffffffffffffffff82169050919050565b610f2c81610f09565b8114610f3757600080fd5b50565b600081519050610f4981610f23565b92915050565b600063ffffffff82169050919050565b610f6881610f4f565b8114610f7357600080fd5b50565b600081519050610f8581610f5f565b92915050565b600080600060608486031215610fa457610fa36108ff565b5b6000610fb286828701610f3a565b9350506020610fc386828701610f3a565b9250506040610fd486828701610f76565b9150509250925092565b6000610fe982610909565b91507fffffffffffffffffffffffffffffffffffffffffffffffffffffffffffffffff820361101b5761101a610d3e565b5b600182019050919050565b60008160601b9050919050565b600061103e82611026565b9050919050565b600061105082611033565b9050919050565b611068611063826109dc565b611045565b82525050565b600061107a8285611057565b60148201915061108a8284611057565b6014820191508190509392505050565b600081905092915050565b7fff00000000000000000000000000000000000000000000000000000000000000600082015250565b60006110db60018361109a565b91506110e6826110a5565b600182019050919050565b6000819050919050565b6000819050919050565b611116611111826110f1565b6110fb565b82525050565b7f5c6161774801e93a0f8f0d07a85c441c3660cb025ca0ae9193931073a4d62e7a600082015250565b600061115260208361109a565b915061115d8261111c565b602082019050919050565b6000611173826110ce565b915061117f8285611057565b60148201915061118f8284611105565b60208201915061119e82611145565b9150819050939250505056fea26469706673582212200b6fa76af3ed44bd737be781fe9e0c248ed16b48c1f10c4e4a92fcc19578a1a164736f6c634300080e0033",
  "immutableReferences": {},
  "source": "// SPDX-License-Identifier: Unlicense\r\npragma solidity ^0.8.10;\r\n\r\nimport \"./interfaces/IZuniswapV2Factory.sol\";\r\nimport \"./interfaces/IZuniswapV2Pair.sol\";\r\n\r\nlibrary ZuniswapV2Library {\r\n    error InsufficientAmount();\r\n    error InsufficientLiquidity();\r\n    error InvalidPath();\r\n\r\n    function getReserves(\r\n        address factoryAddress,\r\n        address tokenA,\r\n        address tokenB\r\n    ) public returns (uint256 reserveA, uint256 reserveB) {\r\n        (address token0, address token1) = sortTokens(tokenA, tokenB);\r\n        (uint256 reserve0, uint256 reserve1, ) = IZuniswapV2Pair(\r\n            pairFor(factoryAddress, token0, token1)\r\n        ).getReserves();\r\n        (reserveA, reserveB) = tokenA == token0\r\n            ? (reserve0, reserve1)\r\n            : (reserve1, reserve0);\r\n    }\r\n\r\n    function quote(\r\n        uint256 amountIn,\r\n        uint256 reserveIn,\r\n        uint256 reserveOut\r\n    ) public pure returns (uint256 amountOut) {\r\n        if (amountIn == 0) revert InsufficientAmount();\r\n        if (reserveIn == 0 || reserveOut == 0) revert InsufficientLiquidity();\r\n\r\n        return (amountIn * reserveOut) / reserveIn;\r\n    }\r\n\r\n    function sortTokens(address tokenA, address tokenB)\r\n        internal\r\n        pure\r\n        returns (address token0, address token1)\r\n    {\r\n        return tokenA < tokenB ? (tokenA, tokenB) : (tokenB, tokenA);\r\n    }\r\n\r\n    function pairFor(\r\n        address factoryAddress,\r\n        address tokenA,\r\n        address tokenB\r\n    ) internal pure returns (address pairAddress) {\r\n        (address token0, address token1) = sortTokens(tokenA, tokenB);\r\n        pairAddress = address(\r\n            uint160(\r\n                uint256(\r\n                    keccak256(\r\n                        abi.encodePacked(\r\n                            hex\"ff\",\r\n                            factoryAddress,\r\n                            keccak256(abi.encodePacked(token0, token1)),\r\n                            hex\"5c6161774801e93a0f8f0d07a85c441c3660cb025ca0ae9193931073a4d62e7a\"\r\n                        )\r\n                    )\r\n                )\r\n            )\r\n        );\r\n    }\r\n\r\n    function getAmountOut(\r\n        uint256 amountIn,\r\n        uint256 reserveIn,\r\n        uint256 reserveOut\r\n    ) public pure returns (uint256) {\r\n        if (amountIn == 0) revert InsufficientAmount();\r\n        if (reserveIn == 0 || reserveOut == 0) revert InsufficientLiquidity();\r\n\r\n        uint256 amountInWithFee = amountIn * 997;\r\n        uint256 numerator = amountInWithFee * reserveOut;\r\n        uint256 denominator = (reserveIn * 1000) + amountInWithFee;\r\n\r\n        return numerator / denominator;\r\n    }\r\n\r\n    function getAmountsOut(\r\n        address factory,\r\n        uint256 amountIn,\r\n        address[] memory path\r\n    ) public returns (uint256[] memory) {\r\n        if (path.length < 2) revert InvalidPath();\r\n        uint256[] memory amounts = new uint256[](path.length);\r\n        amounts[0] = amountIn;\r\n\r\n        for (uint256 i; i < path.length - 1; i++) {\r\n            (uint256 reserve0, uint256 reserve1) = getReserves(\r\n                factory,\r\n                path[i],\r\n                path[i + 1]\r\n            );\r\n            amounts[i + 1] = getAmountOut(amounts[i], reserve0, reserve1);\r\n        }\r\n\r\n        return amounts;\r\n    }\r\n\r\n    function getAmountIn(\r\n        uint256 amountOut,\r\n        uint256 reserveIn,\r\n        uint256 reserveOut\r\n    ) public pure returns (uint256) {\r\n        if (amountOut == 0) revert InsufficientAmount();\r\n        if (reserveIn == 0 || reserveOut == 0) revert InsufficientLiquidity();\r\n\r\n        uint256 numerator = reserveIn * amountOut * 1000;\r\n        uint256 denominator = (reserveOut - amountOut) * 997;\r\n\r\n        return (numerator / denominator) + 1;\r\n    }\r\n\r\n    function getAmountsIn(\r\n        address factory,\r\n        uint256 amountOut,\r\n        address[] memory path\r\n    ) public returns (uint256[] memory) {\r\n        if (path.length < 2) revert InvalidPath();\r\n        uint256[] memory amounts = new uint256[](path.length);\r\n        amounts[amounts.length - 1] = amountOut;\r\n\r\n        for (uint256 i = path.length - 1; i > 0; i--) {\r\n            (uint256 reserve0, uint256 reserve1) = getReserves(\r\n                factory,\r\n                path[i - 1],\r\n                path[i]\r\n            );\r\n            amounts[i - 1] = getAmountIn(amounts[i], reserve0, reserve1);\r\n        }\r\n\r\n        return amounts;\r\n    }\r\n}\r\n",
  "sourcePath": "C:\\Users\\eu\\WebstormProjects\\zuniswapv2\\src\\contracts\\ZuniswapV2Library.sol",
  "compiler": {
    "name": "solc",
    "version": "0.8.14+commit.80d49f37.Emscripten.clang"
  },
  "schemaVersion": "3.4.7",
  "updatedAt": "2022-06-06T14:37:52.602Z",
  "devdoc": {
    "kind": "dev",
    "methods": {},
    "version": 1
  },
  "userdoc": {
    "kind": "user",
    "methods": {},
    "version": 1
  }
}