{
  "contractName": "ZuniswapV2Pair",
  "abi": [
    {
      "inputs": [],
      "stateMutability": "nonpayable",
      "type": "constructor"
    },
    {
      "inputs": [],
      "name": "AlreadyInitialized",
      "type": "error"
    },
    {
      "inputs": [],
      "name": "BalanceOverflow",
      "type": "error"
    },
    {
      "inputs": [],
      "name": "InsufficientInputAmount",
      "type": "error"
    },
    {
      "inputs": [],
      "name": "InsufficientLiquidity",
      "type": "error"
    },
    {
      "inputs": [],
      "name": "InsufficientLiquidityBurned",
      "type": "error"
    },
    {
      "inputs": [],
      "name": "InsufficientLiquidityMinted",
      "type": "error"
    },
    {
      "inputs": [],
      "name": "InsufficientOutputAmount",
      "type": "error"
    },
    {
      "inputs": [],
      "name": "InvalidK",
      "type": "error"
    },
    {
      "inputs": [],
      "name": "TransferFailed",
      "type": "error"
    },
    {
      "anonymous": false,
      "inputs": [
        {
          "indexed": true,
          "internalType": "address",
          "name": "owner",
          "type": "address"
        },
        {
          "indexed": true,
          "internalType": "address",
          "name": "spender",
          "type": "address"
        },
        {
          "indexed": false,
          "internalType": "uint256",
          "name": "amount",
          "type": "uint256"
        }
      ],
      "name": "Approval",
      "type": "event"
    },
    {
      "anonymous": false,
      "inputs": [
        {
          "indexed": true,
          "internalType": "address",
          "name": "sender",
          "type": "address"
        },
        {
          "indexed": false,
          "internalType": "uint256",
          "name": "amount0",
          "type": "uint256"
        },
        {
          "indexed": false,
          "internalType": "uint256",
          "name": "amount1",
          "type": "uint256"
        },
        {
          "indexed": false,
          "internalType": "address",
          "name": "to",
          "type": "address"
        }
      ],
      "name": "Burn",
      "type": "event"
    },
    {
      "anonymous": false,
      "inputs": [
        {
          "indexed": true,
          "internalType": "address",
          "name": "sender",
          "type": "address"
        },
        {
          "indexed": false,
          "internalType": "uint256",
          "name": "amount0",
          "type": "uint256"
        },
        {
          "indexed": false,
          "internalType": "uint256",
          "name": "amount1",
          "type": "uint256"
        }
      ],
      "name": "Mint",
      "type": "event"
    },
    {
      "anonymous": false,
      "inputs": [
        {
          "indexed": true,
          "internalType": "address",
          "name": "sender",
          "type": "address"
        },
        {
          "indexed": false,
          "internalType": "uint256",
          "name": "amount0Out",
          "type": "uint256"
        },
        {
          "indexed": false,
          "internalType": "uint256",
          "name": "amount1Out",
          "type": "uint256"
        },
        {
          "indexed": true,
          "internalType": "address",
          "name": "to",
          "type": "address"
        }
      ],
      "name": "Swap",
      "type": "event"
    },
    {
      "anonymous": false,
      "inputs": [
        {
          "indexed": false,
          "internalType": "uint256",
          "name": "reserve0",
          "type": "uint256"
        },
        {
          "indexed": false,
          "internalType": "uint256",
          "name": "reserve1",
          "type": "uint256"
        }
      ],
      "name": "Sync",
      "type": "event"
    },
    {
      "anonymous": false,
      "inputs": [
        {
          "indexed": true,
          "internalType": "address",
          "name": "from",
          "type": "address"
        },
        {
          "indexed": true,
          "internalType": "address",
          "name": "to",
          "type": "address"
        },
        {
          "indexed": false,
          "internalType": "uint256",
          "name": "amount",
          "type": "uint256"
        }
      ],
      "name": "Transfer",
      "type": "event"
    },
    {
      "inputs": [],
      "name": "DOMAIN_SEPARATOR",
      "outputs": [
        {
          "internalType": "bytes32",
          "name": "",
          "type": "bytes32"
        }
      ],
      "stateMutability": "view",
      "type": "function",
      "constant": true
    },
    {
      "inputs": [
        {
          "internalType": "address",
          "name": "",
          "type": "address"
        },
        {
          "internalType": "address",
          "name": "",
          "type": "address"
        }
      ],
      "name": "allowance",
      "outputs": [
        {
          "internalType": "uint256",
          "name": "",
          "type": "uint256"
        }
      ],
      "stateMutability": "view",
      "type": "function",
      "constant": true
    },
    {
      "inputs": [
        {
          "internalType": "address",
          "name": "spender",
          "type": "address"
        },
        {
          "internalType": "uint256",
          "name": "amount",
          "type": "uint256"
        }
      ],
      "name": "approve",
      "outputs": [
        {
          "internalType": "bool",
          "name": "",
          "type": "bool"
        }
      ],
      "stateMutability": "nonpayable",
      "type": "function"
    },
    {
      "inputs": [
        {
          "internalType": "address",
          "name": "",
          "type": "address"
        }
      ],
      "name": "balanceOf",
      "outputs": [
        {
          "internalType": "uint256",
          "name": "",
          "type": "uint256"
        }
      ],
      "stateMutability": "view",
      "type": "function",
      "constant": true
    },
    {
      "inputs": [],
      "name": "decimals",
      "outputs": [
        {
          "internalType": "uint8",
          "name": "",
          "type": "uint8"
        }
      ],
      "stateMutability": "view",
      "type": "function",
      "constant": true
    },
    {
      "inputs": [],
      "name": "name",
      "outputs": [
        {
          "internalType": "string",
          "name": "",
          "type": "string"
        }
      ],
      "stateMutability": "view",
      "type": "function",
      "constant": true
    },
    {
      "inputs": [
        {
          "internalType": "address",
          "name": "",
          "type": "address"
        }
      ],
      "name": "nonces",
      "outputs": [
        {
          "internalType": "uint256",
          "name": "",
          "type": "uint256"
        }
      ],
      "stateMutability": "view",
      "type": "function",
      "constant": true
    },
    {
      "inputs": [
        {
          "internalType": "address",
          "name": "owner",
          "type": "address"
        },
        {
          "internalType": "address",
          "name": "spender",
          "type": "address"
        },
        {
          "internalType": "uint256",
          "name": "value",
          "type": "uint256"
        },
        {
          "internalType": "uint256",
          "name": "deadline",
          "type": "uint256"
        },
        {
          "internalType": "uint8",
          "name": "v",
          "type": "uint8"
        },
        {
          "internalType": "bytes32",
          "name": "r",
          "type": "bytes32"
        },
        {
          "internalType": "bytes32",
          "name": "s",
          "type": "bytes32"
        }
      ],
      "name": "permit",
      "outputs": [],
      "stateMutability": "nonpayable",
      "type": "function"
    },
    {
      "inputs": [],
      "name": "price0CumulativeLast",
      "outputs": [
        {
          "internalType": "uint256",
          "name": "",
          "type": "uint256"
        }
      ],
      "stateMutability": "view",
      "type": "function",
      "constant": true
    },
    {
      "inputs": [],
      "name": "price1CumulativeLast",
      "outputs": [
        {
          "internalType": "uint256",
          "name": "",
          "type": "uint256"
        }
      ],
      "stateMutability": "view",
      "type": "function",
      "constant": true
    },
    {
      "inputs": [],
      "name": "symbol",
      "outputs": [
        {
          "internalType": "string",
          "name": "",
          "type": "string"
        }
      ],
      "stateMutability": "view",
      "type": "function",
      "constant": true
    },
    {
      "inputs": [],
      "name": "token0",
      "outputs": [
        {
          "internalType": "address",
          "name": "",
          "type": "address"
        }
      ],
      "stateMutability": "view",
      "type": "function",
      "constant": true
    },
    {
      "inputs": [],
      "name": "token1",
      "outputs": [
        {
          "internalType": "address",
          "name": "",
          "type": "address"
        }
      ],
      "stateMutability": "view",
      "type": "function",
      "constant": true
    },
    {
      "inputs": [],
      "name": "totalSupply",
      "outputs": [
        {
          "internalType": "uint256",
          "name": "",
          "type": "uint256"
        }
      ],
      "stateMutability": "view",
      "type": "function",
      "constant": true
    },
    {
      "inputs": [
        {
          "internalType": "address",
          "name": "to",
          "type": "address"
        },
        {
          "internalType": "uint256",
          "name": "amount",
          "type": "uint256"
        }
      ],
      "name": "transfer",
      "outputs": [
        {
          "internalType": "bool",
          "name": "",
          "type": "bool"
        }
      ],
      "stateMutability": "nonpayable",
      "type": "function"
    },
    {
      "inputs": [
        {
          "internalType": "address",
          "name": "from",
          "type": "address"
        },
        {
          "internalType": "address",
          "name": "to",
          "type": "address"
        },
        {
          "internalType": "uint256",
          "name": "amount",
          "type": "uint256"
        }
      ],
      "name": "transferFrom",
      "outputs": [
        {
          "internalType": "bool",
          "name": "",
          "type": "bool"
        }
      ],
      "stateMutability": "nonpayable",
      "type": "function"
    },
    {
      "inputs": [
        {
          "internalType": "address",
          "name": "token0_",
          "type": "address"
        },
        {
          "internalType": "address",
          "name": "token1_",
          "type": "address"
        }
      ],
      "name": "initialize",
      "outputs": [],
      "stateMutability": "nonpayable",
      "type": "function"
    },
    {
      "inputs": [
        {
          "internalType": "address",
          "name": "to",
          "type": "address"
        }
      ],
      "name": "mint",
      "outputs": [
        {
          "internalType": "uint256",
          "name": "liquidity",
          "type": "uint256"
        }
      ],
      "stateMutability": "nonpayable",
      "type": "function"
    },
    {
      "inputs": [
        {
          "internalType": "address",
          "name": "to",
          "type": "address"
        }
      ],
      "name": "burn",
      "outputs": [
        {
          "internalType": "uint256",
          "name": "amount0",
          "type": "uint256"
        },
        {
          "internalType": "uint256",
          "name": "amount1",
          "type": "uint256"
        }
      ],
      "stateMutability": "nonpayable",
      "type": "function"
    },
    {
      "inputs": [
        {
          "internalType": "uint256",
          "name": "amount0Out",
          "type": "uint256"
        },
        {
          "internalType": "uint256",
          "name": "amount1Out",
          "type": "uint256"
        },
        {
          "internalType": "address",
          "name": "to",
          "type": "address"
        },
        {
          "internalType": "bytes",
          "name": "data",
          "type": "bytes"
        }
      ],
      "name": "swap",
      "outputs": [],
      "stateMutability": "nonpayable",
      "type": "function"
    },
    {
      "inputs": [],
      "name": "sync",
      "outputs": [],
      "stateMutability": "nonpayable",
      "type": "function"
    },
    {
      "inputs": [],
      "name": "getReserversWithTokenNames",
      "outputs": [
        {
          "internalType": "string",
          "name": "",
          "type": "string"
        },
        {
          "internalType": "uint256",
          "name": "",
          "type": "uint256"
        },
        {
          "internalType": "string",
          "name": "",
          "type": "string"
        },
        {
          "internalType": "uint256",
          "name": "",
          "type": "uint256"
        },
        {
          "internalType": "uint32",
          "name": "",
          "type": "uint32"
        }
      ],
      "stateMutability": "nonpayable",
      "type": "function"
    },
    {
      "inputs": [],
      "name": "getReserves",
      "outputs": [
        {
          "internalType": "uint112",
          "name": "",
          "type": "uint112"
        },
        {
          "internalType": "uint112",
          "name": "",
          "type": "uint112"
        },
        {
          "internalType": "uint32",
          "name": "",
          "type": "uint32"
        }
      ],
      "stateMutability": "view",
      "type": "function",
      "constant": true
    }
  ],
  "bytecode": "0x60e06040523480156200001157600080fd5b506040518060400160405280600f81526020017f5a756e69737761705632205061697200000000000000000000000000000000008152506040518060400160405280600681526020017f5a554e4956320000000000000000000000000000000000000000000000000000815250601282600090805190602001906200009892919062000178565b508160019080519060200190620000b192919062000178565b508060ff1660808160ff16815250504660a08181525050620000d8620000e860201b60201c565b60c0818152505050505062000428565b60007f8b73c3c69bb8fe3d512ecc4cf759cc79239f7b179b0ffacaa9a75d522b39400f60006040516200011c919062000337565b60405180910390207fc89efdaa54c0f20c7adf612882df0950f5a951637e0307cdcb4c672f298b8bc646306040516020016200015d959493929190620003cb565b60405160208183030381529060405280519060200120905090565b828054620001869062000257565b90600052602060002090601f016020900481019282620001aa5760008555620001f6565b82601f10620001c557805160ff1916838001178555620001f6565b82800160010185558215620001f6579182015b82811115620001f5578251825591602001919060010190620001d8565b5b50905062000205919062000209565b5090565b5b80821115620002245760008160009055506001016200020a565b5090565b7f4e487b7100000000000000000000000000000000000000000000000000000000600052602260045260246000fd5b600060028204905060018216806200027057607f821691505b60208210810362000286576200028562000228565b5b50919050565b600081905092915050565b60008190508160005260206000209050919050565b60008154620002bb8162000257565b620002c781866200028c565b94506001821660008114620002e55760018114620002f7576200032e565b60ff198316865281860193506200032e565b620003028562000297565b60005b83811015620003265781548189015260018201915060208101905062000305565b838801955050505b50505092915050565b6000620003458284620002ac565b915081905092915050565b6000819050919050565b620003658162000350565b82525050565b6000819050919050565b62000380816200036b565b82525050565b600073ffffffffffffffffffffffffffffffffffffffff82169050919050565b6000620003b38262000386565b9050919050565b620003c581620003a6565b82525050565b600060a082019050620003e260008301886200035a565b620003f160208301876200035a565b6200040060408301866200035a565b6200040f606083018562000375565b6200041e6080830184620003ba565b9695505050505050565b60805160a05160c0516137f6620004586000396000610f2001526000610eec01526000610ec601526137f66000f3fe608060405234801561001057600080fd5b506004361061014d5760003560e01c80635a3d5493116100c3578063a9059cbb1161007c578063a9059cbb146103bb578063ca05d741146103eb578063d21220a71461040d578063d505accf1461042b578063dd62ed3e14610447578063fff6cae9146104775761014d565b80635a3d5493146102be5780636a627842146102dc57806370a082311461030c5780637ecebe001461033c57806389afcb441461036c57806395d89b411461039d5761014d565b806318160ddd1161011557806318160ddd146101fa57806323b872dd14610218578063313ce567146102485780633644e51514610266578063485cc955146102845780635909c0d5146102a05761014d565b8063022c0d9f1461015257806306fdde031461016e5780630902f1ac1461018c578063095ea7b3146101ac5780630dfe1681146101dc575b600080fd5b61016c60048036038101906101679190612916565b610481565b005b610176610a71565b6040516101839190612a37565b60405180910390f35b610194610aff565b6040516101a393929190612aa1565b60405180910390f35b6101c660048036038101906101c19190612ad8565b610b5c565b6040516101d39190612b33565b60405180910390f35b6101e4610c4e565b6040516101f19190612b5d565b60405180910390f35b610202610c74565b60405161020f9190612b87565b60405180910390f35b610232600480360381019061022d9190612ba2565b610c7a565b60405161023f9190612b33565b60405180910390f35b610250610ec4565b60405161025d9190612c11565b60405180910390f35b61026e610ee8565b60405161027b9190612c45565b60405180910390f35b61029e60048036038101906102999190612c60565b610f45565b005b6102a86110af565b6040516102b59190612b87565b60405180910390f35b6102c66110b5565b6040516102d39190612b87565b60405180910390f35b6102f660048036038101906102f19190612ca0565b6110bb565b6040516103039190612b87565b60405180910390f35b61032660048036038101906103219190612ca0565b611398565b6040516103339190612b87565b60405180910390f35b61035660048036038101906103519190612ca0565b6113b0565b6040516103639190612b87565b60405180910390f35b61038660048036038101906103819190612ca0565b6113c8565b604051610394929190612ccd565b60405180910390f35b6103a56117eb565b6040516103b29190612a37565b60405180910390f35b6103d560048036038101906103d09190612ad8565b611879565b6040516103e29190612b33565b60405180910390f35b6103f361198d565b604051610404959493929190612cf6565b60405180910390f35b610415611c46565b6040516104229190612b5d565b60405180910390f35b61044560048036038101906104409190612daf565b611c6c565b005b610461600480360381019061045c9190612c60565b611f65565b60405161046e9190612b87565b60405180910390f35b61047f611f8a565b005b600b60009054906101000a900460ff161561049b57600080fd5b6001600b60006101000a81548160ff0219169083151502179055506000851480156104c65750600084145b156104fd576040517f42301c2300000000000000000000000000000000000000000000000000000000815260040160405180910390fd5b600080610508610aff565b5091509150816dffffffffffffffffffffffffffff1687118061053a5750806dffffffffffffffffffffffffffff1686115b15610571576040517fbb55fd2700000000000000000000000000000000000000000000000000000000815260040160405180910390fd5b60008711156105a8576105a7600660009054906101000a900473ffffffffffffffffffffffffffffffffffffffff1686896120e4565b5b60008611156105df576105de600760009054906101000a900473ffffffffffffffffffffffffffffffffffffffff1686886120e4565b5b600084849050111561065f578473ffffffffffffffffffffffffffffffffffffffff1663c68e5d5033898988886040518663ffffffff1660e01b815260040161062c959493929190612e9e565b600060405180830381600087803b15801561064657600080fd5b505af115801561065a573d6000803e3d6000fd5b505050505b6000600660009054906101000a900473ffffffffffffffffffffffffffffffffffffffff1673ffffffffffffffffffffffffffffffffffffffff166370a08231306040518263ffffffff1660e01b81526004016106bc9190612b5d565b6020604051808303816000875af11580156106db573d6000803e3d6000fd5b505050506040513d601f19601f820116820180604052508101906106ff9190612f01565b90506000600760009054906101000a900473ffffffffffffffffffffffffffffffffffffffff1673ffffffffffffffffffffffffffffffffffffffff166370a08231306040518263ffffffff1660e01b815260040161075e9190612b5d565b6020604051808303816000875af115801561077d573d6000803e3d6000fd5b505050506040513d601f19601f820116820180604052508101906107a19190612f01565b9050600089600860009054906101000a90046dffffffffffffffffffffffffffff166dffffffffffffffffffffffffffff166107dd9190612f5d565b83116107ea57600061082e565b89600860009054906101000a90046dffffffffffffffffffffffffffff166dffffffffffffffffffffffffffff166108229190612f5d565b8361082d9190612f5d565b5b90506000896008600e9054906101000a90046dffffffffffffffffffffffffffff166dffffffffffffffffffffffffffff1661086a9190612f5d565b83116108775760006108bb565b896008600e9054906101000a90046dffffffffffffffffffffffffffff166dffffffffffffffffffffffffffff166108af9190612f5d565b836108ba9190612f5d565b5b90506000821480156108cd5750600081145b15610904576040517f098fb56100000000000000000000000000000000000000000000000000000000815260040160405180910390fd5b60006003836109139190612f91565b6103e8866109219190612f91565b61092b9190612f5d565b9050600060038361093c9190612f91565b6103e88661094a9190612f91565b6109549190612f5d565b9050620f4240876dffffffffffffffffffffffffffff16896dffffffffffffffffffffffffffff166109869190612f91565b6109909190612f91565b818361099c9190612f91565b10156109d4576040517fbd8bc36400000000000000000000000000000000000000000000000000000000815260040160405180910390fd5b6109e086868a8a61224c565b8a73ffffffffffffffffffffffffffffffffffffffff163373ffffffffffffffffffffffffffffffffffffffff167f2a9237ff5aa599ef4c5ee4b1142b53429d5755e2685fe6288b2e3320202115f58f8f604051610a3f929190612ccd565b60405180910390a350505050505050506000600b60006101000a81548160ff0219169083151502179055505050505050565b60008054610a7e9061301a565b80601f0160208091040260200160405190810160405280929190818152602001828054610aaa9061301a565b8015610af75780601f10610acc57610100808354040283529160200191610af7565b820191906000526020600020905b815481529060010190602001808311610ada57829003601f168201915b505050505081565b6000806000600860009054906101000a90046dffffffffffffffffffffffffffff166008600e9054906101000a90046dffffffffffffffffffffffffffff166008601c9054906101000a900463ffffffff16925092509250909192565b600081600460003373ffffffffffffffffffffffffffffffffffffffff1673ffffffffffffffffffffffffffffffffffffffff16815260200190815260200160002060008573ffffffffffffffffffffffffffffffffffffffff1673ffffffffffffffffffffffffffffffffffffffff168152602001908152602001600020819055508273ffffffffffffffffffffffffffffffffffffffff163373ffffffffffffffffffffffffffffffffffffffff167f8c5be1e5ebec7d5bd14f71427d1e84f3dd0314c0f7b2291e5b200ac8c7c3b92584604051610c3c9190612b87565b60405180910390a36001905092915050565b600660009054906101000a900473ffffffffffffffffffffffffffffffffffffffff1681565b60025481565b600080600460008673ffffffffffffffffffffffffffffffffffffffff1673ffffffffffffffffffffffffffffffffffffffff16815260200190815260200160002060003373ffffffffffffffffffffffffffffffffffffffff1673ffffffffffffffffffffffffffffffffffffffff1681526020019081526020016000205490507fffffffffffffffffffffffffffffffffffffffffffffffffffffffffffffffff8114610db0578281610d2f9190612f5d565b600460008773ffffffffffffffffffffffffffffffffffffffff1673ffffffffffffffffffffffffffffffffffffffff16815260200190815260200160002060003373ffffffffffffffffffffffffffffffffffffffff1673ffffffffffffffffffffffffffffffffffffffff168152602001908152602001600020819055505b82600360008773ffffffffffffffffffffffffffffffffffffffff1673ffffffffffffffffffffffffffffffffffffffff1681526020019081526020016000206000828254610dff9190612f5d565b9250508190555082600360008673ffffffffffffffffffffffffffffffffffffffff1673ffffffffffffffffffffffffffffffffffffffff168152602001908152602001600020600082825401925050819055508373ffffffffffffffffffffffffffffffffffffffff168573ffffffffffffffffffffffffffffffffffffffff167fddf252ad1be2c89b69c2b068fc378daa952ba7f163c4a11628f55a4df523b3ef85604051610eb09190612b87565b60405180910390a360019150509392505050565b7f000000000000000000000000000000000000000000000000000000000000000081565b60007f00000000000000000000000000000000000000000000000000000000000000004614610f1e57610f196124f0565b610f40565b7f00000000000000000000000000000000000000000000000000000000000000005b905090565b600073ffffffffffffffffffffffffffffffffffffffff16600660009054906101000a900473ffffffffffffffffffffffffffffffffffffffff1673ffffffffffffffffffffffffffffffffffffffff16141580610ff25750600073ffffffffffffffffffffffffffffffffffffffff16600760009054906101000a900473ffffffffffffffffffffffffffffffffffffffff1673ffffffffffffffffffffffffffffffffffffffff1614155b15611029576040517f0dc149f000000000000000000000000000000000000000000000000000000000815260040160405180910390fd5b81600660006101000a81548173ffffffffffffffffffffffffffffffffffffffff021916908373ffffffffffffffffffffffffffffffffffffffff16021790555080600760006101000a81548173ffffffffffffffffffffffffffffffffffffffff021916908373ffffffffffffffffffffffffffffffffffffffff1602179055505050565b60095481565b600a5481565b60008060006110c8610aff565b50915091506000600660009054906101000a900473ffffffffffffffffffffffffffffffffffffffff1673ffffffffffffffffffffffffffffffffffffffff166370a08231306040518263ffffffff1660e01b815260040161112a9190612b5d565b6020604051808303816000875af1158015611149573d6000803e3d6000fd5b505050506040513d601f19601f8201168201806040525081019061116d9190612f01565b90506000600760009054906101000a900473ffffffffffffffffffffffffffffffffffffffff1673ffffffffffffffffffffffffffffffffffffffff166370a08231306040518263ffffffff1660e01b81526004016111cc9190612b5d565b6020604051808303816000875af11580156111eb573d6000803e3d6000fd5b505050506040513d601f19601f8201168201806040525081019061120f9190612f01565b90506000846dffffffffffffffffffffffffffff168361122f9190612f5d565b90506000846dffffffffffffffffffffffffffff168361124f9190612f5d565b9050600060025403611290576103e8611272828461126d9190612f91565b61257c565b61127c9190612f5d565b965061128b60006103e86125f6565b6112ed565b6112ea866dffffffffffffffffffffffffffff16600254846112b29190612f91565b6112bc919061307a565b866dffffffffffffffffffffffffffff16600254846112db9190612f91565b6112e5919061307a565b6126c6565b96505b60008711611327576040517fd226f9d400000000000000000000000000000000000000000000000000000000815260040160405180910390fd5b61133188886125f6565b61133d8484888861224c565b8773ffffffffffffffffffffffffffffffffffffffff167f4c209b5fc8ad50758f13e2e1088ba56a560dff690a1c6fef26394f4c03821c4f8383604051611385929190612ccd565b60405180910390a2505050505050919050565b60036020528060005260406000206000915090505481565b60056020528060005260406000206000915090505481565b6000806000600660009054906101000a900473ffffffffffffffffffffffffffffffffffffffff1673ffffffffffffffffffffffffffffffffffffffff166370a08231306040518263ffffffff1660e01b81526004016114289190612b5d565b6020604051808303816000875af1158015611447573d6000803e3d6000fd5b505050506040513d601f19601f8201168201806040525081019061146b9190612f01565b90506000600760009054906101000a900473ffffffffffffffffffffffffffffffffffffffff1673ffffffffffffffffffffffffffffffffffffffff166370a08231306040518263ffffffff1660e01b81526004016114ca9190612b5d565b6020604051808303816000875af11580156114e9573d6000803e3d6000fd5b505050506040513d601f19601f8201168201806040525081019061150d9190612f01565b90506000600360003073ffffffffffffffffffffffffffffffffffffffff1673ffffffffffffffffffffffffffffffffffffffff16815260200190815260200160002054905060025483826115629190612f91565b61156c919061307a565b9450600254828261157d9190612f91565b611587919061307a565b935060008514806115985750600084145b156115cf576040517f749383ad00000000000000000000000000000000000000000000000000000000815260040160405180910390fd5b6115d930826126df565b611606600660009054906101000a900473ffffffffffffffffffffffffffffffffffffffff1687876120e4565b611633600760009054906101000a900473ffffffffffffffffffffffffffffffffffffffff1687866120e4565b600660009054906101000a900473ffffffffffffffffffffffffffffffffffffffff1673ffffffffffffffffffffffffffffffffffffffff166370a08231306040518263ffffffff1660e01b815260040161168e9190612b5d565b6020604051808303816000875af11580156116ad573d6000803e3d6000fd5b505050506040513d601f19601f820116820180604052508101906116d19190612f01565b9250600760009054906101000a900473ffffffffffffffffffffffffffffffffffffffff1673ffffffffffffffffffffffffffffffffffffffff166370a08231306040518263ffffffff1660e01b815260040161172e9190612b5d565b6020604051808303816000875af115801561174d573d6000803e3d6000fd5b505050506040513d601f19601f820116820180604052508101906117719190612f01565b915060008061177e610aff565b509150915061178f8585848461224c565b3373ffffffffffffffffffffffffffffffffffffffff167fdccd412f0b1252819cb1fd330b93224ca42612892bb3f4f789976e6d8193649688888b6040516117d9939291906130ab565b60405180910390a25050505050915091565b600180546117f89061301a565b80601f01602080910402602001604051908101604052809291908181526020018280546118249061301a565b80156118715780601f1061184657610100808354040283529160200191611871565b820191906000526020600020905b81548152906001019060200180831161185457829003601f168201915b505050505081565b600081600360003373ffffffffffffffffffffffffffffffffffffffff1673ffffffffffffffffffffffffffffffffffffffff16815260200190815260200160002060008282546118ca9190612f5d565b9250508190555081600360008573ffffffffffffffffffffffffffffffffffffffff1673ffffffffffffffffffffffffffffffffffffffff168152602001908152602001600020600082825401925050819055508273ffffffffffffffffffffffffffffffffffffffff163373ffffffffffffffffffffffffffffffffffffffff167fddf252ad1be2c89b69c2b068fc378daa952ba7f163c4a11628f55a4df523b3ef8460405161197b9190612b87565b60405180910390a36001905092915050565b6060600060606000806000600660009054906101000a900473ffffffffffffffffffffffffffffffffffffffff1690506000600760009054906101000a900473ffffffffffffffffffffffffffffffffffffffff16905060008273ffffffffffffffffffffffffffffffffffffffff166317d7de7c6040518163ffffffff1660e01b8152600401600060405180830381865afa158015611a31573d6000803e3d6000fd5b505050506040513d6000823e3d601f19601f82011682018060405250810190611a5a9190613203565b905060008273ffffffffffffffffffffffffffffffffffffffff166317d7de7c6040518163ffffffff1660e01b8152600401600060405180830381865afa158015611aa9573d6000803e3d6000fd5b505050506040513d6000823e3d601f19601f82011682018060405250810190611ad29190613203565b90506000600660009054906101000a900473ffffffffffffffffffffffffffffffffffffffff1673ffffffffffffffffffffffffffffffffffffffff166370a08231306040518263ffffffff1660e01b8152600401611b319190612b5d565b6020604051808303816000875af1158015611b50573d6000803e3d6000fd5b505050506040513d601f19601f82011682018060405250810190611b749190612f01565b90506000600760009054906101000a900473ffffffffffffffffffffffffffffffffffffffff1673ffffffffffffffffffffffffffffffffffffffff166370a08231306040518263ffffffff1660e01b8152600401611bd39190612b5d565b6020604051808303816000875af1158015611bf2573d6000803e3d6000fd5b505050506040513d601f19601f82011682018060405250810190611c169190612f01565b9050838284836008601c9054906101000a900463ffffffff169a509a509a509a509a505050505050509091929394565b600760009054906101000a900473ffffffffffffffffffffffffffffffffffffffff1681565b42841015611caf576040517f08c379a0000000000000000000000000000000000000000000000000000000008152600401611ca690613298565b60405180910390fd5b60006001611cbb610ee8565b7f6e71edae12b1b97f4d1f60370fef10105fa2faae0126114a169c64845d6126c98a8a8a600560008f73ffffffffffffffffffffffffffffffffffffffff1673ffffffffffffffffffffffffffffffffffffffff1681526020019081526020016000206000815480929190600101919050558b604051602001611d43969594939291906132b8565b60405160208183030381529060405280519060200120604051602001611d6a929190613391565b6040516020818303038152906040528051906020012085858560405160008152602001604052604051611da094939291906133c8565b6020604051602081039080840390855afa158015611dc2573d6000803e3d6000fd5b505050602060405103519050600073ffffffffffffffffffffffffffffffffffffffff168173ffffffffffffffffffffffffffffffffffffffff1614158015611e3657508773ffffffffffffffffffffffffffffffffffffffff168173ffffffffffffffffffffffffffffffffffffffff16145b611e75576040517f08c379a0000000000000000000000000000000000000000000000000000000008152600401611e6c90613459565b60405180910390fd5b85600460008373ffffffffffffffffffffffffffffffffffffffff1673ffffffffffffffffffffffffffffffffffffffff16815260200190815260200160002060008973ffffffffffffffffffffffffffffffffffffffff1673ffffffffffffffffffffffffffffffffffffffff16815260200190815260200160002081905550508573ffffffffffffffffffffffffffffffffffffffff168773ffffffffffffffffffffffffffffffffffffffff167f8c5be1e5ebec7d5bd14f71427d1e84f3dd0314c0f7b2291e5b200ac8c7c3b92587604051611f549190612b87565b60405180910390a350505050505050565b6004602052816000526040600020602052806000526040600020600091509150505481565b600080611f95610aff565b50915091506120e0600660009054906101000a900473ffffffffffffffffffffffffffffffffffffffff1673ffffffffffffffffffffffffffffffffffffffff166370a08231306040518263ffffffff1660e01b8152600401611ff89190612b5d565b6020604051808303816000875af1158015612017573d6000803e3d6000fd5b505050506040513d601f19601f8201168201806040525081019061203b9190612f01565b600760009054906101000a900473ffffffffffffffffffffffffffffffffffffffff1673ffffffffffffffffffffffffffffffffffffffff166370a08231306040518263ffffffff1660e01b81526004016120969190612b5d565b6020604051808303816000875af11580156120b5573d6000803e3d6000fd5b505050506040513d601f19601f820116820180604052508101906120d99190612f01565b848461224c565b5050565b6000808473ffffffffffffffffffffffffffffffffffffffff168484604051602401612111929190613479565b6040516020818303038152906040527fa9059cbb000000000000000000000000000000000000000000000000000000007bffffffffffffffffffffffffffffffffffffffffffffffffffffffff19166020820180517bffffffffffffffffffffffffffffffffffffffffffffffffffffffff838183161783525050505060405161219b91906134e9565b6000604051808303816000865af19150503d80600081146121d8576040519150601f19603f3d011682016040523d82523d6000602084013e6121dd565b606091505b509150915081158061220e5750600081511415801561220d57508080602001905181019061220b919061352c565b155b5b15612245576040517f90b8ec1800000000000000000000000000000000000000000000000000000000815260040160405180910390fd5b5050505050565b6dffffffffffffffffffffffffffff801684118061227957506dffffffffffffffffffffffffffff801683115b156122b0576040517f89560ca100000000000000000000000000000000000000000000000000000000815260040160405180910390fd5b60006008601c9054906101000a900463ffffffff164203905060008163ffffffff161180156122ef57506000836dffffffffffffffffffffffffffff16115b801561230b57506000826dffffffffffffffffffffffffffff16115b156123ed578063ffffffff1661235084612324856127af565b7bffffffffffffffffffffffffffffffffffffffffffffffffffffffff166127e390919063ffffffff16565b7bffffffffffffffffffffffffffffffffffffffffffffffffffffffff16026009600082825401925050819055508063ffffffff166123be83612392866127af565b7bffffffffffffffffffffffffffffffffffffffffffffffffffffffff166127e390919063ffffffff16565b7bffffffffffffffffffffffffffffffffffffffffffffffffffffffff1602600a600082825401925050819055505b5083600860006101000a8154816dffffffffffffffffffffffffffff02191690836dffffffffffffffffffffffffffff160217905550826008600e6101000a8154816dffffffffffffffffffffffffffff02191690836dffffffffffffffffffffffffffff160217905550426008601c6101000a81548163ffffffff021916908363ffffffff1602179055507fcf2aa50876cdfbb541206f89af0ee78d44a2abf8d328e37fa4917f982149848a600860009054906101000a90046dffffffffffffffffffffffffffff166008600e9054906101000a90046dffffffffffffffffffffffffffff166040516124e2929190613594565b60405180910390a150505050565b60007f8b73c3c69bb8fe3d512ecc4cf759cc79239f7b179b0ffacaa9a75d522b39400f60006040516125229190613651565b60405180910390207fc89efdaa54c0f20c7adf612882df0950f5a951637e0307cdcb4c672f298b8bc64630604051602001612561959493929190613668565b60405160208183030381529060405280519060200120905090565b600060038211156125e3578190506000600160028461259b919061307a565b6125a591906136bb565b90505b818110156125dd5780915060028182856125c2919061307a565b6125cc91906136bb565b6125d6919061307a565b90506125a8565b506125f1565b600082146125f057600190505b5b919050565b806002600082825461260891906136bb565b9250508190555080600360008473ffffffffffffffffffffffffffffffffffffffff1673ffffffffffffffffffffffffffffffffffffffff168152602001908152602001600020600082825401925050819055508173ffffffffffffffffffffffffffffffffffffffff16600073ffffffffffffffffffffffffffffffffffffffff167fddf252ad1be2c89b69c2b068fc378daa952ba7f163c4a11628f55a4df523b3ef836040516126ba9190612b87565b60405180910390a35050565b60008183106126d557816126d7565b825b905092915050565b80600360008473ffffffffffffffffffffffffffffffffffffffff1673ffffffffffffffffffffffffffffffffffffffff168152602001908152602001600020600082825461272e9190612f5d565b9250508190555080600260008282540392505081905550600073ffffffffffffffffffffffffffffffffffffffff168273ffffffffffffffffffffffffffffffffffffffff167fddf252ad1be2c89b69c2b068fc378daa952ba7f163c4a11628f55a4df523b3ef836040516127a39190612b87565b60405180910390a35050565b60006e010000000000000000000000000000826dffffffffffffffffffffffffffff166127dc9190613739565b9050919050565b6000816dffffffffffffffffffffffffffff1683612801919061378f565b905092915050565b6000604051905090565b600080fd5b600080fd5b6000819050919050565b6128308161281d565b811461283b57600080fd5b50565b60008135905061284d81612827565b92915050565b600073ffffffffffffffffffffffffffffffffffffffff82169050919050565b600061287e82612853565b9050919050565b61288e81612873565b811461289957600080fd5b50565b6000813590506128ab81612885565b92915050565b600080fd5b600080fd5b600080fd5b60008083601f8401126128d6576128d56128b1565b5b8235905067ffffffffffffffff8111156128f3576128f26128b6565b5b60208301915083600182028301111561290f5761290e6128bb565b5b9250929050565b60008060008060006080868803121561293257612931612813565b5b60006129408882890161283e565b95505060206129518882890161283e565b94505060406129628882890161289c565b935050606086013567ffffffffffffffff81111561298357612982612818565b5b61298f888289016128c0565b92509250509295509295909350565b600081519050919050565b600082825260208201905092915050565b60005b838110156129d85780820151818401526020810190506129bd565b838111156129e7576000848401525b50505050565b6000601f19601f8301169050919050565b6000612a098261299e565b612a1381856129a9565b9350612a238185602086016129ba565b612a2c816129ed565b840191505092915050565b60006020820190508181036000830152612a5181846129fe565b905092915050565b60006dffffffffffffffffffffffffffff82169050919050565b612a7c81612a59565b82525050565b600063ffffffff82169050919050565b612a9b81612a82565b82525050565b6000606082019050612ab66000830186612a73565b612ac36020830185612a73565b612ad06040830184612a92565b949350505050565b60008060408385031215612aef57612aee612813565b5b6000612afd8582860161289c565b9250506020612b0e8582860161283e565b9150509250929050565b60008115159050919050565b612b2d81612b18565b82525050565b6000602082019050612b486000830184612b24565b92915050565b612b5781612873565b82525050565b6000602082019050612b726000830184612b4e565b92915050565b612b818161281d565b82525050565b6000602082019050612b9c6000830184612b78565b92915050565b600080600060608486031215612bbb57612bba612813565b5b6000612bc98682870161289c565b9350506020612bda8682870161289c565b9250506040612beb8682870161283e565b9150509250925092565b600060ff82169050919050565b612c0b81612bf5565b82525050565b6000602082019050612c266000830184612c02565b92915050565b6000819050919050565b612c3f81612c2c565b82525050565b6000602082019050612c5a6000830184612c36565b92915050565b60008060408385031215612c7757612c76612813565b5b6000612c858582860161289c565b9250506020612c968582860161289c565b9150509250929050565b600060208284031215612cb657612cb5612813565b5b6000612cc48482850161289c565b91505092915050565b6000604082019050612ce26000830185612b78565b612cef6020830184612b78565b9392505050565b600060a0820190508181036000830152612d1081886129fe565b9050612d1f6020830187612b78565b8181036040830152612d3181866129fe565b9050612d406060830185612b78565b612d4d6080830184612a92565b9695505050505050565b612d6081612bf5565b8114612d6b57600080fd5b50565b600081359050612d7d81612d57565b92915050565b612d8c81612c2c565b8114612d9757600080fd5b50565b600081359050612da981612d83565b92915050565b600080600080600080600060e0888a031215612dce57612dcd612813565b5b6000612ddc8a828b0161289c565b9750506020612ded8a828b0161289c565b9650506040612dfe8a828b0161283e565b9550506060612e0f8a828b0161283e565b9450506080612e208a828b01612d6e565b93505060a0612e318a828b01612d9a565b92505060c0612e428a828b01612d9a565b91505092959891949750929550565b600082825260208201905092915050565b82818337600083830152505050565b6000612e7d8385612e51565b9350612e8a838584612e62565b612e93836129ed565b840190509392505050565b6000608082019050612eb36000830188612b4e565b612ec06020830187612b78565b612ecd6040830186612b78565b8181036060830152612ee0818486612e71565b90509695505050505050565b600081519050612efb81612827565b92915050565b600060208284031215612f1757612f16612813565b5b6000612f2584828501612eec565b91505092915050565b7f4e487b7100000000000000000000000000000000000000000000000000000000600052601160045260246000fd5b6000612f688261281d565b9150612f738361281d565b925082821015612f8657612f85612f2e565b5b828203905092915050565b6000612f9c8261281d565b9150612fa78361281d565b9250817fffffffffffffffffffffffffffffffffffffffffffffffffffffffffffffffff0483118215151615612fe057612fdf612f2e565b5b828202905092915050565b7f4e487b7100000000000000000000000000000000000000000000000000000000600052602260045260246000fd5b6000600282049050600182168061303257607f821691505b60208210810361304557613044612feb565b5b50919050565b7f4e487b7100000000000000000000000000000000000000000000000000000000600052601260045260246000fd5b60006130858261281d565b91506130908361281d565b9250826130a05761309f61304b565b5b828204905092915050565b60006060820190506130c06000830186612b78565b6130cd6020830185612b78565b6130da6040830184612b4e565b949350505050565b600080fd5b7f4e487b7100000000000000000000000000000000000000000000000000000000600052604160045260246000fd5b61311f826129ed565b810181811067ffffffffffffffff8211171561313e5761313d6130e7565b5b80604052505050565b6000613151612809565b905061315d8282613116565b919050565b600067ffffffffffffffff82111561317d5761317c6130e7565b5b613186826129ed565b9050602081019050919050565b60006131a66131a184613162565b613147565b9050828152602081018484840111156131c2576131c16130e2565b5b6131cd8482856129ba565b509392505050565b600082601f8301126131ea576131e96128b1565b5b81516131fa848260208601613193565b91505092915050565b60006020828403121561321957613218612813565b5b600082015167ffffffffffffffff81111561323757613236612818565b5b613243848285016131d5565b91505092915050565b7f5045524d49545f444541444c494e455f45585049524544000000000000000000600082015250565b60006132826017836129a9565b915061328d8261324c565b602082019050919050565b600060208201905081810360008301526132b181613275565b9050919050565b600060c0820190506132cd6000830189612c36565b6132da6020830188612b4e565b6132e76040830187612b4e565b6132f46060830186612b78565b6133016080830185612b78565b61330e60a0830184612b78565b979650505050505050565b600081905092915050565b7f1901000000000000000000000000000000000000000000000000000000000000600082015250565b600061335a600283613319565b915061336582613324565b600282019050919050565b6000819050919050565b61338b61338682612c2c565b613370565b82525050565b600061339c8261334d565b91506133a8828561337a565b6020820191506133b8828461337a565b6020820191508190509392505050565b60006080820190506133dd6000830187612c36565b6133ea6020830186612c02565b6133f76040830185612c36565b6134046060830184612c36565b95945050505050565b7f494e56414c49445f5349474e4552000000000000000000000000000000000000600082015250565b6000613443600e836129a9565b915061344e8261340d565b602082019050919050565b6000602082019050818103600083015261347281613436565b9050919050565b600060408201905061348e6000830185612b4e565b61349b6020830184612b78565b9392505050565b600081519050919050565b600081905092915050565b60006134c3826134a2565b6134cd81856134ad565b93506134dd8185602086016129ba565b80840191505092915050565b60006134f582846134b8565b915081905092915050565b61350981612b18565b811461351457600080fd5b50565b60008151905061352681613500565b92915050565b60006020828403121561354257613541612813565b5b600061355084828501613517565b91505092915050565b6000819050919050565b600061357e61357961357484612a59565b613559565b61281d565b9050919050565b61358e81613563565b82525050565b60006040820190506135a96000830185613585565b6135b66020830184613585565b9392505050565b60008190508160005260206000209050919050565b600081546135df8161301a565b6135e981866134ad565b94506001821660008114613604576001811461361557613648565b60ff19831686528186019350613648565b61361e856135bd565b60005b8381101561364057815481890152600182019150602081019050613621565b838801955050505b50505092915050565b600061365d82846135d2565b915081905092915050565b600060a08201905061367d6000830188612c36565b61368a6020830187612c36565b6136976040830186612c36565b6136a46060830185612b78565b6136b16080830184612b4e565b9695505050505050565b60006136c68261281d565b91506136d18361281d565b9250827fffffffffffffffffffffffffffffffffffffffffffffffffffffffffffffffff0382111561370657613705612f2e565b5b828201905092915050565b60007bffffffffffffffffffffffffffffffffffffffffffffffffffffffff82169050919050565b600061374482613711565b915061374f83613711565b9250817bffffffffffffffffffffffffffffffffffffffffffffffffffffffff048311821515161561378457613783612f2e565b5b828202905092915050565b600061379a82613711565b91506137a583613711565b9250826137b5576137b461304b565b5b82820490509291505056fea2646970667358221220887f5f7ecee2c613775832696c69fdbac3f469d81192a565941974c12b50a34864736f6c634300080e0033",
  "immutableReferences": {
    "2009": [
      {
        "length": 32,
        "start": 3782
      }
    ],
    "2023": [
      {
        "length": 32,
        "start": 3820
      }
    ],
    "2025": [
      {
        "length": 32,
        "start": 3872
      }
    ]
  },
  "source": "// SPDX-License-Identifier: Unlicense\r\npragma solidity ^0.8.14;\r\n\r\nimport \"./mocks/ERC20.sol\"; //solmate copy\r\nimport \"./libraries/Math.sol\";\r\nimport \"./libraries/UQ112x112.sol\";\r\nimport \"./interfaces/IZuniswapV2Callee.sol\";\r\nimport \"./mocks/ERC20Mintable.sol\";\r\n\r\ninterface IERC20 {\r\n    function balanceOf(address) external returns (uint256);\r\n\r\n    function transfer(address to, uint256 amount) external;\r\n}\r\n\r\nerror AlreadyInitialized();\r\nerror BalanceOverflow();\r\nerror InsufficientInputAmount();\r\nerror InsufficientLiquidity();\r\nerror InsufficientLiquidityBurned();\r\nerror InsufficientLiquidityMinted();\r\nerror InsufficientOutputAmount();\r\nerror InvalidK();\r\nerror TransferFailed();\r\n\r\ncontract ZuniswapV2Pair is ERC20, Math {\r\n    using UQ112x112 for uint224;\r\n\r\n    uint256 constant MINIMUM_LIQUIDITY = 1000;\r\n\r\n    address public token0;\r\n    address public token1;\r\n\r\n    uint112 private reserve0;\r\n    uint112 private reserve1;\r\n    uint32 private blockTimestampLast;\r\n\r\n    uint256 public price0CumulativeLast;\r\n    uint256 public price1CumulativeLast;\r\n\r\n    bool private isEntered;\r\n\r\n    event Burn(\r\n        address indexed sender,\r\n        uint256 amount0,\r\n        uint256 amount1,\r\n        address to\r\n    );\r\n    event Mint(address indexed sender, uint256 amount0, uint256 amount1);\r\n    event Sync(uint256 reserve0, uint256 reserve1);\r\n    event Swap(\r\n        address indexed sender,\r\n        uint256 amount0Out,\r\n        uint256 amount1Out,\r\n        address indexed to\r\n    );\r\n\r\n    modifier nonReentrant() {\r\n        require(!isEntered);\r\n        isEntered = true;\r\n\r\n        _;\r\n\r\n        isEntered = false;\r\n    }\r\n\r\n    constructor() ERC20(\"ZuniswapV2 Pair\", \"ZUNIV2\", 18) {}\r\n\r\n    function initialize(address token0_, address token1_) public {\r\n        if (token0 != address(0) || token1 != address(0))\r\n            revert AlreadyInitialized();\r\n\r\n        token0 = token0_;\r\n        token1 = token1_;\r\n    }\r\n\r\n    function mint(address to) public returns (uint256 liquidity) {\r\n        (uint112 reserve0_, uint112 reserve1_, ) = getReserves();\r\n        uint256 balance0 = IERC20(token0).balanceOf(address(this));\r\n        uint256 balance1 = IERC20(token1).balanceOf(address(this));\r\n        uint256 amount0 = balance0 - reserve0_;\r\n        uint256 amount1 = balance1 - reserve1_;\r\n\r\n        if (totalSupply == 0) {\r\n            liquidity = Math.sqrt(amount0 * amount1) - MINIMUM_LIQUIDITY;\r\n            _mint(address(0), MINIMUM_LIQUIDITY);\r\n        } else {\r\n            liquidity = Math.min(\r\n                (amount0 * totalSupply) / reserve0_,\r\n                (amount1 * totalSupply) / reserve1_\r\n            );\r\n        }\r\n\r\n        if (liquidity <= 0) revert InsufficientLiquidityMinted();\r\n\r\n        _mint(to, liquidity);\r\n\r\n        _update(balance0, balance1, reserve0_, reserve1_);\r\n\r\n        emit Mint(to, amount0, amount1);\r\n    }\r\n\r\n    function burn(address to)\r\n        public\r\n        returns (uint256 amount0, uint256 amount1)\r\n    {\r\n        uint256 balance0 = IERC20(token0).balanceOf(address(this));\r\n        uint256 balance1 = IERC20(token1).balanceOf(address(this));\r\n        uint256 liquidity = balanceOf[address(this)];\r\n\r\n        amount0 = (liquidity * balance0) / totalSupply;\r\n        amount1 = (liquidity * balance1) / totalSupply;\r\n\r\n        if (amount0 == 0 || amount1 == 0) revert InsufficientLiquidityBurned();\r\n\r\n        _burn(address(this), liquidity);\r\n\r\n        _safeTransfer(token0, to, amount0);\r\n        _safeTransfer(token1, to, amount1);\r\n\r\n        balance0 = IERC20(token0).balanceOf(address(this));\r\n        balance1 = IERC20(token1).balanceOf(address(this));\r\n\r\n        (uint112 reserve0_, uint112 reserve1_, ) = getReserves();\r\n        _update(balance0, balance1, reserve0_, reserve1_);\r\n\r\n        emit Burn(msg.sender, amount0, amount1, to);\r\n    }\r\n\r\n    function swap(\r\n        uint256 amount0Out,\r\n        uint256 amount1Out,\r\n        address to,\r\n        bytes calldata data\r\n    ) public nonReentrant {\r\n        if (amount0Out == 0 && amount1Out == 0)\r\n            revert InsufficientOutputAmount();\r\n\r\n        (uint112 reserve0_, uint112 reserve1_, ) = getReserves();\r\n\r\n        if (amount0Out > reserve0_ || amount1Out > reserve1_)\r\n            revert InsufficientLiquidity();\r\n\r\n        if (amount0Out > 0) _safeTransfer(token0, to, amount0Out);\r\n        if (amount1Out > 0) _safeTransfer(token1, to, amount1Out);\r\n        if (data.length > 0)\r\n            IZuniswapV2Callee(to).zuniswapV2Call(\r\n                msg.sender,\r\n                amount0Out,\r\n                amount1Out,\r\n                data\r\n            );\r\n\r\n        uint256 balance0 = IERC20(token0).balanceOf(address(this));\r\n        uint256 balance1 = IERC20(token1).balanceOf(address(this));\r\n\r\n        uint256 amount0In = balance0 > reserve0 - amount0Out\r\n            ? balance0 - (reserve0 - amount0Out)\r\n            : 0;\r\n        uint256 amount1In = balance1 > reserve1 - amount1Out\r\n            ? balance1 - (reserve1 - amount1Out)\r\n            : 0;\r\n\r\n        if (amount0In == 0 && amount1In == 0) revert InsufficientInputAmount();\r\n\r\n        // Adjusted = balance before swap - swap fee; fee stays in the contract\r\n        uint256 balance0Adjusted = (balance0 * 1000) - (amount0In * 3);\r\n        uint256 balance1Adjusted = (balance1 * 1000) - (amount1In * 3);\r\n\r\n        if (\r\n            balance0Adjusted * balance1Adjusted <\r\n            uint256(reserve0_) * uint256(reserve1_) * (1000**2)\r\n        ) revert InvalidK();\r\n\r\n        _update(balance0, balance1, reserve0_, reserve1_);\r\n\r\n        emit Swap(msg.sender, amount0Out, amount1Out, to);\r\n    }\r\n\r\n    function sync() public {\r\n        (uint112 reserve0_, uint112 reserve1_, ) = getReserves();\r\n        _update(\r\n            IERC20(token0).balanceOf(address(this)),\r\n            IERC20(token1).balanceOf(address(this)),\r\n            reserve0_,\r\n            reserve1_\r\n        );\r\n    }\r\n\r\n    function getReserversWithTokenNames()\r\n    public\r\n    returns (\r\n        string memory,\r\n        uint256,\r\n        string memory,\r\n        uint256,\r\n        uint32\r\n    )\r\n    {\r\n        ERC20Mintable coin0 = ERC20Mintable(token0);\r\n        ERC20Mintable coin1 = ERC20Mintable(token1);\r\n        string memory token0Name = coin0.getName();\r\n        string memory token1Name = coin1.getName();\r\n        uint256 balance0 = IERC20(token0).balanceOf(address(this));\r\n        uint256 balance1 = IERC20(token1).balanceOf(address(this));\r\n        return (token0Name, balance0, token1Name, balance1, blockTimestampLast);\r\n    }\r\n\r\n    function getReserves()\r\n        public\r\n        view\r\n        returns (\r\n            uint112,\r\n            uint112,\r\n            uint32\r\n        )\r\n    {\r\n        return (reserve0, reserve1, blockTimestampLast);\r\n    }\r\n\r\n    //\r\n    //\r\n    //\r\n    //  PRIVATE\r\n    //\r\n    //\r\n    //\r\n    function _update(\r\n        uint256 balance0,\r\n        uint256 balance1,\r\n        uint112 reserve0_,\r\n        uint112 reserve1_\r\n    ) private {\r\n        if (balance0 > type(uint112).max || balance1 > type(uint112).max)\r\n            revert BalanceOverflow();\r\n\r\n        unchecked {\r\n            uint32 timeElapsed = uint32(block.timestamp) - blockTimestampLast;\r\n\r\n            if (timeElapsed > 0 && reserve0_ > 0 && reserve1_ > 0) {\r\n                price0CumulativeLast +=\r\n                    uint256(UQ112x112.encode(reserve1_).uqdiv(reserve0_)) *\r\n                    timeElapsed;\r\n                price1CumulativeLast +=\r\n                    uint256(UQ112x112.encode(reserve0_).uqdiv(reserve1_)) *\r\n                    timeElapsed;\r\n            }\r\n        }\r\n\r\n        reserve0 = uint112(balance0);\r\n        reserve1 = uint112(balance1);\r\n        blockTimestampLast = uint32(block.timestamp);\r\n\r\n        emit Sync(reserve0, reserve1);\r\n    }\r\n\r\n    function _safeTransfer(\r\n        address token,\r\n        address to,\r\n        uint256 value\r\n    ) private {\r\n        (bool success, bytes memory data) = token.call(\r\n            abi.encodeWithSignature(\"transfer(address,uint256)\", to, value)\r\n        );\r\n        if (!success || (data.length != 0 && !abi.decode(data, (bool))))\r\n            revert TransferFailed();\r\n    }\r\n}\r\n",
  "sourcePath": "C:\\Users\\eu\\WebstormProjects\\Janus\\src\\contracts\\ZuniswapV2Pair.sol",
  "compiler": {
    "name": "solc",
    "version": "0.8.14+commit.80d49f37.Emscripten.clang"
  },
  "schemaVersion": "3.4.7",
  "updatedAt": "2022-06-08T14:28:31.713Z",
  "networkType": "ethereum",
  "devdoc": {
    "kind": "dev",
    "methods": {},
    "version": 1
  },
  "userdoc": {
    "kind": "user",
    "methods": {},
    "version": 1
  }
}